:020000040800F2
:1000000000040020450100084D0100084F010008D0
:1000100051010008530100085501000800000000CC
:100020000000000000000000000000005701000870
:1000300059010008000000005B0100085D01000894
:100040005F0100085F0100085F0100085F01000810
:100050005F0100085F0100085F0100085F01000800
:100060005F0100085F0100085F0100085F010008F0
:100070005F0100085F0100085F0100085F010008E0
:100080005F0100085F0100085F0100085F010008D0
:100090005F0100085F0100085F0100085F010008C0
:1000A0005F0100085F0100085F0100085F010008B0
:1000B0005F0100085F0100085F0100085F010008A0
:1000C0005F0100085F0100085F0100085F01000890
:1000D0005F0100085F0100085F0100085F01000880
:1000E0005F0100085F0100085F0100085F01000870
:1000F0005F0100085F0100085F0100085F01000860
:100100005F0100085F0100085F0100085F0100084F
:100110005F0100085F0100085F0100085F0100083F
:100120005F0100085F0100085F0100085F0100082F
:10013000DFF80CD000F018F800480047BD010008B7
:10014000000400200648804706480047FEE7FEE717
:10015000FEE7FEE7FEE7FEE7FEE7FEE7FEE7FEE777
:100160009D01000831010008064C074D06E0E068DB
:1001700040F0010394E8070098471034AC42F6D3EE
:10018000FFF7DAFFFC0100080C02000842690A438D
:100190004261704702690A4302617047704702E09A
:1001A00008C8121F08C1002AFAD170477047002002
:1001B00001E001C1121F002AFBD1704710B50D48A4
:1001C000806940F008000B4988610B48006820F006
:1001D0000F00094908600846006840F00100086007
:1001E00001210548FFF7D6FF01210348FFF7CEFFA5
:1001F000002010BD00100240000C01400C0200085D
:0C0200000000002000040000AE01000817
:0400000508000131BD
:00000001FF
