:020000040800F2
:100000007808002079300008B13D0008B33D0008B1
:10001000B73D0008BB3D0008BF3D000800000000E0
:10002000000000000000000000000000C33D0008C8
:10003000C53D000800000000C73D0008C93D00089C
:10004000933000089330000893300008CF3E00083A
:100050009330000893300008933000089330000874
:100060009330000893300008933000089330000864
:100070009330000893300008933000089330000854
:100080009330000893300008933000089330000844
:100090000B5E00089330000893300008933000088E
:1000A0009330000893300008933000089330000824
:1000B0009330000893300008933000089330000814
:1000C0009330000893300008933000089330000804
:1000D0009330000829470008933000089B48000827
:1000E00093300008E33E00089330000800F002F867
:1000F00000F092F80AA090E8000C82448344AAF130
:100100000107DA4501D100F087F8AFF2090EBAE82D
:100110000F0013F0010F18BFFB1A43F0010318473B
:10012000547C0000747C0000103A24BF78C878C169
:10013000FAD8520724BF30C830C144BF04680C60ED
:10014000704700000023002400250026103A28BF35
:1001500078C1FBD8520728BF30C148BF0B60704739
:100160006E2906F08C81702905F0CA87662907F090
:100170008882652907F08582672907F082826129D4
:10018000AFF3008003681B0A28BF41F08001692992
:1001900005F03A87642905F03787752905F034871B
:1001A0006F2906F08F82782905F09687E92906F0F5
:1001B0002782E42906F02482F52906F02182EF291E
:1001C00006F08C82F82905F095870368DB0928BFC3
:1001D00041F08001632906F09681732906F09B8126
:1001E000E32906F0E384F32906F0E8840020704751
:1001F0001FB507F03FFA06F037FD0400002000218C
:1002000007F022FA401C60600020002107F006FA87
:10021000E0601FBD10B510BD06F0F8FC1146FFF7F9
:10022000E7FF02F063FF06F0D9FD03B4FFF7F2FF2A
:1002300003BC04F0F9F9000000210020674A1268AD
:1002400042F48032654B1A6000BF644A126802F4BF
:100250000030491C10B9B1F5A06FF6D15F4A1268A1
:1002600012F4003F01D0012000E00020012842D11B
:100270005B4A126842F01002594B1A601A46126823
:1002800022F003021A601A46126842F002021A6053
:10029000524A5268514B5A601A4652685A601A467E
:1002A000526842F480625A601A46526822F47C1204
:1002B0005A601A46526842F4E8125A601A461268A6
:1002C00042F080721A6000BF444A126812F0007F48
:1002D000FAD0424A526822F00302404B5A601A4652
:1002E000526842F002025A6000BF3C4A526802F073
:1002F0000C02082AF9D1704710B5FFF79DFF10BD19
:1003000010B53648006840F00100344908600846DE
:10031000406834490840314948600846006832491D
:1003200008402E4908600846006820F480200860D4
:100330000846406820F4FE0048604FF41F008860C3
:10034000FFF7DAFF4FF000602849086010BD10B5D4
:10035000002100200022214B5B6803F00C0121B139
:10036000042906D0082928D107E0214B214C23601D
:1003700027E01F4B1F4C236023E0184B5B6803F4FE
:100380007010164B5B6803F48032022303EB90403D
:1003900022B9194B4343174C23600DE00F4B5B68A8
:1003A00013F4003F04D0144B4343124C236003E08A
:1003B0000F4B43430F4C236003E00D4B0D4C236068
:1003C00000BF00BF054B5B68C3F303130B4CE15C3C
:1003D000084B1B68CB40074C236010BD0010024047
:1003E000002002400000FFF8FFFFF6FE08ED00E0ED
:1003F00000127A000000002000093D0004000020E7
:1004000036490143364A1160704770B50021002318
:100410000F22C4784CB3324C246804F4E064C4F571
:10042000E0644FEA1421C1F1040322FA01F2447896
:1004300004FA03F1847804EA020444EA01014FEA71
:100440000111284C0678A155047804F01F054FF0DF
:10045000010404FA05F405784FEA65154FF0E0262B
:1004600006EB8505C5F8004109E0047804F01F0596
:100470000124AC401C4D0678761145F8264070BD2D
:100480001A4A0A4002431A4B1A60704741B1194A8E
:10049000126842EA00024FF0E023C3F8102D07E093
:1004A000144A126822EA00024FF0E023C3F8102D2C
:1004B0007047042808D14FF0E021096941F0040198
:1004C0004FF0E022116107E04FF0E021096921F0CF
:1004D00004014FF0E0221161704700000000FA05AE
:1004E0000CED00E000E400E080E100E080FFFF1F91
:1004F00008ED00E010ED00E010B50446CA48844263
:1005000008D10121042000F024FB0021042000F088
:1005100020FB46E0C548844208D10121082000F0B4
:1005200018FB0021082000F014FB3AE0C048844288
:1005300008D10121102000F00CFB0021102000F058
:1005400008FB2EE0BB48844208D10121202000F0A6
:1005500000FB0021202000F0FCFA22E0B648844293
:1005600008D10121402000F0F4FA0021402000F0E1
:10057000F0FA16E0B148844208D10121802000F051
:10058000E8FA0021802000F0E4FA0AE0AC48844256
:1005900007D10121801500F0DCFA0021A01500F040
:1005A000D8FA10BD10B50121084600F0D2FA00219A
:1005B000012000F0CEFA10BD2DE9F04102460025E1
:1005C0000026002000230024002791F803C00CF02F
:1005D0000F0591F803C01CF0100F03D091F802C072
:1005E0004CEA0505B1F800C01CF0FF0F31D01468CB
:1005F00000202BE04FF0010C0CFA00F3B1F800C022
:100600000CEA03069E4220D183004FF00F0C0CFA37
:1006100003F7BC4305FA03FC4CEA040491F803C059
:10062000BCF1280F06D14FF0010C0CFA00FCC2F807
:1006300014C00AE091F803C0BCF1480F05D14FF097
:10064000010C0CFA00FCC2F810C0401C0828D1D3E1
:100650001460B1F800C0BCF1FF0F34DD5468002015
:100660002EE000F1080C4FF0010808FA0CF3B1F885
:1006700000C00CEA03069E4221D183004FF00F0C0C
:100680000CFA03F7BC4305FA03FC4CEA040491F8A6
:1006900003C0BCF1280F05D100F1080C08FA0CF8D2
:1006A000C2F8148091F803C0BCF1480F07D100F1E3
:1006B000080C4FF0010808FA0CF8C2F81080401C32
:1006C0000828CED35460BDE8F0814FF6FF71018059
:1006D000022181700421C170704702460020936896
:1006E0000B4201D0012000E00020704701468868DD
:1006F00080B2704702460020D3680B4201D001202F
:1007000000E0002070470146C86880B27047016170
:100710007047416170470AB1016100E04161704773
:10072000C16070474FF480320A4382618161826107
:1007300082698269704702460020424B18684FF672
:100740008073184040EA021008433E4B186070471F
:100750003D49C8617047F0B50A46002300240021D6
:10076000002500F00046B6F1004F02D1354EF16988
:1007700001E0344E7168C0F3034583B200F44016C3
:10078000B6F5401F08D121F070612E4E766826F034
:1007900070662C4F7E6012E000F48016B6F5801F64
:1007A00006D1032606FA05F4A14341F0706106E084
:1007B000460D360103FA06F6B14341F0706122B1ED
:1007C000460D360103FA06F6314300F00046B6F155
:1007D000004F02D11B4EF16101E01A4E7160F0BD75
:1007E00030B500228B071C0F0F2303FA04F2154BC0
:1007F00008338C1053F824309343124C08348D1076
:1008000044F8253023468C1053F824308C07240FED
:1008100000FA04F423430B4C08348D1044F82530BF
:1008200030BD0A490860704700080140000C0140D3
:10083000001001400014014000180140001C01405C
:10084000002001400000014000002042DC00204266
:10085000DB48006840F00100D9490860084640685C
:10086000D8490840D649486008460068D64908403B
:10087000D34908600846006820F4802008600846D4
:10088000406820F4FE0048604FF41F008860704705
:10089000CB49096821F48031C94A116011460968C1
:1008A00021F480211160B0F5803F03D0B0F5802F96
:1008B0000ED106E0C249096841F48031C04A116096
:1008C00007E0BF49096841F4A021BD4A116000E07A
:1008D00000BF00BF704710B5014600220023002072
:1008E0004A11012A02D1B64C236806E0022A02D13D
:1008F000B34C236A01E0B24C636A01F01F02012489
:1009000094401C4201D0012000E0002010BD70B5D1
:1009100000240025002600BF3120FFF7DCFF06463B
:10092000641CB4F5A06F01D0002EF5D03120FFF784
:10093000D2FF08B1012500E00025284670BD014620
:1009400000209F4A106820F0F80040EAC1001060C3
:1009500070479E490860704702460020984B5868CF
:1009600020F47C1042EA01031843954B586070470D
:1009700096490866704701460020914A506820F069
:1009800003000843506070478D48406800F00C0039
:100990007047014600208A4A506820F0F000084362
:1009A0005060704701460020854A506820F4E0609E
:1009B00008435060704701460020814A506820F487
:1009C000605040EAC1005060704729B17C4A527AB9
:1009D00002437B4B5A7206E0794A527AC343DBB238
:1009E0001A40774B5A727047794908607047014640
:1009F0000020734A506820F440400843506070471C
:100A00000021744A11706E4A82F82010012802D029
:100A1000042808D103E001216E4A117004E0052189
:100A20006C4A117000E000BF00BF70476A4908605F
:100A300070476349096A0143614A11627047674917
:100A40000860704730B500210022002400235C4D6F
:100A50006D6805F00C0121B1042905D0082923D1C6
:100A600005E05F4D056022E05D4D05601FE0544DDF
:100A70006D6805F47012524D6D6805F480340225DE
:100A800005EB92421CB9574D554305600BE04C4DA8
:100A90006D6815F4003F03D0524D5543056002E0E8
:100AA0004F4D5543056002E04D4D056000BF00BF4E
:100AB000434D6D6805F0F00109094B4D6B5C05680D
:100AC000DD4045603E4D6D6805F4E061090A464D24
:100AD0006B5C4568DD408560394D6D6805F460519B
:100AE000C90A414D6B5C4568DD40C560344D6D6899
:100AF00005F44041890B3D4D6B5CC568B5FBF3F5D2
:100B0000056130BD29B12E4A526902432C4B5A610E
:100B100004E02B4A52698243294B5A61704729B13C
:100B2000274A92690243264B9A6104E0244A92695B
:100B30008243234B9A61704729B1214AD26902430B
:100B40001F4BDA6104E01E4AD26982431C4BDA6112
:100B5000704729B11A4AD2680243194BDA6004E09F
:100B6000174AD2688243164BDA60704729B1144A9B
:100B700012690243124B1A6104E0114A126982435E
:100B80000F4B1A6170471A49086070470F49C864D3
:100B900070470B49C87170470948406A40F080703F
:100BA00007494862704701460020054A92680A4298
:100BB00001D0012000E00020704701498872704791
:100BC000001002400000FFF8FFFFF6FE0000424266
:100BD000D800424220100240800442423C0442427B
:100BE00000127A0000093D001400002024000020BB
:100BF0004004424210B50446FC48844209D1012118
:100C00008803FFF7A6FF00214FF48040FFF7A1FF04
:100C100032E0F748844209D101214804FFF7A6FFDA
:100C200000214FF40030FFF7A1FF25E0F148844296
:100C300009D101218804FFF799FF00214FF480209A
:100C4000FFF794FF18E0EC48844209D10121C80461
:100C5000FFF78CFF00214FF40020FFF787FF0BE028
:100C6000E648844208D101210805FFF77FFF0021F3
:100C70004FF48010FFF77AFF10BD2DE9F04786B0E2
:100C800005460E460024A24600BFA1460027B089B3
:100C900000B100BF2F462C8A4CF6FF700440F0884C
:100CA00004432C82AC894EF6F3100440B08831899D
:100CB0000843718908430443AC81AC8A4FF6FF4076
:100CC0000440B0890443AC8201A8FFF7BBFEC748CB
:100CD000874202D1DDF810A001E0DDF80CA0A88960
:100CE00010F4004F08D00AEBCA0000EB0A1031687C
:100CF0004900B0FBF1F807E00AEBCA0000EB0A106C
:100D000031688900B0FBF1F86420B8FBF0F0040111
:100D10002009642101FB1089A88910F4004F08D034
:100D2000322000EBC900B0FBF1F000F007000443F3
:100D300008E0322000EB09106421B0FBF1F000F074
:100D40000F0004432C8106B0BDE8F0874FF4165124
:100D5000016000218180C18001810C21418100213D
:100D60008181704710B502460020108A4FF2FF03C0
:100D700018400B884C8823438C882343CC8823431A
:100D80001843108210BD0021018041808180C18004
:100D9000704721B1828942F40052828104E0828945
:100DA0004DF6FF731A4082817047F0B50346002468
:100DB000002600250020A1F510676A3F00D100BF82
:100DC0001846C1F3421401F01F06012707FA06F581
:100DD000012C01D10C3004E0022C01D1103000E0D4
:100DE00014301AB107682F43076002E00768AF4369
:100DF0000760F0BD10B51AB1838A0B43838204E00B
:100E0000838ACC43A4B22340838210BD028A4FF66A
:100E1000F0731A400282028A0A4302827047828972
:100E20004FF2FF731A40828182890A4382817047A0
:100E300021B1828942F00202828104E082894FF668
:100E4000FD731A4082817047028A4FF6DF731A40A1
:100E50000282028A0A430282704721B1028A42F466
:100E60008042028204E0028A4BF6FF731A4002823B
:100E70007047C1F308028280704701468888C0F33A
:100E800008007047818941F0010181817047028B20
:100E9000D2B20283028B42EA012202837047028BA4
:100EA00002F47F420283028B0A430283704721B11E
:100EB000828A42F02002828204E0828A4FF6DF7347
:100EC0001A408282704721B1828A42F010028282E7
:100ED00004E0828A4FF6EF731A408282704721B194
:100EE000828A42F00802828204E0828A4FF6F77317
:100EF0001A408282704721B1828942F40042828185
:100F000003E08289C2F30E028281704721B1828A96
:100F100042F40062828204E0828A4FF2FF731A4038
:100F200082827047828A4FF6FB731A408282828ADD
:100F30000A438282704721B1828A42F00202828291
:100F400004E0828A4FF6FD731A408282704702469F
:100F50000020B1F5007F00D100BF13880B4201D003
:100F6000012000E00020704701F40072B2F5007F1C
:100F700000D100BFCA430280704770B5024600240A
:100F8000002300250020A1F510666A3E00D100BFB5
:100F9000C1F3421501F01F03012606FA03F3012DE8
:100FA00002D19689334006E0022D02D1168A3340E1
:100FB00001E0968A33400C12012606FA04F41688E2
:100FC000344013B10CB1012000E0002070BD10B519
:100FD00000220023A1F510646A3C00D100BF0A1270
:100FE00001249440A3B2DC43048010BD00380140CA
:100FF0000044004000480040004C004000500040C9
:1010000010B50120FFF7BFFD0020FFF7BCFD10BDAC
:1010100024490860704724490860704723490860E4
:10102000704701460020224A10884FF67F4200EAAE
:10103000020040EA01001F4AA2F82C0C704701464A
:1010400000201B4A10884FF6807200EA020040EA36
:101050000100184AA2F82C0C70470022144A2C3ABE
:1010600002441160704701460022114A2C3A0A449A
:101070001088704710480068C0B270470F48008859
:1010800040F001000B49A1F8340C70470C4800688F
:10109000C0B270470948008840F002000549A1F835
:1010A000340C704704860D4200860D4288860D423E
:1010B0002C6C004000600040A0860D42346C004063
:1010C000A4860D4210B501210807FFF74FFD00214E
:1010D0004FF08050FFF74AFD10BD2C490862704761
:1010E0002A490861704701460020294A106820F00B
:1010F000E00008431060704726490860704710B54B
:1011000002460020224B186820F0030010431860AC
:10111000214B1B6843F004034FF0E024C4F8103D5A
:10112000012901D130BF00E020BF1B4B1B6823F019
:1011300004034FF0E024C4F8103D10BD14480068CB
:1011400040F00400124908600846006840F00200C0
:1011500008601148006840F004004FF0E021C1F839
:10116000100D00BF00BF30BF704701460020084A85
:1011700052680A4201D0012000E000207047044973
:10118000096841EA8001024A1160704700000E427E
:1011900000700040A0000E4210ED00E039B1554A49
:1011A000128842EA0002544BA3F8002809E0514A91
:1011B00012886FEA00039BB202EA03024E4BA3F8C7
:1011C000002870474D48008840F010004A49A1F8B7
:1011D00004087047494800884FF6EF7100EA0100A3
:1011E0004549A1F804087047002145480188424854
:1011F000B0F8180841EA0040704700B50246FFF712
:10120000E1FF100C3F4908803B49A1F81C28FFF77B
:10121000E1FF00BD00B50246FFF7D4FFC2F3034073
:10122000394908803449A1F80C28FFF7D3FF00BDE5
:1012300000B50246FFF7C6FF100C344908802E495E
:10124000A1F82428FFF7C6FF00BD00203049098817
:101250004FEA01714FEA11302749B1F8141841EAF9
:101260000000704700BF2548008810F0200FFAD01A
:101270007047224800884FF6F77100EA01001E49C6
:10128000A1F8040800BF1D48008810F0080FFAD02C
:10129000704701460020194A12880A4201D00120F5
:1012A00000E000207047154909886FEA000292B2F9
:1012B00001EA0201104AA2F8041870470146002012
:1012C0000E4A128802EA0102D0B20B4AB2F8002894
:1012D0000A4202D008B1012000E00020704707490F
:1012E00009886FEA000292B201EA0201024AA2F8FA
:1012F00004187047002800400020004004280040E7
:101300001C280040182800400828004020280040E1
:101310001028004001460020FF4A106800F0380005
:10132000084310607047FC49096821F00801FA4A37
:10133000116011460968014311607047F649096858
:1013400021F01001F44A116011460968014311604F
:101350007047F248F0494860F14848607047EF48EC
:10136000ED494860EE4848607047EB48006940F03E
:101370008000E94908617047E748006940F0800053
:10138000E549086170470420E349C96801F001019B
:10139000012901D101200EE0DF49C96811F0040FD5
:1013A00001D0022007E0DC49C96811F0100F01D01C
:1013B000032000E00420704700B502460423FFF735
:1013C000E2FF034603E0FFF7DEFF0346521E012B58
:1013D00001D1002AF7D102B90523184600BD30B566
:1013E000044604254FF43020FFF7E6FF0546042DA0
:1013F00017D1C948006940F00200C7490861084692
:101400004461006940F0400008614FF43020FFF76C
:10141000D3FF0546C048006941F6FD710840BE494A
:101420000861284630BD10B504244FF43020FFF782
:10143000C3FF0446042C16D1B748006940F00400ED
:10144000B54908610846006940F0400008614FF462
:101450003020FFF7B1FF0446AF48006941F6FB7149
:101460000840AD490861204610BD00B5024604237E
:10147000FFF789FF034603E0FFF785FF0346521E8F
:10148000012B01D1002AF7D102B90523184600BD6E
:1014900010B504244FF43020FFF7E7FF0446042C76
:1014A00016D19D48006940F004009B490861084638
:1014B000006940F0400008614FF43020FFF7D5FF8D
:1014C00004469548006941F6FB710840924908615D
:1014D000204610BD00209049C96911F0020F01D0CB
:1014E000012000E00020704730B5A5250424FFF757
:1014F000F1FF00B100254FF43020FFF75DFF0446F7
:10150000042C3BD18548844988608548886008461A
:10151000006940F0200008610846006940F0400082
:1015200008614FF43020FFF747FF0446042C1CD11C
:101530007948006941F6DF7108407749086108463B
:10154000006940F010000861764805804FF40050B3
:10155000FFF732FF0446052C10D06F48006941F6B2
:10156000EF7108406C49086108E0052C06D06A4814
:10157000006941F6EF71084067490861204630BDB7
:10158000F0B504460D4604260027F002FFF714FFCD
:101590000646042E22D16048006940F001005E49F1
:1015A00008612580F002FFF707FF0646042E0ED1E2
:1015B000A71C280C3880F002FFF7FEFE06465648AE
:1015C000006941F6FE7108405349086106E052483F
:1015D000006941F6FE7108404F4908613046F0BD90
:1015E00070B504460D460426F002FFF7E5FE0646F8
:1015F000042E11D14848006940F0010046490861B5
:101600002580F002FFF7D8FE06464348006941F600
:10161000FE71084040490861304670BD70B505460E
:101620000E460424E002FFF7C7FE0446042C17D13F
:101630003A48394988603A4888600846006940F06D
:10164000100008612E80E002FFF7B6FE0446052C6C
:1016500006D03148006941F6EF7108402E49086113
:10166000204670BD2DE9F04304464FF6FF7637461D
:10167000B046B1460425E443E6B2C4F30727C4F3F9
:1016800007484FEA1469E802FFF796FE0546042D65
:101690003ED1224820498860214888600846006978
:1016A00040F010000861FF2E06D01F4806804FF45E
:1016B0000050FFF781FE0546042D08D1FF2F06D00C
:1016C0001A4807804FF40050FFF776FE0546042DB8
:1016D00009D1B8F1FF0F06D01548A0F80C88E80230
:1016E000FFF76AFE0546042D09D1B9F1FF0F06D0B8
:1016F0000F48A0F80E98E802FFF75EFE0546052D9C
:1017000006D00548006941F6EF71084002490861BA
:101710002846BDE8F0830000002002402301674511
:10172000AB89EFCD00F8FF1F08F8FF1F0AF8FF1F75
:1017300000F0FF1F30B5054604244FF43020FFF7BA
:101740003BFE0446042C41D15F48604988606048F4
:1017500088600846006940F020000861084600697A
:1017600040F0400008614FF43020FFF725FE0446AA
:10177000042C22D15548006941F6DF7108405349D5
:1017800008610846006940F0100008611DB10020A2
:101790005049088002E0A5204E4908804FF43020CF
:1017A000FFF70AFE0446052C10D04848006941F6B0
:1017B000EF7108404549086108E0052C06D0434810
:1017C000006941F6DF71084040490861204630BD9C
:1017D000F0B505460E46174604243B483B49886051
:1017E0003B488860E002FFF7E7FD0446042C19D16E
:1017F0003648006940F010003449086147F0F800AD
:1018000030432843344908804FF40050FFF7D4FD9B
:101810000446052C06D02D48006941F6EF710840BA
:101820002A4908612046F0BD2848C06980087047F1
:101830002648006A704700202449096811F0200FEB
:1018400001D0012000E00020704729B11F4A126931
:1018500002431E4B1A6104E01C4A126982431B4B6F
:101860001A61704701460020012908D1174AD26940
:1018700012F0010F01D0012008E0002006E0134A19
:10188000D2680A4201D0012000E0002070470F49D1
:10189000C860704704200D49C96801F001010129A1
:1018A00001D101200EE00949C96811F0040F01D0EF
:1018B000022007E00549C96811F0100F01D003208C
:1018C00000E004207047000023016745002002402B
:1018D000AB89EFCD00F8FF1F02F8FF1F10B50446DB
:1018E000F648844209D101214805FFF73FF900215C
:1018F0004FF40010FFF73AF908E001218805FFF7DF
:1019000035F900214FF48000FFF730F910BD2DE9C3
:10191000F04385B004460D460026B1460427DFF8A3
:10192000A083A6884FF6C0710E406846FFF78AF87C
:10193000DDF80880E348B8FBF0F01FFA80F946EACA
:101940000906A68020884FF6FE71084020800026F8
:10195000DD49286888420CD828684000B8FBF0F0C0
:1019600087B2042F00DA04273E4309F101002084E6
:1019700027E0E888A0F53F41FF3906D1286800EB51
:101980004000B8FBF0F087B209E0286800EBC00126
:1019900001EB0010B8FBF0F087B247F48047380540
:1019A000000D01D147F0010747F4004006434FF412
:1019B000967009FB00F04FF47A7190FBF1F0401C37
:1019C0002084A683208840F00100208026884FF6DE
:1019D000F5310E40A8886989084306432680A88906
:1019E00029890843208105B0BDE8F08341F28831A0
:1019F0000160002181804BF6FF71C18000210181CF
:101A000041814FF480418181704721B1028842F0C9
:101A10000102028004E002884FF6FE731A40028041
:101A2000704721B1828842F40062828004E082889B
:101A30004FF2FF731A408280704721B1828842F4CE
:101A40008052828004E082884EF6FF731A408280C2
:101A5000704721B1028842F48072028004E002885B
:101A60004FF6FF631A400280704721B1028842F4AA
:101A70000072028004E002884FF6FF531A40028091
:101A8000704721B1028842F48062028004E002883B
:101A90004FF6FF331A40028070470A4600218189C1
:101AA0004FF60173194002F0FE031943818170471C
:101AB00021B1828942F00102828104E082894FF6DD
:101AC000FE731A408281704721B1028842F04002C1
:101AD000028004E002884FF6BF731A40028070470C
:101AE00010B51AB183880B43838004E08388CC430C
:101AF000A4B22340838010BD018270470146088A4A
:101B0000C0B2704712B141F0010102E04FF6FE731E
:101B10001940018270470246002313460B4418887F
:101B2000704721B1028842F40042028003E002883B
:101B3000C2F30E0202807047B1F5006F04D1028833
:101B400042F40062028004E002884FF2FF731A4000
:101B500002807047B1F5005F04D1028842F4005260
:101B6000028004E002884DF6FF731A40028070473D
:101B700021B1028842F48052028004E002884EF6CD
:101B8000FF731A4002807047B1F5006F04D10288DC
:101B900042F40062028004E002884FF2FF731A40B0
:101BA0000280704721B1028842F02002028004E0E6
:101BB00002884FF6DF731A40028070470146088B97
:101BC0000012704721B1028842F01002028004E046
:101BD00002884FF6EF731A400280704721B90288DD
:101BE00042F08002028004E002884FF67F731A40C0
:101BF00002807047B1F5804F05D0828B4BF6FF73A2
:101C00001A40828303E0828B42F4804282837047D1
:101C100070B502460024002500230020958A138B0E
:101C20001B0445EA030626F07F4404EA01068E42BF
:101C300001D1012000E0002070BD10B50146002058
:101C4000002300228B8A0A8B120443EA020424F048
:101C50007F4010BD30B503460020002400221A4604
:101C60000C0F21F07F410CB1143201E0090C183245
:101C700015680D4201D0012000E0002030BD002297
:101C800021F07F42D3438382704730B50246002063
:101C90000023948801F0E06504EA154321F07F41B8
:101CA000948A0C4202D00BB1012000E0002030BD2C
:101CB000002221F07F42D3438382704700540040CA
:101CC00000127A0040420F00A086010010B50446C1
:101CD000F848844208D101214015FEF73AFF00215F
:101CE0006015FEF736FF17E0F348844208D1012162
:101CF0000015FEF72EFF00212015FEF72AFF0BE04E
:101D0000EE48844208D10121C803FEF722FF0021DA
:101D10004FF40040FEF71DFF10BD30B50246002015
:101D200000235068E64C20400D790C6844EA0524F5
:101D3000204350609068E34C2040D1E902542C438A
:101D40004D7944EA450420439060D06A20F4700045
:101D50000C7C641EE4B2234340EA0350D06230BDE1
:101D600000210160017141718160C1600121017434
:101D7000704721B1826842F00102826003E082680C
:101D800022F001028260704721B1826842F48072C1
:101D9000826003E0826822F480728260704710B52E
:101DA0000023CBB21AB144681C43446002E044688B
:101DB0009C43446010BD816841F008018160704718
:101DC000014600208A6812F0080F01D0012000E0CF
:101DD00000207047816841F004018160704701462E
:101DE00000208A6812F0040F01D0012000E00020DA
:101DF000704721B1826842F4A002826003E08268E9
:101E000022F4A00282607047014600208A6812F422
:101E1000800F01D0012000E00020704710B50A4675
:101E200000210023416821F46041531E41EA4331FF
:101E3000416010BD21B1426842F40062426003E09B
:101E4000426822F4006242607047F0B504460D46D5
:101E500000200021092D11DDE068A5F10A0606EB3E
:101E60004607072606FA07F18843A5F10A0606EB9E
:101E7000460603FA06F10843E0600CE0206905EB32
:101E80004507072606FA07F1884305EB450603FADE
:101E900006F108432061072A0FDA606B561E06EB35
:101EA00086071F2606FA07F18843561E06EB8606AC
:101EB00005FA06F10843606322E00D2A0FDA206B71
:101EC000D61F06EB86071F2606FA07F18843D61FA2
:101ED00006EB860605FA06F10843206310E0E06A87
:101EE000A2F10D0606EB86071F2606FA07F18843C6
:101EF000A2F10D0606EB860605FA06F10843E0623C
:101F0000F0BD21B1826842F48012826003E08268F1
:101F100022F48012826070470146C86C80B270471C
:101F200069480068704721B1426842F480624260AB
:101F300003E0426822F480624260704721B1426847
:101F400042F48052426003E0426822F480524260D0
:101F500070470A460021816821F4E0411143816005
:101F6000704721B1826842F40042826003E08268D7
:101F700022F400428260704721B1826842F402126A
:101F8000826003E0826822F4021282607047014698
:101F900000208A6812F4001F01D0012000E0002018
:101FA0007047F0B504461546002000220026092996
:101FB00011DDE068A1F10A0707EB470C072707FAD4
:101FC0000CF29043A1F10A0707EB470703FA07F267
:101FD0001043E0600CE0206901EB410C072707FA91
:101FE0000CF2904301EB410703FA07F21043206122
:101FF000A06BC0F30156EF1C06F1010CA7EB0C0718
:1020000007EB870C1F2707FA0CF29043EF1C06F131
:10201000010CA7EB0C0707EB870701FA07F2104347
:10202000A063F0BD10B50A4600210023816B21F4A6
:102030004011531E41EA0351816310BD10B50023C6
:1020400003460B441A6010BD02460023134601F1FB
:1020500028000344186880B270470A46002141688E
:102060001A4B1940114341607047416282627047C8
:102070000A460021416821F01F0111434160704769
:1020800038B11349096841F40001124AC2F8081432
:1020900006E00F49096821F400010E4AC2F808144D
:1020A00070470246002013680B4201D0012000E077
:1020B000002070470024014000280140003C0140FE
:1020C000FFFEF0FFFDF7F1FF4C240140FFFD3FFF55
:1020D0000824014000200140CA430260704770B5E7
:1020E00002460020002300240B125568CEB205EAF8
:1020F000060415681D4202D00CB1012000E000204A
:1021000070BD00220A12D3430360704701684FF686
:10211000FE72114001600021016041608160C16078
:102120008749884208D186490839496841F00F013A
:10213000834A083A516088E081491431884208D1C5
:102140007F490839496841F0F0017D4A083A5160F9
:102150007BE07B492831884208D1794908394968B0
:1021600041F47061764A083A51606EE074493C313E
:10217000884208D172490839496841F47041704A6F
:10218000083A516061E06E495031884208D16C498B
:102190000839496841F47021694A083A516054E0AD
:1021A00067496431884208D165490839496841F472
:1021B0007001634A083A516047E0614978318842CA
:1021C00008D15F490839496841F070615C4A083AB2
:1021D00051603AE05B49884208D1A0F104010968E6
:1021E00041F00F01584AC2F804142EE05549143149
:1021F000884207D15549096841F0F001524AC2F8B6
:10220000041422E04F492831884207D14F49096818
:1022100041F470614C4AC2F8041416E049493C315B
:10222000884207D14949096841F47041464AC2F8D9
:1022300004140AE043495031884206D143490968F1
:1022400041F47021404AC2F80414704710B50022CE
:10225000026847F6F0739A430C6A8B6823430C6953
:1022600023434C6923438C692343CC6923434C6A41
:1022700023438C6A23431A430260CB6843600B6894
:1022800083604B68C36010BD0021016041608160C4
:10229000C160016141618161C1610162416281622C
:1022A000704721B1026842F00102026004E0026856
:1022B0004FF6FE731A40026070471AB103680B4371
:1022C000036002E003688B4303607047416070471E
:1022D0000146486880B2704701460020002211F094
:1022E000805F02D01A4B1A6801E0174B1A680A4245
:1022F00001D0012000E00020704710F0805F02D084
:102300001249086001E0104948607047014600200A
:10231000002211F0805F02D00D4B1A6801E00A4BD9
:102320001A680A4201D0012000E00020704710F036
:10233000805F02D00549086001E0034948607047AA
:102340000800024008040240000002400404024069
:102350000004024010B50446BF48844208D1012160
:102360008014FEF7F6FB0021A014FEF7F2FB16E046
:10237000BA48844208D101210014FEF7F7FB00217E
:102380002014FEF7F3FB0AE0B548844207D101218F
:10239000C013FEF7EBFB0021E013FEF7E7FB10BDD7
:1023A00010B50022028802F441520B884C88234366
:1023B0008C882343CC8823430C8923434C892343B3
:1023C0008C892343CC8923431A430280838B4FF2A9
:1023D000FF74234083830B8A038210BD2DE9F04FE5
:1023E00085B005460C464FF0000902274FF0000863
:1023F0004FF0010B0026B246A88B4FF24001084077
:10240000A88302202884B5F81C90A068022801D176
:1024100000BF36E0A08810B94FF0010B01E04FF08B
:10242000020B8E48854200D100E000BF6846FEF7EF
:1024300009FBDDF800A0E088B0F5007F0AD14FEA83
:102440001A2000EB80004000A168B0FBF1F0401DB5
:1024500086B20BE04FEA4B10BAFBF0F000EB8000C5
:102460004000A168B0FBF1F0401D86B20A20B6FB27
:10247000F0F606F00108A6EB0800C0F34F074FEA9C
:102480000828022F01DBFF2F02DD02274FF0000892
:10249000E08840EA080038432884A088A1890843DE
:1024A000618808432188084340F4006040EA090934
:1024B000A5F81C9005B0BDE8F08F00210180418097
:1024C0008180C180018141818181C1810721018297
:1024D00070470021018041808180C180022181609C
:1024E00000218181704721B1028842F040020280C0
:1024F00004E002884FF6BF731A400280704721B192
:10250000828B42F48062828304E0828B4FF6FF3339
:102510001A408283704770B5002400230C110125F6
:10252000A540ABB21AB185881D43858004E085883B
:10253000DE43B6B23540858070BD10B51AB18388D0
:102540000B43838004E08388CC43A4B22340838080
:1025500010BD81817047014688897047A1F57E4290
:10256000FF3A04D0028842F48072028004E00288BC
:102570004FF6FF631A400280704721B1828842F013
:102580000402828004E082884FF6FB731A40828046
:10259000704702884FF2FF731A40028002880A4394
:1025A00002807047018841F480510180704721B159
:1025B000028842F40052028004E002884DF6FF7364
:1025C0001A400280704702460020012901D0108B7A
:1025D00000E0908A70470146088A7047B1F5804F45
:1025E00004D1028842F48042028004E002884BF663
:1025F000FF731A40028070470246002013890B4285
:1026000001D0012000E000207047CA4302817047DA
:10261000F0B50246002000240023002501F00F073A
:102620000126BE40B4B20B1101269E40B3B296887B
:1026300006EA03051689264202D00DB1012000E00A
:102640000020F0BD10B5002201F00F040123A340CB
:102650009AB2D343038110BD0030014000380040DE
:10266000003C004010B50446FF48844209D10121D6
:102670004806FEF77BFA00214FF00070FEF776FA6D
:1026800008E001218806FEF771FA00214FF0806012
:10269000FEF76CFA10BD30B5024600200023146826
:1026A00024F002041460146844F00104146000E093
:1026B0005B1C546804F00104012C03D0A3F57F4493
:1026C000FF3CF5D1546804F00104012C01D0002036
:1026D0006EE08C79012C04D1146844F080041460FD
:1026E00003E0146824F080041460CC79012C04D138
:1026F000146844F04004146003E0146824F04004BB
:1027000014600C7A012C04D1146844F02004146085
:1027100003E0146824F0200414604C7A012C04D1E6
:10272000146844F01004146003E0146824F01004EA
:1027300014608C7A012C04D1146844F008041460ED
:1027400003E0146824F008041460CC7A012C04D14E
:10275000146844F00404146003E0146824F00404D2
:1027600014608C78A407CD7844EA05640D7944EAB6
:1027700005444D7944EA05540D886D1E2C43D461FF
:10278000146824F001041460002300E05B1C54680A
:1027900004F00104012C03D1A3F57F44FF3CF5D1E3
:1027A000546804F00104012C01D1002000E0012054
:1027B00030BD10B50021837A012202FA03F1AB4A41
:1027C000126842F00102AA4BC3F800261A46D2F85A
:1027D0001C2622EA0102A74B1A60027BB2B9A64A64
:1027E000126822EA0102A44B1A604288C38842EAB6
:1027F0000343A24A847A42F834300288838842EA4A
:1028000003439E4A847A02EBC4025360027B012A8E
:1028100016D1994A126842EA0102974B1A6042881F
:10282000038842EA0343954A847A42F83430C288E6
:10283000838842EA0343914A847A02EBC4025360DC
:10284000C27A3AB98E4A126822EA0102884BC3F86A
:10285000042606E08A4A126842EA0102844BC3F861
:102860000426028932B9874A126822EA0102804BA3
:10287000C3F814260289012A06D1824A126842EA64
:1028800001027B4BC3F81426427B012A06D1794A08
:10289000126842EA0102764BC3F81C26734A12689A
:1028A00022F00102724BC3F8002610BD0021817195
:1028B000C171017241728172C1728170C170032154
:1028C0000171022141710121018070476749096846
:1028D00041F00101664AC2F800166449096843F6EE
:1028E0000E7221EA0201624AC2F800161146D1F8BE
:1028F000001641EA0021C2F800161146D1F8001670
:1029000021F00101C2F80016704721B1026842F4BB
:102910008032026003E0026822F480320260704775
:10292000E1B1026842F0800202604FF4C2721258B4
:1029300042F480734FF4C27213504FF4CA721258AB
:1029400042F480734FF4CA7213504FF4D27212588B
:1029500042F480734FF4D27213501BE0026822F0ED
:10296000800202604FF4C272125822F480734FF456
:10297000C27213504FF4CA72125822F480734FF48B
:10298000CA7213504FF4D272125822F480734FF46B
:10299000D2721350704710B502460020936803F0BE
:1029A0008063B3F1806F00D110E0936803F000639F
:1029B000B3F1006F01D1012008E0936803F0805368
:1029C000B3F1805F01D1022000E0042004287ED012
:1029D00002F5C07303EB00131B6803F0010402F55A
:1029E000C07303EB00131C600B7A7BB94B7A0C6845
:1029F00043EA445302F5C07404EB001424682343F3
:102A000002F5C07404EB0014236010E00B7A4C68EC
:102A100043EAC4034C7A234302F5C07404EB001468
:102A20002468234302F5C07404EB001423608B7AFE
:102A300003F00F038B7202F5C07303EB00135B68A6
:102A400023F00F0402F5C07303EB00135C6002F582
:102A5000C07303EB00135B688C7A234302F5C074E8
:102A600004EB001463600FE0006400400066004067
:102A7000006000401C6600400C660040406600405C
:102A800004660040146600408B7B1C064B7B44EAC6
:102A900003440B7B44EA0323CC7A234302F5C0743E
:102AA00004EB0014A3608B7C1C064B7C44EA0344BB
:102AB0000B7C44EA0323CC7B234302F5C07404EB74
:102AC0000014E36002F5C07303EB001300E007E0BD
:102AD0001B6843F0010402F5C07303EB00131C6094
:102AE00010BD10B50246002321B1012907D00229EB
:102AF0000FD109E09068F84C00EA04030BE09068FD
:102B0000F64C00EA040306E09068F54C00EA040382
:102B100001E0002300BF00BFF24C181BA34216D0F7
:102B200007DC83B16FF0806018180ED0022818D12E
:102B300011E0B0F5007F10D0EB4C001909D0B0F5D2
:102B4000003F0ED10BE002230DE000230BE0002339
:102B500009E0002307E0012305E0012303E001234E
:102B600001E0002300BF00BFD8B210BD21B1012990
:102B700007D002290FD109E0826842F0800282600A
:102B80000AE0826842F40042826005E0826842F412
:102B90000002826000E000BF00BF704710B500F582
:102BA000D87303EB01131B6803F004031372137A49
:102BB00053B900F5D87303EB01131B6840F2FF749F
:102BC00004EA5353136009E000F5D87303EB0113D3
:102BD0001B686FF0604404EAD303536000F5D873B8
:102BE00003EB01131B6803F00203537200F5D87363
:102BF00003EB01135B6803F00F03937200F5D873C6
:102C000003EB01135B681B0AD37400F5D87303EB65
:102C100001139B68D37200F5D87303EB01139B6813
:102C20001B0A137300F5D87303EB01139B681B0C8D
:102C3000537300F5D87303EB01139B681B0E93735A
:102C400000F5D87303EB0113DB68D37300F5D87379
:102C500003EB0113DB681B0A137400F5D87303EB55
:102C60000113DB681B0C537400F5D87303EB0113DD
:102C7000DB681B0E937421B9C36843F02003C36063
:102C800003E0036943F02003036110BD21B9C2686A
:102C900042F02002C26003E0026942F020020261B9
:102CA00070470246002019B9D36803F0030006E01C
:102CB000012903D1136903F0030000E000207047ED
:102CC00010B502460B4600204FF6FF71BBB91468E1
:102CD00024F0020444F00104146000E0491E54682A
:102CE00004F00304012C01D00029F7D1546804F04A
:102CF0000304012C01D0002032E0012030E0012B40
:102D000013D1146824F00304146000E0491E5468D1
:102D100014F0030F01D00029F8D1546814F0030F08
:102D200001D000201CE001201AE0022B17D114680A
:102D300024F0010444F00204146000E0491E5468C9
:102D400004F00304022C01D00029F7D1546804F0E8
:102D50000304022C01D0002002E0012000E000204A
:102D600010BD014600200A6822F0010242F0020272
:102D70000A604A6802F00302022A00D1012070476B
:102D800001464FF6FF7200200B6823F002030B6030
:102D900000E0521E4B6803F00203022B01D1002A0F
:102DA000F7D14B6803F00203022B00D001207047DB
:102DB000014600208A6902F0700070470146002039
:102DC0008A69100E7047014600208A69C2F30740E5
:102DD00070471AB143690B43436102E043698B4377
:102DE0004361704710B50246002011F4700F08D0FF
:102DF0009369C1F31304234201D001202DE0002088
:102E00002BE011F0807F08D05368C1F313042342F4
:102E100001D0012021E000201FE011F0006F08D058
:102E20009368C1F31304234201D0012015E0002070
:102E300013E011F0007F08D0D368C1F313042342DC
:102E400001D0012009E0002007E01369C1F3130459
:102E5000234201D0012000E0002010BD0022234BBE
:102E6000994202D10023836111E0C1F3130211F0F2
:102E7000007F01D0C2600AE011F0806F01D00261D2
:102E800005E011F0006F01D0826000E04260704701
:102E9000024600200A4201D0012000E000207047D5
:102EA00070B504460D4600266069284271D0B5F51C
:102EB000807F68D01CDC082D41D006DC012D2CD091
:102EC000022D30D0042D7ED133E0102D3DD0202DA9
:102ED00041D0402D77D144E00300000400030008F6
:102EE00000000310000100080001FFF77000F0303F
:102EF000B5F5004F61D009DCB5F5007F4AD0B5F5D6
:102F0000806F4DD0B5F5006F5DD150E0B5F5803FD5
:102F10002DD0B5F5003F56D12FE0A0685549FFF7F9
:102F2000B7FF064651E0E0680321FFF7B1FF064610
:102F30004BE0E0680821FFF7ABFF064645E0E0689C
:102F40001021FFF7A5FF06463FE020690321FFF7A8
:102F50009FFF064639E020690821FFF799FF0646E2
:102F600033E020691021FFF793FF06462DE06068EB
:102F70000821FFF78DFF064627E060681021FFF764
:102F800087FF064621E0A0690121FFF781FF064681
:102F90001BE01BE0A0690221FFF77AFF064614E060
:102FA000A0690421FFF774FF06460EE00BE0A0695C
:102FB0007021FFF76DFF064607E060680421FFF708
:102FC00067FF064601E0002600BF00E0002630460D
:102FD00070BDB1F5007F3AD00FDC202928D006DC87
:102FE00001291CD004291DD0082940D11DE0402909
:102FF00021D0B1F5807F3AD126E0B1F5004F31D034
:1030000006DCB1F5806F25D0B1F5006F2FD124E03B
:10301000B1F5803F12D0B1F5003F28D111E0154A3B
:10302000826025E00822C26022E01022C2601FE018
:10303000082202611CE01022026119E008224260AD
:1030400016E01022426013E00422426010E00422E5
:1030500042600DE0042242600AE000228261042204
:10306000426005E0002282610422426000E000BF6D
:1030700000BF704701010100094880470948004727
:10308000FEE7FEE7FEE7FEE7FEE7FEE7FEE7FEE718
:10309000FEE7FEE704480549054A064B7047000075
:1030A00001030008ED0000087802002078080020E5
:1030B000780400207804002008B50420ADF8000052
:1030C00048208DF803006946FF48FDF775FA4FF474
:1030D0000040ADF8000010208DF8030003208DF8AB
:1030E00002006946F948FDF767FA08BD94B04FF051
:1030F00001084FF000094FF0000A4FF4FA7000F099
:1031000078FE01F057FA00F0B5FE01F0E7FF01F09C
:103110000EFE02F04DFD01F0B3FC01F0C5FC4FF4D2
:10312000E13001F0B5FA01F049FC02F005F801F0D8
:10313000DCF901F034F801F00FFDE5A1002001F009
:103140006BFDE8A1032001F067FDEBA1052001F074
:1031500063FD02F062FC012001F043FC012001F05C
:103160004DFC032001F0D3FF4FF4FA7000F041FE54
:10317000022001F0CCFF4FF4FA7000F03AFE01207B
:1031800001F0C5FF4FF4FA7000F033FE002001F0AB
:10319000BEFF4FF4FA7000F02CFE002001F021FC7D
:1031A000002001F02BFCCAA1002001F035FDD7A1C1
:1031B000022001F031FDDAA1042001F02DFDDDA196
:1031C000062001F029FD0024FFF776FFC0E3ECBBE9
:1031D0000122D103BD48FDF79EFA642000F009FEEC
:1031E00000224FF40041B948FDF795FA01F022FCA6
:1031F000834601F0F6FB01F02FFC834601F0FEFB55
:1032000003A801F02DFD9DF80C0020B12D223821DE
:10321000062001F0B6FC9DF80D000A2190FBF1F0AC
:1032200030301FFA80FB5A464021062001F0A9FCED
:103230009DF80D000A2190FBF1F201FB12003030E5
:103240001FFA80FB5A464821062000E011E201F0F7
:1032500098FC2E225021062001F093FC9DF80E00D0
:103260000A2190FBF1F030301FFA80FB5A465821BA
:10327000062001F086FC9DF80E000A2190FBF1F279
:1032800001FB120030301FFA80FB5A4660210620F5
:1032900001F077FC43226821062001F072FCAA4865
:1032A00000884FF47A7190FBF1F030301FFA80FB08
:1032B0005A461821022001F064FCA34800884FF40C
:1032C0007A7190FBF1F201FB1200642190FBF1F0A6
:1032D00030301FFA80FB5A462021022001F051FCB9
:1032E00099480088642190FBF1F201FB12000A2149
:1032F00090FBF1F030301FFA80FB5A462821022063
:1033000001F03FFC904800880A2190FBF1F201FB9C
:10331000120030301FFA80FB5A463021022001F0A3
:1033200030FC894840884FF47A7190FBF1F03030DE
:103330001FFA80FB5A466021022001F022FC8248DD
:1033400040884FF47A7190FBF1F201FB1200642186
:1033500090FBF1F030301FFA80FB5A4668210220C2
:1033600001F00FFC78484088642190FBF1F201FBEA
:1033700012000A2190FBF1F030301FFA80FB5A4610
:103380007021022001F0FDFB6F4840880A2190FB6C
:10339000F1F201FB120030301FFA80FB5A4678210F
:1033A000022001F0EEFB684880884FF47A7190FBB0
:1033B000F1F030301FFA80FB5A461821042001F04A
:1033C000E0FB614880884FF47A7190FBF1F201FBD9
:1033D0001200642190FBF1F030301FFA80FB5A4656
:1033E0002021042001F0CDFB57488088642190FB08
:1033F000F1F201FB12000A2190FBF1F030301FFACC
:1034000080FB5A462821042001F0BBFB4E488088EF
:103410000A2190FBF1F201FB120030301FFA80FB11
:103420005A463021042001F0ACFB4748C0884FF4D5
:103430007A7190FBF1F030301FFA80FB5A46602120
:10344000042001F09EFB4048C0884FF47A7190FB45
:10345000F1F201FB1200642190FBF1F030301FFA11
:1034600080FB5A466821042001F08BFB3648C08857
:10347000642190FBF1F201FB12000A2190FBF1F0B4
:1034800030301FFA80FB5A467021042001F079FB8E
:103490002D48C0880A2190FBF1F201FB1200303068
:1034A0001FFA80FB5A467821042001F06AFB00F0E5
:1034B000D2FD40B9254800780A2190FBF1F000F0D8
:1034C000FF0B594644E0AAE0000C0140000801400F
:1034D000202020596F756E6754616C6B202020206E
:1034E000000000002020414C4C20544553542050F3
:1034F000312020200000000020202020202020203B
:1035000020202020202020200000000041343A30DC
:10351000303030202041353A30303030000000006B
:1035200041363A30303030202041373A3030303078
:1035300000000000202054656D703A2020202020DB
:103540002020202000000000320000202D0000205C
:10355000002002F066FBFF4800780A2190FBF1F2A0
:1035600001FB12000A3000F0FF0B5946012002F067
:1035700058FBF94800780A2190FBF1F000F0FF0BAE
:103580005946022002F04DFBF34800780A2190FBD7
:10359000F1F201FB12000A3000F0FF0B5946032044
:1035A00002F03FFBED4800780A2190FBF1F000F0BB
:1035B000FF0B5946042002F034FBE84800780A214A
:1035C00090FBF1F201FB12000A3000F0FF0B5946AC
:1035D000052002F026FBE24800780A2190FBF1F07A
:1035E00000F0FF0B5946062002F01BFBDC48007878
:1035F0000A2190FBF1F201FB120000F0FF0B59468B
:10360000072002F00EFB404602F0FEFA4FEA486047
:103610004FEA1068B8F1000F01D14FF00108042102
:10362000D048FDF75AF820B959220021084601F088
:10363000A8FA01F08DFD012804D14122002108469D
:1036400001F09FFA01F084FD022804D142220021FA
:10365000084601F096FA01F07BFD042804D14322CC
:103660000021084601F08DFA01F072FD082800D112
:103670000224022C15D101F0A5FD01F015FAAFF2DC
:10368000B011002001F0C8FAB7A1022001F0C4FA7D
:10369000BAA1042001F0C0FABDA1062001F0BCFAD5
:1036A0000324032C70D10121BE48FDF716F870B138
:1036B0000221BC48FDF711F848B10421B948FDF7D3
:1036C0000CF820B10821B748FDF707F8F0BB14202B
:1036D00000F08FFB0121B348FCF7FFFF68B902F04F
:1036E000B2F9B1A1062001F097FA4FF4FA7000F098
:1036F00080FBB2A1062001F08FFA0221A948FCF755
:10370000ECFF68B902F0A4F9B1A1062001F084FA37
:103710004FF4FA7000F06DFBA8A1062001F07CFACE
:1037200000BF01219F48FCF7D8FF0028F9D00221F3
:103730009C48FCF7D2FF0028F3D004219948FCF7FD
:10374000CCFF0028EDD00821964800E003E0FCF70C
:10375000C4FF0028E5D001F04BFD0746012F01D141
:1037600002F07BF9022F01D102F07CF9032F17D16F
:10377000B9F1000F09D14FF0010902F05AF98FA1F8
:10378000062001F049FA0BE024E0B9F1010F07D15E
:103790004FF0000902F052F992A1062001F03CFA24
:1037A00095480088012809D14FF0000993A106200F
:1037B00001F032FA00209049088006E08E48008827
:1037C000022802D100208C49088001F0C1FC0828A1
:1037D00000D10424042C13D101F066F9AFF21031AA
:1037E000002001F019FA8AA1022001F015FA8DA13A
:1037F000042001F011FA90A1062001F00DFA052431
:10380000052C07D1022001F041FB01F0A1FC0128A9
:1038100000D10624062C23D101F046F9AFF2503135
:10382000002001F0F9F989A1022001F0F5F98CA13D
:10383000042001F0F1F956A1062001F0EDF9002075
:103840006D49088002F032FA4FF4E13000F0D4FF05
:1038500060036949088002F013FB07240126012553
:10386000072C73D101214F48FCF737FFA8B929462F
:1038700080A002F01AFB681CC5B2012001F0B1F86B
:10388000642000F0B6FA002001F0ABF800BF01217F
:103890004448FCF722FF0028F9D002214148FCF7F8
:1038A0001CFFB8B98DF80460012101A802F05DFA8F
:1038B000701CC6B2012001F094F8642000F099FA5F
:1038C000002001F08EF800BF02213648FCF705FF0A
:1038D0000028F9D001A802F07CFA8246BAF1000F64
:1038E0001BD09DF804000A2190FBF1F030301FFA44
:1038F00080FB5A464821042001F043F99DF804005A
:103900000A2190FBF1F201FB120030301FFA80FB1C
:103910005A465021042001F034F937480088B0B1EC
:10392000354800880A2190FBF1F030301FFA80FB07
:103930005A466821022001F024F92F4800880A2104
:1039400090FBF1F201FB1200303095E0A3E09DE026
:103950008DE100002D0000202E0000202F0000200F
:1039600030000020000C014020544553543A20659B
:103970006E636F6465722020000000002020204DDF
:10398000503320504C4159202020202000000000BE
:1039900020202020443A4E4558542020202020202A
:1039A000000000000008014020202D2D205052452D
:1039B00056202D2D202020200000000020202D2D1D
:1039C00020504C4159202D2D2020202000000000A7
:1039D00020202D2D204E455854202D2D20202020F4
:1039E0000000000020202D2D205041555345202D52
:1039F0002D202020000000003E00002020202D2D42
:103A00002053544F50202D2D202020200000000056
:103A10002020202020544553543A202020202020CC
:103A200000000000202020737465705F6D6F746F5C
:103A3000722020200000000020202020413A4E4526
:103A4000585420202020202000000000413A5253EA
:103A50003233322F3438352020202020000000005F
:103A6000423A43414E2020202020202020202020A8
:103A700000000000257800001FFA80FB5A467021E4
:103A8000022001F07EF800207A49088001F060FBF6
:103A9000082800D10824082C7DD101F005F8AFF2E8
:103AA000D051002001F0B8F8AFF2B451022001F07B
:103AB000B3F871A1042001F0AFF874A1062001F061
:103AC000ABF800F00BFF76A002F040FA642000F0A3
:103AD00090F901F052FC0646314673A002F036FA26
:103AE00074A002F033FA02E0642000F082F901F0E1
:103AF000CBFD1428F8D1C82000F07BF9002517E091
:103B0000322000F076F96EA002F020FA01F0C6FD36
:103B10000646142E00D10DE0822E00D10AE001F0FD
:103B200093FD032802DB052D00DB03E0681CC5B212
:103B3000642DE5DB00BF822E02D164A002F006FAFC
:103B400001F082FD032802DA64A002F0FFF9684860
:103B500001F044FC0546242D06D100206449485557
:103B6000083164A002F0F2F966A002F0EFF96048B3
:103B700001F0F2FE0646314665A002F0E7F95C4826
:103B8000006840F2A171B0FBF1FB594663A002F05E
:103B9000DDF967A000E04FE002F0D8F968A104A8C1
:103BA00002F088FB04A801F0FEFD0646314658A04D
:103BB00002F0CCF966A002F0C9F968A14C4802F005
:103BC00079FB4B4802F09AFB1FFA80FB0022594612
:103BD000474801F07DFE0646314662A002F0B6F984
:103BE00063A002F0B3F9012001F01CFE0646314645
:103BF00047A002F0ABF961A002F0A8F902E064204E
:103C000000F0F7F801F040FD1428F8D000F04CFF68
:103C1000AFF24471002000F0FFFFAFF224710220E8
:103C200000F0FAFF58A1042000F0F6FFAFF238715F
:103C3000062000F0F1FF0924092C18D1AFF27071B1
:103C4000002000F0E9FFAFF23821022000F0E4FF8D
:103C500052A1042000F0E0FFAFF26471062000F0F2
:103C6000DBFF00F021FF00F01FFF00F01DFFFFF75A
:103C7000AEBA00003E000020202055204449534B9E
:103C800020544553542020200000000020202020F4
:103C900050555420494E21212020202000000000B2
:103CA00053746172740D0A00693D25303278200D1D
:103CB0000A00000057616974204469736B0D0A00A3
:103CC0005265616479203F0D0A0000004465766901
:103CD000636520676F6E650D0A000000556E6B6EA0
:103CE0006F776E206465766963650D0A00000000D9
:103CF00048000020556469736B496E666F3A202551
:103D0000730D0A004469736B51756572793A20002E
:103D1000733D25303278200D0A000000667265651B
:103D200020636170203D20256C64204D420A000014
:103D30004372656174652066696C65203A00000015
:103D40005C596F756E6754616C6B2E54585400004B
:103D5000577269746520A3BA0000000020204F4B01
:103D600020200000733D25303278200A000000003A
:103D7000636C6F73652066696C65200054616B65C8
:103D8000206F75740A0000002020205520444953FC
:103D90004B204F4B212020200000000020205245C6
:103DA00053455420427574746F6E2020000000004B
:103DB000704700BFFEE700BFFEE700BFFEE700BFA1
:103DC000FEE7704770477047704700EBC001C900BD
:103DD0004FF0E02251610521116100BF4FF0E02159
:103DE000096911F4803FF9D004214FF0E0221161FC
:103DF000704700B5034603E04FF47A70FFF7E5FF24
:103E00001800A3F101018BB2F6D100BD10B5044634
:103E100003E04FF47A70FFF7ECFF2000A4F10101FA
:103E20008CB2F6D110BD000010B501214FF0C0508A
:103E3000FCF782FE0120FDF750F9FDF7E1F80120C3
:103E4000FCF7DEFD00BF4120FCF745FD0028FAD05D
:103E50004FF48070FCF7EDFD0120FCF7F0FDFDF75D
:103E600008FAFDF7FFF947F6FF70FDF7D3F9FDF704
:103E7000F9F910BD10B50420FDF7F5F8A0F52541BE
:103E8000A53907D0FFF7D0FF4AF2A5510420FDF76E
:103E9000E4F80DE07B20FCF71EFD10B97A20FCF75A
:103EA0001AFDFCF779FE0120FCF7C9FDFDF7E1F9E9
:103EB00001214FF0C050FCF73FFE0120FDF70DF946
:103EC0000020FDF7A8F88020FDF7ABF810BD10B575
:103ED0000120FDF7F3F90120FDF701FAFDF7C2F922
:103EE00010BD10B50220FDF7E9F90220FDF7F7F942
:103EF000FDF7B8F910BD0146CA1701EB9272921096
:103F0000B1EB820212D1642091FBF0F200FB12109F
:103F100050B94FF4C87091FBF0F200FB121008B9D1
:103F2000012070470020FCE70120FAE70020F8E7B5
:103F30002DE9F05F06460F4690469946DDE90AAB4B
:103F40000024B6F5FA6F03DB40F63300864202DD4B
:103F50000120BDE8F09F40F2B2750AE02846FFF765
:103F6000CAFF10B17948044401E079480444681C50
:103F700085B2B542F2DB781EC7B2002510E0754865
:103F8000405D40F2A321484304EBC0143046FFF7E4
:103F9000B2FF18B1012D01D16F480444681C85B2ED
:103FA000BD42ECDBA8F1010040F2A321484304EB41
:103FB000C014C9EB4910C0EB092004EB0014CAEB94
:103FC0000A1004EB80045C44FFF72EFF4AF2A5516F
:103FD0000420FDF742F82046FDF70FF9FDF742F9FE
:103FE0000020B6E7F0B503460C461546642093FB67
:103FF000F0F0C6B2642093FBF0F700FB1730C1B2BB
:10400000132E02DD01F16400C1B20846CF1701EBA7
:10401000977701EBA702072092FBF0F700FB172030
:1040200082B25719601EDFF834C11CF80000384412
:1040300082B2CF1701EB9777BF10B1EB870703D19F
:10404000032C01DA501E82B2072092FBF0F700FB2E
:104050001720C0B2F0BD70B5002600240025FDF782
:10406000C3F806463C48B6FBF0F43D480088A04241
:104070003DD03B490C8040F2B27510E02846FFF776
:104080003AFF40B1B4F5B77F02D3A4F5B77404E0AA
:10409000681C85B206E0A4F26D14681C85B2B4F504
:1040A000B67FEBD800BF2F480580002516E02D48CD
:1040B0000088FFF720FF30B1012D04D11D2C01D362
:1040C0001D3C09E00CE02348405DA04203D8214894
:1040D000405D241A00E003E0681C85B21C2CE6D287
:1040E00000BF681C20490870601C204908701A48ED
:1040F000B6FBF0F100FB11644FF46160B4FBF0F02B
:104100001B4908704FF46160B4FBF0F100FB1140F3
:104110003C21B0FBF1F0174908704FF46160B4FB2B
:10412000F0F100FB11403C21B0FBF1F201FB120069
:10413000114908700D4802780B4801780948008839
:10414000FFF750FF0D490870002070BD0085E201A7
:104150008033E101927600088051010086760008E4
:10416000280000202A0000202C0000202D00002024
:104170002E0000202F000020300000203100002001
:1041800008B5C020ADF800001C208DF80300032006
:104190008DF802006946B348FCF70EFA08BD1FB55A
:1041A00001214805FCF7C8FCFFF7EAFF0020ADF845
:1041B00004004BF6FF70ADF80600C020ADF8080013
:1041C0004FF48060ADF80A000001ADF80C00A6487D
:1041D00000906946A548FDF79AFB0121A348FDF729
:1041E00014FC1FBD2DE9F04105460F4614461E463E
:1041F00001219E48FDF72DFC00BF9D499B48FDF71E
:1042000007FD0028F9D0002229469848FDF77AFCDE
:1042100000BF98499548FDF7FBFC0028F9D03946C6
:104220009248FDF769FC00BF9249891C8F48FDF751
:10423000EFFC0028F8D00CE021788C48FDF75CFCFE
:10424000641C00BF8B49891C8848FDF7E1FC0028ED
:10425000F8D03000A6F101018EB2EDD101218348E2
:10426000FDF703FCBDE8F08170B504460E46154627
:1042700001217E48FDF7EDFB00BF7D497B48FDF73E
:10428000C7FC0028F9D0002221467848FDF73AFC07
:1042900000BF78497548FDF7BBFC0028F9D03146CE
:1042A0007248FDF729FC00BF7249891C6F48FDF771
:1042B000AFFC0028F8D029466C48FDF71DFC00BF74
:1042C0006C49891C6948FDF7A3FC0028F8D001213E
:1042D0006648FDF7CAFB70BD2DE9F04106460F4662
:1042E00015461C4600BF4FF400316048FDF7B2FC94
:1042F0000028F8D101215D48FDF7ABFB00BF5C4908
:104300005A48FDF785FC0028F9D00022314657486D
:10431000FDF7F8FB00BF57495448FDF779FC00282A
:10432000F9D001215148FDF770FB39464F48FDF7A0
:10433000E3FB00BF4F49891C4C48FDF769FC00288E
:10434000F8D001214948FDF784FB00BF48494748A0
:10435000FDF75EFC0028F9D0012231464348FDF705
:10436000D1FB00BF4249491C4048FDF751FC0028E1
:10437000F8D016E0012C07D100213C48FDF781FB65
:1043800001213A48FDF771FB39493F313748FDF7C4
:104390003FFC30B13548FDF7B1FB28706D1C601E45
:1043A00084B2002CE6D101213048FDF76AFBBDE85C
:1043B000F08170B504460D4600BF4FF400312B4824
:1043C000FDF748FC0028F8D101212848FDF741FB02
:1043D00000BF27492548FDF71BFC0028F9D0002223
:1043E00021462248FDF78EFB00BF22491F48FDF7FA
:1043F0000FFC0028F9D001211C48FDF706FB2946D7
:104400001A48FDF779FB00BF1A49891C1748FDF7C8
:10441000FFFB0028F8D001211448FDF71AFB00BF6C
:1044200013491248FDF7F4FB0028F9D00122214678
:104430000E48FDF767FB00BF0D49491C0B48FDF70F
:10444000E7FB0028F8D000210848FDF71AFB0121FE
:104450000648FDF70AFB0548FDF750FB06463046C7
:1044600070BD0000000C0140A08601000054004017
:10447000010003008200070000B58BB04948FDF73A
:1044800045FE4948009049480190002002900420D0
:10449000039000200490802005904000069080004A
:1044A0000790202008900002099000200A90694699
:1044B0003C48FDF7CBFE01213A48FDF7F2FE0BB078
:1044C00000BD08B5F020ADF8000000208DF8030015
:1044D00069463748FCF770F801210846FCF712FBE3
:1044E00001214802FCF71BFB08BD00B585B0FFF7B2
:1044F000E8FFFFF7C1FF0020009001208DF80400C5
:104500008DF805004FF460200290002003900420F5
:104510008DF81000694624484C38FDF7FEFB032354
:104520000122042120484C38FDF78FFC032302228E
:1045300005211D484C38FDF788FC03231A46062147
:1045400019484C38FDF781FC032304220721164843
:104550004C38FDF77AFC012113484C38FDF714FC68
:10456000012111484C38FDF704FC0F484C38FDF789
:1045700022FC00BF0C484C38FDF722FC0028F9D182
:1045800009484C38FDF726FC00BF07484C38FDF7BA
:1045900026FC0028F9D1012103484C38FDF729FCFD
:1045A00005B000BD080002404C240140320000204C
:1045B0000008014010B5FCF74BF94FF48030FCF7D0
:1045C00067F9FCF7A4F90446012C24D14FF4E0115B
:1045D0000004FCF7C1F90020FCF7DBF9A002FCF7AE
:1045E000E1F90020FCF7E7F90220FCF793FE102028
:1045F000FCF7A4FE0120FCF7BBF900BF3920FCF753
:104600006AF90028FAD00220FCF7B5F900BFFCF7E0
:10461000BBF90828FBD101217C20FCF780FA01219D
:104620000846FCF77CFA10BD014600BF704700BF8A
:10463000A14A128812F0400FFAD0C2B29F4B1A80E2
:1046400070470FB410B5B4B0002437A80090C9214A
:1046500001A8009B369A01F05FFC0EE02046621C28
:10466000D4B201AA115C9448FCF703FC00BF4021BE
:104670009148FCF76CFC0028F9D0C82C04DA01A89A
:1046800001F03CFEA042E9D834B010BC5DF814FB48
:1046900010B586B00446012144F20400FCF73FFA4D
:1046A0004FF40070ADF8140003208DF816001820A8
:1046B0008DF8170005A98248FBF77EFF4FF4806054
:1046C000ADF8140004208DF8170005A97C48FBF70D
:1046D00073FF25208DF8000003208DF801008DF870
:1046E000020001208DF803006846FBF78EFE01945E
:1046F0000020ADF80800ADF80A00ADF80C00ADF8E8
:1047000010000C20ADF80E0001A96B48FCF7B5FABB
:10471000012240F225516848FCF747FB0121664819
:10472000FCF737FB06B010BD10B540F225516248CA
:10473000FCF723FC30B36048FCF79FFBC4B2214672
:1047400060A001F003FC6048008810F4004F2BD1FA
:104750005D48008810F4804F0CD00A2C03D0002054
:104760005949088020E05848008840F400405649E4
:10477000088019E00D2C06D15348008840F4804091
:104780005149088010E050480088C0F30D004F499F
:104790000C544D480088401C4B490880084600884E
:1047A000C72801DD0020088010BD0FB410B5B4B0DB
:1047B000002437A80090C92101A8009B369A01F077
:1047C000ABFB0EE02046621CD4B201AA115C40484B
:1047D000FCF74FFB00BF40213D48FCF7B8FB002829
:1047E000F9D0C82C04DA01A801F088FDA042E9D86C
:1047F00034B010BC5DF814FB10B586B0044601213E
:104800000820FCF78CF901218804FCF795F94FF496
:104810000060ADF8140004208DF8170005A92D489C
:10482000FBF7CAFE4FF48060ADF8140003208DF84A
:10483000160018208DF8170005A92648FBF7BCFEC6
:1048400001940020ADF80800ADF80A00ADF80C00A6
:10485000ADF810000C20ADF80E0001A91C48FCF7C3
:104860000CFA012240F225511948FCF79EFA012169
:104870001748FCF78EFA4FF4E060FBF7C1FD2720E4
:104880008DF8000000208DF8020001208DF8030053
:104890006846FBF7BAFD06B010BD10B540F22551D1
:1048A0000B48FCF76AFB28B10948FCF7E6FAC4B2EA
:1048B0000948048010BD0000003801400438014060
:1048C00000080140256300003C0000208800002013
:1048D00000480040000C01403E00002000B587B0B9
:1048E00001218803FCF728F94FF48040ADF804005B
:1048F00004208DF8070001A92E48FBF75DFE4FF458
:104900002040ADF8040003208DF8060018208DF833
:10491000070001A92748FBF74FFE4FF48050ADF880
:10492000040003208DF8060010208DF8070001A96F
:104930002048FBF741FE0020ADF808004FF48270DC
:10494000ADF80A000020ADF80C000220ADF80E0012
:104950000120ADF810004002ADF812003820ADF88B
:1049600014000020ADF816000720ADF8180002A9C9
:104970001148FDF715FD01210F48FDF7B4FD07B003
:1049800000BD10B5044600BF02210B48FDF734FE00
:104990000028F9D021460848FDF7DBFD00BF0121C2
:1049A0000548FDF729FE0028F9D00348FDF7D3FD9F
:1049B000C0B210BD000C01400038004008B5032013
:1049C000ADF8000010208DF8030003208DF80200E0
:1049D00069461148FBF7F0FD03210F48FBF799FEEC
:1049E00008BD10B5044624B101210B48FBF78FFE2A
:1049F00003E001210848FBF78CFE10BD10B504460A
:104A000024B102210448FBF782FE03E002210248A0
:104A1000FBF77FFE10BD0000000C014008B503202D
:104A2000ADF8000048208DF8030069461348FBF7F5
:104A3000C3FD08BD10B501211048FBF74EFE48B973
:104A40001420FFF7D6F901210C48FBF746FE08B900
:104A5000012010BD0020FCE710B502210748FBF73C
:104A60003CFE48B91420FFF7C4F902210348FBF7C4
:104A700034FE08B9012010BD0020FCE70008014009
:104A800008B52020ADF8000010208DF803000320A9
:104A90008DF8020069461148FBF78EFD01222021A6
:104AA0000E48FBF738FE08BD10B5002413E00022C5
:104AB00020210A48FBF72FFE4FF4FA70FFF785F923
:104AC000012220210548FBF726FE4FF4FA70FFF77C
:104AD0007CF9601C84B2C82CE9DB10BD000C0140DD
:104AE00000B587B01C2255A1684601F026FC1C23A6
:104AF0006A4600217820FFF775FB07B000BD70B54E
:104B0000B0241BE0224600217820FFF7ADFB1022E5
:104B100000217820FFF7A8FB002211467820FFF73C
:104B2000A3FB002506E0002240217820FFF79CFB34
:104B3000681CC5B2842DF6DB601CC4B2B82CE1DB66
:104B400070BD08B544A00068009003236A460021A8
:104B50007820FFF747FB08BD10B5FFF7F2FFFFF71E
:104B6000CEFFFFF7BDFF10BD10B504468122002126
:104B70007820FFF779FB224600217820FFF774FBAD
:104B800010BD2DE9F04705460C4616464FF0000AC9
:104B9000A01CC4B2D1463AE005F1B000C2B2002177
:104BA0007820FFF761FB2746E01704EB1070001137
:104BB00000F1100200217820FFF756FBE01704EB0C
:104BC00010700011A4EB0010C2B200217820FFF792
:104BD0004BFB4FF0000811E00AEB0610A0F5007047
:104BE0001E490A5C40217820FFF73EFB0AF10100D4
:104BF00000F0FF0A08F1010000F0FF08B8F1080F0B
:104C0000EADB681CC5B209F1010000F0FF09B9F147
:104C1000020FC1DBBDE8F08770B506460C460025E3
:104C200008E014F8012BE806010E3046FFF7A9FF53
:104C3000681CC5B220780028F3D170BDAE0010D535
:104C400080A83FD300B0408D14A1C8DA1281FFD9EB
:104C5000F1DB302000A4A6AFAE8D10009E760008D8
:104C6000F8B506460024002502236A4600219E204E
:104C7000FFF732FB9DF800400020307014F0800FE9
:104C800005D001203070E043C4B2601CC4B214F0FF
:104C9000010F01D0681CC5B214F0020F01D0A81C8E
:104CA000C5B214F0040F01D0281DC5B214F0080FCE
:104CB00002D005F10800C5B214F0100F02D005F1C2
:104CC0001000C5B214F0200F02D005F12000C5B2CB
:104CD00014F0400F02D005F14000C5B2761C3570CB
:104CE00000259DF8014014F0200F02D005F10C00C2
:104CF000C5B214F0400F02D005F11900C5B214F08E
:104D0000800F02D005F13200C5B2761C3570F8BDB7
:104D100010B5012211469E20FFF7A6FA10BD000033
:104D200010B54FF44671EC48FBF7F3FC10BD08B525
:104D30004FF44670ADF8000010208DF803000320FA
:104D40008DF802006946E448FBF736FCFFF7E8FF00
:104D500008BD10B504464FF48471DF48FBF7D9FC59
:104D60004FF40471DC48FBF7D2FC2046FFF741F812
:104D70004FF44671D848FBF7CCFC2046FFF739F8D2
:104D80004FF40471D448FBF7C4FC4FF48471D2484B
:104D9000FBF7BDFC2046FFF72CF84FF44671CE48D8
:104DA000FBF7B7FC2046FFF724F8FFF7B9FF10BD6B
:104DB00010B504464FF44071C748FBF7AAFC182110
:104DC000C548FBF7A4FC2046FFF713F84FF4027127
:104DD000C148FBF79EFC4FF48871BF48FBF797FC76
:104DE0002046FFF706F81821BB48FBF792FC4FF46A
:104DF0004071B948FBF78BFC2046FEF7FAFF4FF4F1
:104E00008871B548FBF785FC4FF40271B248FBF797
:104E10007EFC2046FEF7EDFFFFF782FF10BD10B5C8
:104E200004461821AC48FBF774FC4FF44071AA48C3
:104E3000FBF76DFC2046FEF7DCFF4FF40271A6483D
:104E4000FBF767FC4FF48871A348FBF760FC204632
:104E5000FEF7CFFF4FF440719F48FBF75AFC182133
:104E60009D48FBF754FC2046FEF7C3FF4FF48871C2
:104E70009948FBF74EFC4FF402719748FBF747FC4B
:104E80002046FEF7B6FFFFF74BFF10BD10B50446F6
:104E90004FF444719048FBF73CFC08218E48FBF727
:104EA00036FC2046FEF7A5FF4FF440718A48FBF719
:104EB00030FC18218848FBF72AFC2046FEF799FFB2
:104EC0004FF442718448FBF724FC10218248FBF721
:104ED0001EFC2046FEF78DFF4FF402717E48FBF763
:104EE00018FC4FF488717C48FBF711FC2046FEF754
:104EF00080FF4FF406717848FBF70BFC4FF480718C
:104F00007548FBF704FC2046FEF773FF1821724832
:104F1000FBF7FFFB4FF440716F48FBF7F8FB2046AF
:104F2000FEF767FF4FF48C716B48FBF7F2FB4FF411
:104F300000716948FBF7EBFB2046FEF75AFF4FF480
:104F400088716548FBF7E5FB4FF402716248FBF797
:104F5000DEFB2046FEF74DFFFFF7E2FE10BD10B569
:104F600004464FF48C715C48FBF7D3FB4FF400719F
:104F70005948FBF7CCFB2046FEF73BFF182156486B
:104F8000FBF7C7FB4FF440715348FBF7C0FB2046CB
:104F9000FEF72FFF4FF406714F48FBF7BAFB4FF4B3
:104FA00080714D48FBF7B3FB2046FEF722FF4FF41C
:104FB00002714948FBF7ADFB4FF488714648FBF797
:104FC000A6FB2046FEF715FF4FF442714248FBF75F
:104FD000A0FB10214048FBF79AFB2046FEF709FF93
:104FE0004FF440713C48FBF794FB18213A48FBF71B
:104FF0008EFB2046FEF7FDFE4FF444713648FBF76A
:1050000088FB08213448FBF782FB2046FEF7F1FEBF
:105010004FF488713048FBF77CFB4FF402712E4847
:10502000FBF775FB2046FEF7E4FEFFF779FE10BDA7
:1050300010B5044618212848FBF76BFB4FF440716C
:105040002548FBF764FB2046FEF7D3FE4FF4407182
:105050002148FBF75EFB18211F48FBF758FB204651
:10506000FEF7C7FE4FF402711B48FBF752FB4FF4EB
:1050700088711948FBF74BFB2046FEF7BAFE4FF448
:1050800088711548FBF745FB4FF402711248FBF796
:105090003EFB2046FEF7ADFEFFF742FE10BD10B509
:1050A00004464FF440710C48FBF733FB18210A48C3
:1050B000FBF72DFB2046FEF79CFE18210648FBF768
:1050C00028FB4FF440710448FBF721FB2046FEF714
:1050D00090FEFFF725FE10BD000C014008B54FF40F
:1050E000C040ADF8000010208DF8030003208DF8BB
:1050F000020069460E48FBF75FFA01210D48FBF7F5
:105100002AFB4FF4C0410A48FBF703FB08BD10B56A
:10511000044604F001024FF480410548FBF7FBFA16
:1051200004F002024FF400510148FBF7F4FA10BDFD
:10513000000801400004300008B50F20ADF8000061
:1051400048208DF8030069461D48FBF735FA08BD75
:1051500010B5002401211A48FBF7BFFA70B10221F3
:105160001748FBF7BAFA48B104211548FBF7B5FA1E
:1051700020B108211248FBF7B0FAF0B91420FEF76D
:1051800038FE01210E48FBF7A8FA08B944F00104E3
:1051900002210B48FBF7A1FA08B944F002040421EC
:1051A0000748FBF79AFA08B944F0040408210448B8
:1051B000FBF793FA08B944F00804204610BD00003C
:1051C0000008014008B5C020ADF8000048208DF867
:1051D000030069463348FBF7EFF90420ADF80000FF
:1051E00048208DF8030069462F48FBF7E5F908BD14
:1051F00070B5002540212B48FBF76FFA10B1002055
:105200002A49087040212748FBF767FA80BB2748E6
:10521000007868BB6420FEF7D8FD04212248FBF724
:105220005CFA04460320FEF7E4FD40211D48FBF72D
:1052300054FAE8B90CB9012500E0022500201C4908
:1052400008800AE01A480088401C1949088001209B
:10525000164908701420FEF7B8FD40211148FBF7ED
:105260003CFA28B9124800884EF660218842E9DBF2
:1052700080210C48FBF731FA90B90C48007878B9D6
:105280001420FEF7B6FD80210648FBF726FA38B950
:10529000032500BF80210348FBF71FFA0028F9D03F
:1052A000284670BD00080140000C01404400002069
:1052B0004600002008B54FF48070ADF8000048208B
:1052C0008DF8030069464248FBF776F94FF4004138
:1052D0003F48FBF71CFA4FF480513E48FBF717FAA2
:1052E00008BD10B54FF480513A48FBF710FA10BDD5
:1052F00010B504462046FFF744FB10BD10B500BFB3
:1053000001213548FDF778F90028F9D03248FDF73A
:1053100022F9C0B210BD10B504464FF480512D489B
:10532000FBF7F5F91420FEF750FD4FF480512948A2
:10533000FBF7EFF92046FFF7DBFF2820FEF745FDDE
:1053400010BD10B504462046FFF7D2FF0A20FEF735
:105350003CFD10BD10B50A20FEF737FDFF20FFF71A
:1053600010FB0446204610BD10B54FF4004118480C
:10537000FBF7B3F90446204610BD10B54FF4167084
:10538000FEF737FDFFF796FF0620FFF7C4FF552015
:10539000FFF7D7FFFFF7DEFF0446FFF7A2FFAA2CB7
:1053A00001D0FA2010BD1520FFF7B5FF0620FFF74A
:1053B000C8FF1420FEF709FDFFF7CCFF0446FFF7F6
:1053C00090FF512C01D11420ECE7FA20EAE700000D
:1053D00000080140000C01400038004070B5044650
:1053E0002720FFF798FFFFF7B5FF0646054646B1B1
:1053F00000BFFFF7AFFF2070641C701EC0B2060034
:10540000F7D1FFF76EFF284670BD70B504462D201A
:10541000FFF781FFFFF79EFF0646054646B100BF36
:105420002078FFF78EFF641C701EC0B20600F7D113
:10543000FFF757FF284670BD70B505460C462C2077
:10544000FFF769FF2046FFF77CFF44B100BF2878D3
:10545000FFF777FF6D1C601EC0B20400F7D1FFF7A5
:1054600040FF70BD70B505460E4614462E20FFF76E
:1054700052FF3046FFF765FF2046FFF762FF44B159
:1054800000BF2878FFF75DFF6D1C601EC0B20400EE
:10549000F7D1FFF726FF70BD70B505460C460D200D
:1054A000FFF739FF2846FFF74CFFE0B2FFF749FF4F
:1054B000C4F30720FFF745FFC4F30740FFF741FFA0
:1054C000200EFFF73EFFFFF70CFF70BD2DE9F04106
:1054D000FFF740FF0446FFF73DFF0546FFF73AFFA1
:1054E0000646FFF737FF0746FFF7FBFE44EA0520B5
:1054F00040EA064040EA0760BDE8F08110B5044686
:105500000C20FFF708FF2046FFF71BFFFFF7DEFF29
:1055100010BD70B504460A20FFF7FDFE2046FFF7D8
:1055200010FFFFF717FF0546FFF7DBFE284670BDAB
:1055300010B52220FFF7EFFEFFF70CFF0446FFF740
:10554000D0FE204610BD10B5002406E0FFF70CFF8A
:1055500010B1FFF7EDFF10BD641CFC488442F5D389
:10556000FA20F8E710B504462046FFF7D4FEFFF70F
:10557000B8FEFFF7E8FF10BD2DE9F0410646012017
:10558000FFF7C9FEFFF7E6FE43282BDA2B20FFF7D3
:10559000C0FF102826DA2F20FFF7BDFE0020FFF7FE
:1055A000D0FE3220FFF7DEFF0446142C1AD1CF20A4
:1055B000FFF7AFFF0446ACB14C20FFF79FFF00EBB5
:1055C000042739464C20FFF767FF5020FFF796FF6E
:1055D00000EB042739465020FFF75EFF00217020C2
:1055E000FFF75AFF2F20FFF796FE35782846FFF782
:1055F000A8FE09E0761C35785C2D01D02F2D00D156
:1056000000252846FFF79DFE002DF3D1FFF769FE28
:10561000BDE8F08170B505460C460B20FFF77BFE18
:105620002846FFF78EFE2046FFF78BFEFFF759FE58
:1056300070BD10B500210D20FFF7ECFF10BD10B5B7
:105640006820FFF75BFF10BD10B52B20FFF761FF4F
:1056500010BD70B505460C462846FFF75CFE204697
:10566000FFF76FFEFFF73DFEFFF76DFF70BD10B552
:105670000520FEF7BEFB5A20FFF774FF0446052005
:10568000FEF7B7FB204610BD10B5FFF76DFE08B161
:10569000FFF74EFF3020FFF765FF10BD10B531203A
:1056A000FFF760FF10BD10B504462046FFF764FF0A
:1056B00020785C2802D020782F2803D10021642094
:1056C000FFF7EAFE3220FFF74DFF10BD10B504468C
:1056D00014B12046FFF750FF3420FFF743FF10BD01
:1056E00010B504462046FFF747FF20785C2802D01B
:1056F00020782F2803D100216420FFF7CDFE402021
:10570000FFF730FF10BD0246114600E0491C087843
:105710000028FBD100E0491E08785C2804D00878F6
:105720002F2801D09142F6D1914200D0491C881A0D
:10573000C0B270472DE9F04105460F46002601240E
:1057400029E001E0601CC4B2285D5C2805D0285D1A
:105750002F2802D0285D0028F4D1285D10B1601CEC
:10576000C4B200E00024A819FFF79DFF064684B1EB
:10577000BC420ED0412E0AD0142E02D14320BDE8E7
:10578000F081422E01D1B320F9E73046F7E72646F3
:1057900001E03046F3E7D4E710B50446FF21204688
:1057A000FFF7C8FF10BD70B506463046FFF7ABFFE8
:1057B000054685B129463046FFF7BCFF0446412C1B
:1057C00009D0142C01D1432070BD422C01D1B3204B
:1057D000FAE72046F8E77019FFF778FFF4E770B5AD
:1057E0000546DDB1012401E0601CC4B2285D5C28DF
:1057F00005D0285D2F2802D0285D0028F4D1285D2F
:1058000048B12846FFF7C8FF0446142C06D0412CA7
:1058100004D0204670BD2846FFF7AEFE3520FFF7C6
:10582000A1FEF7E710B5044621463620FFF711FF29
:1058300010BD10B5FF213720FFF70BFF10BD10B5CD
:105840003820FFF78FFE10BD10B504463920FFF752
:1058500062FDE0B2FFF775FDC4F30720FFF771FDAD
:10586000C4F30740FFF76DFD200EFFF76AFDFFF759
:1058700038FDFFF768FE10BD2DE9F04107460E46E2
:1058800014463A20FFF747FDF0B2FFF75AFD3012F9
:10589000FFF757FDFFF725FD0CB10020208016E033
:1058A000FFF751FE05461D2D0ED13846FFF796FD38
:1058B00005463B20FFF72FFDFFF713FD2F4434B1C2
:1058C00020882844208002E02846BDE8F081E7E7F0
:1058D0002DE9F04107460E4614463C20FFF71BFD1C
:1058E000F0B2FFF72EFD3012FFF72BFDFFF7F9FCAA
:1058F0000CB10020208016E0FFF725FE05461E2D86
:105900000ED13846FFF781FD05463D20FFF703FD28
:10591000FFF7E7FC2F4434B120882844208002E0C0
:105920002846BDE8F081E7E770B504463E20FFF762
:1059300019FE0546142D0BD12720FFF7ECFCFFF7CD
:1059400009FDFFF7C3FD206004E00000404B4C0060
:1059500000202060284670BD2DE9F0470446012054
:10596000FFF7D9FCFFF7F6FC432808DA2B20FFF7F6
:10597000D0FD102803DB03212B20FFF74BFE3F2037
:10598000FFF7F0FD0546142D24D12720FFF7C3FCB7
:10599000FFF7E0FCFFF7DEFCFFF7DCFCFFF7DAFCCB
:1059A000FFF7D8FCFFF7D6FC0646FFF7D3FC074607
:1059B000FFF7D0FC8046FFF7CDFC814646EA072082
:1059C00040EA084040EA09602060FFF7C3FCFFF7A7
:1059D00088FC01E0002020602846BDE8F08710B573
:1059E00004464A20FFF797FCE0B2FFF7AAFCC4F395
:1059F0000720FFF7A6FCC4F30740FFF7A2FC002036
:105A0000FFF79FFCFFF76DFCFFF79DFD10BD000049
:105A100010B517A0FEF7C9FE10BD10B54FF4165013
:105A2000FEF7EAFE4FF4404013490880FFF7F0FF0D
:105A300010BD10B511A0FEF7B8FE10BD10B511A035
:105A4000FEF7B3FE10BD10B510A0FEF7AEFE10BD00
:105A500010B510A0FEF7A9FE10BD10B50FA0FEF7FF
:105A6000A4FE10BD10B50FA0FEF79FFE10BD0000F4
:105A70007E031E1DEF0000003E0000207E03111279
:105A8000EF0000007E031211EF0000007E031417E8
:105A9000EF0000007E031310EF0000007E031516D8
:105AA000EF0000007E031615EF00000010B5012284
:105AB00011037748FAF72FFE0122D1027448FAF752
:105AC0002AFE0120FEF781F900224FF48051704830
:105AD000FAF721FE0120FEF778F900224FF4006169
