:020000040800F2
:1000000030080020CD1C00089D2000089F2000081B
:10001000A3200008A7200008AB2000080000000073
:10002000000000000000000000000000AF200008F9
:10003000B120000800000000B3200008B52000082F
:10004000E71C0008E71C0008E71C0008DB27000885
:10005000E71C0008E71C0008E71C0008E71C000874
:10006000E71C0008E71C0008E71C0008E71C000864
:10007000E71C0008E71C0008E71C0008E71C000854
:10008000E71C0008E71C0008E71C0008E71C000844
:10009000E71C0008E71C0008E71C0008E71C000834
:1000A000E71C0008E71C0008E71C0008E71C000824
:1000B000E71C0008E71C0008E71C0008E71C000814
:1000C000E71C0008E71C0008E71C0008E71C000804
:1000D000E71C000889220008E71C0008FD2300082F
:1000E000E71C0008EF270008E71C000800F002F8F2
:1000F00000F092F80AA090E8000C82448344AAF130
:100100000107DA4501D100F087F8AFF2090EBAE82D
:100110000F0013F0010F18BFFB1A43F0010318473B
:100120006452000084520000103A24BF78C878C19D
:10013000FAD8520724BF30C830C144BF04680C60ED
:10014000704700000023002400250026103A28BF35
:1001500078C1FBD8520728BF30C148BF0B60704739
:100160006E2903F0AB81702903F02483662904F023
:100170005083652904F04D83672904F04A8361297F
:10018000AFF3008003681B0A28BF41F08001692992
:1001900003F05A81642903F05781752903F05481D3
:1001A0006F2903F0AF82782903F0F082E92903F088
:1001B0004782E42903F04482F52903F04182EF29C4
:1001C00003F0AC82F82903F0EF820368DB0928BF53
:1001D00041F08001632903F0B681732903F0BB81EC
:1001E000E32903F0A385F32903F0A88500207047D5
:1001F0001FB504F007FB03F0FFFD04000020002101
:1002000004F0EAFA401C60600020002104F0CEFAFD
:10021000E0601FBD10B510BD03F0C0FD1146FFF733
:10022000E7FF01F073FD03F0A1FE03B4FFF7F2FF57
:1002300003BC01F0A9FF000000210020674A1268FA
:1002400042F48032654B1A6000BF644A126802F4BF
:100250000030491C10B9B1F5A06FF6D15F4A1268A1
:1002600012F4003F01D0012000E00020012842D11B
:100270005B4A126842F01002594B1A601A46126823
:1002800022F003021A601A46126842F002021A6053
:10029000524A5268514B5A601A4652685A601A467E
:1002A000526842F480625A601A46526822F47C1204
:1002B0005A601A46526842F4E8125A601A461268A6
:1002C00042F080721A6000BF444A126812F0007F48
:1002D000FAD0424A526822F00302404B5A601A4652
:1002E000526842F002025A6000BF3C4A526802F073
:1002F0000C02082AF9D1704710B5FFF79DFF10BD19
:1003000010B53648006840F00100344908600846DE
:10031000406834490840314948600846006832491D
:1003200008402E4908600846006820F480200860D4
:100330000846406820F4FE0048604FF41F008860C3
:10034000FFF7DAFF4FF000602849086010BD10B5D4
:10035000002100200022214B5B6803F00C0121B139
:10036000042906D0082928D107E0214B214C23601D
:1003700027E01F4B1F4C236023E0184B5B6803F4FE
:100380007010164B5B6803F48032022303EB90403D
:1003900022B9194B4343174C23600DE00F4B5B68A8
:1003A00013F4003F04D0144B4343124C236003E08A
:1003B0000F4B43430F4C236003E00D4B0D4C236068
:1003C00000BF00BF054B5B68C3F303130B4CE15C3C
:1003D000084B1B68CB40074C236010BD0010024047
:1003E000002002400000FFF8FFFFF6FE08ED00E0ED
:1003F00000127A000000002000093D0004000020E7
:1004000036490143364A1160704770B50021002318
:100410000F22C4784CB3324C246804F4E064C4F571
:10042000E0644FEA1421C1F1040322FA01F2447896
:1004300004FA03F1847804EA020444EA01014FEA71
:100440000111284C0678A155047804F01F054FF0DF
:10045000010404FA05F405784FEA65154FF0E0262B
:1004600006EB8505C5F8004109E0047804F01F0596
:100470000124AC401C4D0678761145F8264070BD2D
:100480001A4A0A4002431A4B1A60704741B1194A8E
:10049000126842EA00024FF0E023C3F8102D07E093
:1004A000144A126822EA00024FF0E023C3F8102D2C
:1004B0007047042808D14FF0E021096941F0040198
:1004C0004FF0E022116107E04FF0E021096921F0CF
:1004D00004014FF0E0221161704700000000FA05AE
:1004E0000CED00E000E400E080E100E080FFFF1F91
:1004F00008ED00E010ED00E010B50446CA48844263
:1005000008D10121042000F024FB0021042000F088
:1005100020FB46E0C548844208D10121082000F0B4
:1005200018FB0021082000F014FB3AE0C048844288
:1005300008D10121102000F00CFB0021102000F058
:1005400008FB2EE0BB48844208D10121202000F0A6
:1005500000FB0021202000F0FCFA22E0B648844293
:1005600008D10121402000F0F4FA0021402000F0E1
:10057000F0FA16E0B148844208D10121802000F051
:10058000E8FA0021802000F0E4FA0AE0AC48844256
:1005900007D10121801500F0DCFA0021A01500F040
:1005A000D8FA10BD10B50121084600F0D2FA00219A
:1005B000012000F0CEFA10BD2DE9F04102460025E1
:1005C0000026002000230024002791F803C00CF02F
:1005D0000F0591F803C01CF0100F03D091F802C072
:1005E0004CEA0505B1F800C01CF0FF0F31D01468CB
:1005F00000202BE04FF0010C0CFA00F3B1F800C022
:100600000CEA03069E4220D183004FF00F0C0CFA37
:1006100003F7BC4305FA03FC4CEA040491F803C059
:10062000BCF1280F06D14FF0010C0CFA00FCC2F807
:1006300014C00AE091F803C0BCF1480F05D14FF097
:10064000010C0CFA00FCC2F810C0401C0828D1D3E1
:100650001460B1F800C0BCF1FF0F34DD5468002015
:100660002EE000F1080C4FF0010808FA0CF3B1F885
:1006700000C00CEA03069E4221D183004FF00F0C0C
:100680000CFA03F7BC4305FA03FC4CEA040491F8A6
:1006900003C0BCF1280F05D100F1080C08FA0CF8D2
:1006A000C2F8148091F803C0BCF1480F07D100F1E3
:1006B000080C4FF0010808FA0CF8C2F81080401C32
:1006C0000828CED35460BDE8F0814FF6FF71018059
:1006D000022181700421C170704702460020936896
:1006E0000B4201D0012000E00020704701468868DD
:1006F00080B2704702460020D3680B4201D001202F
:1007000000E0002070470146C86880B27047016170
:100710007047416170470AB1016100E04161704773
:10072000C16070474FF480320A4382618161826107
:1007300082698269704702460020424B18684FF672
:100740008073184040EA021008433E4B186070471F
:100750003D49C8617047F0B50A46002300240021D6
:10076000002500F00046B6F1004F02D1354EF16988
:1007700001E0344E7168C0F3034583B200F44016C3
:10078000B6F5401F08D121F070612E4E766826F034
:1007900070662C4F7E6012E000F48016B6F5801F64
:1007A00006D1032606FA05F4A14341F0706106E084
:1007B000460D360103FA06F6B14341F0706122B1ED
:1007C000460D360103FA06F6314300F00046B6F155
:1007D000004F02D11B4EF16101E01A4E7160F0BD75
:1007E00030B500228B071C0F0F2303FA04F2154BC0
:1007F00008338C1053F824309343124C08348D1076
:1008000044F8253023468C1053F824308C07240FED
:1008100000FA04F423430B4C08348D1044F82530BF
:1008200030BD0A490860704700080140000C0140D3
:10083000001001400014014000180140001C01405C
:10084000002001400000014000002042DC00204266
:10085000DB48006840F00100D9490860084640685C
:10086000D8490840D649486008460068D64908403B
:10087000D34908600846006820F4802008600846D4
:10088000406820F4FE0048604FF41F008860704705
:10089000CB49096821F48031C94A116011460968C1
:1008A00021F480211160B0F5803F03D0B0F5802F96
:1008B0000ED106E0C249096841F48031C04A116096
:1008C00007E0BF49096841F4A021BD4A116000E07A
:1008D00000BF00BF704710B5014600220023002072
:1008E0004A11012A02D1B64C236806E0022A02D13D
:1008F000B34C236A01E0B24C636A01F01F02012489
:1009000094401C4201D0012000E0002010BD70B5D1
:1009100000240025002600BF3120FFF7DCFF06463B
:10092000641CB4F5A06F01D0002EF5D03120FFF784
:10093000D2FF08B1012500E00025284670BD014620
:1009400000209F4A106820F0F80040EAC1001060C3
:1009500070479E490860704702460020984B5868CF
:1009600020F47C1042EA01031843954B586070470D
:1009700096490866704701460020914A506820F069
:1009800003000843506070478D48406800F00C0039
:100990007047014600208A4A506820F0F000084362
:1009A0005060704701460020854A506820F4E0609E
:1009B00008435060704701460020814A506820F487
:1009C000605040EAC1005060704729B17C4A527AB9
:1009D00002437B4B5A7206E0794A527AC343DBB238
:1009E0001A40774B5A727047794908607047014640
:1009F0000020734A506820F440400843506070471C
:100A00000021744A11706E4A82F82010012802D029
:100A1000042808D103E001216E4A117004E0052189
:100A20006C4A117000E000BF00BF70476A4908605F
:100A300070476349096A0143614A11627047674917
:100A40000860704730B500210022002400235C4D6F
:100A50006D6805F00C0121B1042905D0082923D1C6
:100A600005E05F4D056022E05D4D05601FE0544DDF
:100A70006D6805F47012524D6D6805F480340225DE
:100A800005EB92421CB9574D554305600BE04C4DA8
:100A90006D6815F4003F03D0524D5543056002E0E8
:100AA0004F4D5543056002E04D4D056000BF00BF4E
:100AB000434D6D6805F0F00109094B4D6B5C05680D
:100AC000DD4045603E4D6D6805F4E061090A464D24
:100AD0006B5C4568DD408560394D6D6805F460519B
:100AE000C90A414D6B5C4568DD40C560344D6D6899
:100AF00005F44041890B3D4D6B5CC568B5FBF3F5D2
:100B0000056130BD29B12E4A526902432C4B5A610E
:100B100004E02B4A52698243294B5A61704729B13C
:100B2000274A92690243264B9A6104E0244A92695B
:100B30008243234B9A61704729B1214AD26902430B
:100B40001F4BDA6104E01E4AD26982431C4BDA6112
:100B5000704729B11A4AD2680243194BDA6004E09F
:100B6000174AD2688243164BDA60704729B1144A9B
:100B700012690243124B1A6104E0114A126982435E
:100B80000F4B1A6170471A49086070470F49C864D3
:100B900070470B49C87170470948406A40F080703F
:100BA00007494862704701460020054A92680A4298
:100BB00001D0012000E00020704701498872704791
:100BC000001002400000FFF8FFFFF6FE0000424266
:100BD000D800424220100240800442423C0442427B
:100BE00000127A0000093D001400002024000020BB
:100BF0004004424210B50446FC48844209D1012118
:100C00008803FFF7A6FF00214FF48040FFF7A1FF04
:100C100032E0F748844209D101214804FFF7A6FFDA
:100C200000214FF40030FFF7A1FF25E0F148844296
:100C300009D101218804FFF799FF00214FF480209A
:100C4000FFF794FF18E0EC48844209D10121C80461
:100C5000FFF78CFF00214FF40020FFF787FF0BE028
:100C6000E648844208D101210805FFF77FFF0021F3
:100C70004FF48010FFF77AFF10BD2DE9F04786B0E2
:100C800005460E460024A24600BFA1460027B089B3
:100C900000B100BF2F462C8A4CF6FF700440F0884C
:100CA00004432C82AC894EF6F3100440B08831899D
:100CB0000843718908430443AC81AC8A4FF6FF4076
:100CC0000440B0890443AC8201A8FFF7BBFEC748CB
:100CD000874202D1DDF810A001E0DDF80CA0A88960
:100CE00010F4004F08D00AEBCA0000EB0A1031687C
:100CF0004900B0FBF1F807E00AEBCA0000EB0A106C
:100D000031688900B0FBF1F86420B8FBF0F0040111
:100D10002009642101FB1089A88910F4004F08D034
:100D2000322000EBC900B0FBF1F000F007000443F3
:100D300008E0322000EB09106421B0FBF1F000F074
:100D40000F0004432C8106B0BDE8F0874FF4165124
:100D5000016000218180C18001810C21418100213D
:100D60008181704710B502460020108A4FF2FF03C0
:100D700018400B884C8823438C882343CC8823431A
:100D80001843108210BD0021018041808180C18004
:100D9000704721B1828942F40052828104E0828945
:100DA0004DF6FF731A4082817047F0B50346002468
:100DB000002600250020A1F510676A3F00D100BF82
:100DC0001846C1F3421401F01F06012707FA06F581
:100DD000012C01D10C3004E0022C01D1103000E0D4
:100DE00014301AB107682F43076002E00768AF4369
:100DF0000760F0BD10B51AB1838A0B43838204E00B
:100E0000838ACC43A4B22340838210BD028A4FF66A
:100E1000F0731A400282028A0A4302827047828972
:100E20004FF2FF731A40828182890A4382817047A0
:100E300021B1828942F00202828104E082894FF668
:100E4000FD731A4082817047028A4FF6DF731A40A1
:100E50000282028A0A430282704721B1028A42F466
:100E60008042028204E0028A4BF6FF731A4002823B
:100E70007047C1F308028280704701468888C0F33A
:100E800008007047818941F0010181817047028B20
:100E9000D2B20283028B42EA012202837047028BA4
:100EA00002F47F420283028B0A430283704721B11E
:100EB000828A42F02002828204E0828A4FF6DF7347
:100EC0001A408282704721B1828A42F010028282E7
:100ED00004E0828A4FF6EF731A408282704721B194
:100EE000828A42F00802828204E0828A4FF6F77317
:100EF0001A408282704721B1828942F40042828185
:100F000003E08289C2F30E028281704721B1828A96
:100F100042F40062828204E0828A4FF2FF731A4038
:100F200082827047828A4FF6FB731A408282828ADD
:100F30000A438282704721B1828A42F00202828291
:100F400004E0828A4FF6FD731A408282704702469F
:100F50000020B1F5007F00D100BF13880B4201D003
:100F6000012000E00020704701F40072B2F5007F1C
:100F700000D100BFCA430280704770B5024600240A
:100F8000002300250020A1F510666A3E00D100BFB5
:100F9000C1F3421501F01F03012606FA03F3012DE8
:100FA00002D19689334006E0022D02D1168A3340E1
:100FB00001E0968A33400C12012606FA04F41688E2
:100FC000344013B10CB1012000E0002070BD10B519
:100FD00000220023A1F510646A3C00D100BF0A1270
:100FE00001249440A3B2DC43048010BD00380140CA
:100FF0000044004000480040004C004000500040C9
:1010000010B50120FFF7BFFD0020FFF7BCFD10BDAC
:1010100024490860704724490860704723490860E4
:10102000704701460020224A10884FF67F4200EAAE
:10103000020040EA01001F4AA2F82C0C704701464A
:1010400000201B4A10884FF6807200EA020040EA36
:101050000100184AA2F82C0C70470022144A2C3ABE
:1010600002441160704701460022114A2C3A0A449A
:101070001088704710480068C0B270470F48008859
:1010800040F001000B49A1F8340C70470C4800688F
:10109000C0B270470948008840F002000549A1F835
:1010A000340C704704860D4200860D4288860D423E
:1010B0002C6C004000600040A0860D42346C004063
:1010C000A4860D4210B501210807FFF74FFD00214E
:1010D0004FF08050FFF74AFD10BD2C490862704761
:1010E0002A490861704701460020294A106820F00B
:1010F000E00008431060704726490860704710B54B
:1011000002460020224B186820F0030010431860AC
:10111000214B1B6843F004034FF0E024C4F8103D5A
:10112000012901D130BF00E020BF1B4B1B6823F019
:1011300004034FF0E024C4F8103D10BD14480068CB
:1011400040F00400124908600846006840F00200C0
:1011500008601148006840F004004FF0E021C1F839
:10116000100D00BF00BF30BF704701460020084A85
:1011700052680A4201D0012000E000207047044973
:10118000096841EA8001024A1160704700000E427E
:1011900000700040A0000E4210ED00E039B1554A49
:1011A000128842EA0002544BA3F8002809E0514A91
:1011B00012886FEA00039BB202EA03024E4BA3F8C7
:1011C000002870474D48008840F010004A49A1F8B7
:1011D00004087047494800884FF6EF7100EA0100A3
:1011E0004549A1F804087047002145480188424854
:1011F000B0F8180841EA0040704700B50246FFF712
:10120000E1FF100C3F4908803B49A1F81C28FFF77B
:10121000E1FF00BD00B50246FFF7D4FFC2F3034073
:10122000394908803449A1F80C28FFF7D3FF00BDE5
:1012300000B50246FFF7C6FF100C344908802E495E
:10124000A1F82428FFF7C6FF00BD00203049098817
:101250004FEA01714FEA11302749B1F8141841EAF9
:101260000000704700BF2548008810F0200FFAD01A
:101270007047224800884FF6F77100EA01001E49C6
:10128000A1F8040800BF1D48008810F0080FFAD02C
:10129000704701460020194A12880A4201D00120F5
:1012A00000E000207047154909886FEA000292B2F9
:1012B00001EA0201104AA2F8041870470146002012
:1012C0000E4A128802EA0102D0B20B4AB2F8002894
:1012D0000A4202D008B1012000E00020704707490F
:1012E00009886FEA000292B201EA0201024AA2F8FA
:1012F00004187047002800400020004004280040E7
:101300001C280040182800400828004020280040E1
:101310001028004001460020FF4A106800F0380005
:10132000084310607047FC49096821F00801FA4A37
:10133000116011460968014311607047F649096858
:1013400021F01001F44A116011460968014311604F
:101350007047F248F0494860F14848607047EF48EC
:10136000ED494860EE4848607047EB48006940F03E
:101370008000E94908617047E748006940F0800053
:10138000E549086170470420E349C96801F001019B
:10139000012901D101200EE0DF49C96811F0040FD5
:1013A00001D0022007E0DC49C96811F0100F01D01C
:1013B000032000E00420704700B502460423FFF735
:1013C000E2FF034603E0FFF7DEFF0346521E012B58
:1013D00001D1002AF7D102B90523184600BD30B566
:1013E000044604254FF43020FFF7E6FF0546042DA0
:1013F00017D1C948006940F00200C7490861084692
:101400004461006940F0400008614FF43020FFF76C
:10141000D3FF0546C048006941F6FD710840BE494A
:101420000861284630BD10B504244FF43020FFF782
:10143000C3FF0446042C16D1B748006940F00400ED
:10144000B54908610846006940F0400008614FF462
:101450003020FFF7B1FF0446AF48006941F6FB7149
:101460000840AD490861204610BD00B5024604237E
:10147000FFF789FF034603E0FFF785FF0346521E8F
:10148000012B01D1002AF7D102B90523184600BD6E
:1014900010B504244FF43020FFF7E7FF0446042C76
:1014A00016D19D48006940F004009B490861084638
:1014B000006940F0400008614FF43020FFF7D5FF8D
:1014C00004469548006941F6FB710840924908615D
:1014D000204610BD00209049C96911F0020F01D0CB
:1014E000012000E00020704730B5A5250424FFF757
:1014F000F1FF00B100254FF43020FFF75DFF0446F7
:10150000042C3BD18548844988608548886008461A
:10151000006940F0200008610846006940F0400082
:1015200008614FF43020FFF747FF0446042C1CD11C
:101530007948006941F6DF7108407749086108463B
:10154000006940F010000861764805804FF40050B3
:10155000FFF732FF0446052C10D06F48006941F6B2
:10156000EF7108406C49086108E0052C06D06A4814
:10157000006941F6EF71084067490861204630BDB7
:10158000F0B504460D4604260027F002FFF714FFCD
:101590000646042E22D16048006940F001005E49F1
:1015A00008612580F002FFF707FF0646042E0ED1E2
:1015B000A71C280C3880F002FFF7FEFE06465648AE
:1015C000006941F6FE7108405349086106E052483F
:1015D000006941F6FE7108404F4908613046F0BD90
:1015E00070B504460D460426F002FFF7E5FE0646F8
:1015F000042E11D14848006940F0010046490861B5
:101600002580F002FFF7D8FE06464348006941F600
:10161000FE71084040490861304670BD70B505460E
:101620000E460424E002FFF7C7FE0446042C17D13F
:101630003A48394988603A4888600846006940F06D
:10164000100008612E80E002FFF7B6FE0446052C6C
:1016500006D03148006941F6EF7108402E49086113
:10166000204670BD2DE9F04304464FF6FF7637461D
:10167000B046B1460425E443E6B2C4F30727C4F3F9
:1016800007484FEA1469E802FFF796FE0546042D65
:101690003ED1224820498860214888600846006978
:1016A00040F010000861FF2E06D01F4806804FF45E
:1016B0000050FFF781FE0546042D08D1FF2F06D00C
:1016C0001A4807804FF40050FFF776FE0546042DB8
:1016D00009D1B8F1FF0F06D01548A0F80C88E80230
:1016E000FFF76AFE0546042D09D1B9F1FF0F06D0B8
:1016F0000F48A0F80E98E802FFF75EFE0546052D9C
:1017000006D00548006941F6EF71084002490861BA
:101710002846BDE8F0830000002002402301674511
:10172000AB89EFCD00F8FF1F08F8FF1F0AF8FF1F75
:1017300000F0FF1F30B5054604244FF43020FFF7BA
:101740003BFE0446042C41D15F48604988606048F4
:1017500088600846006940F020000861084600697A
:1017600040F0400008614FF43020FFF725FE0446AA
:10177000042C22D15548006941F6DF7108405349D5
:1017800008610846006940F0100008611DB10020A2
:101790005049088002E0A5204E4908804FF43020CF
:1017A000FFF70AFE0446052C10D04848006941F6B0
:1017B000EF7108404549086108E0052C06D0434810
:1017C000006941F6DF71084040490861204630BD9C
:1017D000F0B505460E46174604243B483B49886051
:1017E0003B488860E002FFF7E7FD0446042C19D16E
:1017F0003648006940F010003449086147F0F800AD
:1018000030432843344908804FF40050FFF7D4FD9B
:101810000446052C06D02D48006941F6EF710840BA
:101820002A4908612046F0BD2848C06980087047F1
:101830002648006A704700202449096811F0200FEB
:1018400001D0012000E00020704729B11F4A126931
:1018500002431E4B1A6104E01C4A126982431B4B6F
:101860001A61704701460020012908D1174AD26940
:1018700012F0010F01D0012008E0002006E0134A19
:10188000D2680A4201D0012000E0002070470F49D1
:10189000C860704704200D49C96801F001010129A1
:1018A00001D101200EE00949C96811F0040F01D0EF
:1018B000022007E00549C96811F0100F01D003208C
:1018C00000E004207047000023016745002002402B
:1018D000AB89EFCD00F8FF1F02F8FF1F10B50446DB
:1018E000F648844209D101214805FFF73FF900215C
:1018F0004FF40010FFF73AF908E001218805FFF7DF
:1019000035F900214FF48000FFF730F910BD2DE9C3
:10191000F04385B004460D460026B1460427DFF8A3
:10192000A083A6884FF6C0710E406846FFF78AF87C
:10193000DDF80880E348B8FBF0F01FFA80F946EACA
:101940000906A68020884FF6FE71084020800026F8
:10195000DD49286888420CD828684000B8FBF0F0C0
:1019600087B2042F00DA04273E4309F101002084E6
:1019700027E0E888A0F53F41FF3906D1286800EB51
:101980004000B8FBF0F087B209E0286800EBC00126
:1019900001EB0010B8FBF0F087B247F48047380540
:1019A000000D01D147F0010747F4004006434FF412
:1019B000967009FB00F04FF47A7190FBF1F0401C37
:1019C0002084A683208840F00100208026884FF6DE
:1019D000F5310E40A8886989084306432680A88906
:1019E00029890843208105B0BDE8F08341F28831A0
:1019F0000160002181804BF6FF71C18000210181CF
:101A000041814FF480418181704721B1028842F0C9
:101A10000102028004E002884FF6FE731A40028041
:101A2000704721B1828842F40062828004E082889B
:101A30004FF2FF731A408280704721B1828842F4CE
:101A40008052828004E082884EF6FF731A408280C2
:101A5000704721B1028842F48072028004E002885B
:101A60004FF6FF631A400280704721B1028842F4AA
:101A70000072028004E002884FF6FF531A40028091
:101A8000704721B1028842F48062028004E002883B
:101A90004FF6FF331A40028070470A4600218189C1
:101AA0004FF60173194002F0FE031943818170471C
:101AB00021B1828942F00102828104E082894FF6DD
:101AC000FE731A408281704721B1028842F04002C1
:101AD000028004E002884FF6BF731A40028070470C
:101AE00010B51AB183880B43838004E08388CC430C
:101AF000A4B22340838010BD018270470146088A4A
:101B0000C0B2704712B141F0010102E04FF6FE731E
:101B10001940018270470246002313460B4418887F
:101B2000704721B1028842F40042028003E002883B
:101B3000C2F30E0202807047B1F5006F04D1028833
:101B400042F40062028004E002884FF2FF731A4000
:101B500002807047B1F5005F04D1028842F4005260
:101B6000028004E002884DF6FF731A40028070473D
:101B700021B1028842F48052028004E002884EF6CD
:101B8000FF731A4002807047B1F5006F04D10288DC
:101B900042F40062028004E002884FF2FF731A40B0
:101BA0000280704721B1028842F02002028004E0E6
:101BB00002884FF6DF731A40028070470146088B97
:101BC0000012704721B1028842F01002028004E046
:101BD00002884FF6EF731A400280704721B90288DD
:101BE00042F08002028004E002884FF67F731A40C0
:101BF00002807047B1F5804F05D0828B4BF6FF73A2
:101C00001A40828303E0828B42F4804282837047D1
:101C100070B502460024002500230020958A138B0E
:101C20001B0445EA030626F07F4404EA01068E42BF
:101C300001D1012000E0002070BD10B50146002058
:101C4000002300228B8A0A8B120443EA020424F048
:101C50007F4010BD30B503460020002400221A4604
:101C60000C0F21F07F410CB1143201E0090C183245
:101C700015680D4201D0012000E0002030BD002297
:101C800021F07F42D3438382704730B50246002063
:101C90000023948801F0E06504EA154321F07F41B8
:101CA000948A0C4202D00BB1012000E0002030BD2C
:101CB000002221F07F42D3438382704700540040CA
:101CC00000127A0040420F00A086010009488047B8
:101CD00009480047FEE7FEE7FEE7FEE7FEE7FEE70E
:101CE000FEE7FEE7FEE7FEE704480549054A064B26
:101CF0007047000001030008ED00000830020020DA
:101D00003008002030040020300400204FF4FA7026
:101D100000F0E7F900F005FA00F040FD00F0B6FE33
:101D200000F0C6FE01F06AF901F037F800F0A7FBF9
:101D300000F032FFC0A1002000F08EFFC3A10220FE
:101D400000F08AFF76E100F00CFEF0BBC44800789A
:101D50000A2190FBF1F0303084B222461821042091
:101D600000F02FFFBE4800780A2190FBF1F201FB42
:101D70001200303084B222462021042000F021FFDE
:101D80003A222821042000F01CFFB64800780A21DE
:101D900090FBF1F0303084B222463021042000F074
:101DA00010FFB04800780A2190FBF1F201FB12000D
:101DB000303084B222463821042000F002FF3A225B
:101DC0004021042000F0FDFE00E01CE0A648007861
:101DD0000A2190FBF1F0303084B2224648210420E1
:101DE00000F0EFFEA04800780A2190FBF1F201FB21
:101DF0001200303084B222465021042000F0E1FE6F
:101E0000C82000F06EF901219848FEF766FC70B119
:101E100002219648FEF761FC48B104219348FEF781
:101E20005CFC20B108219148FEF757FCF0BB142060
:101E300000F057F901218D48FEF74FFCB8BB8CA18B
:101E4000062000F009FF0C21412001F051F88448E0
:101E500000780A2190FBF1F0C8B18148007890FB2E
:101E6000F1F0012804D10B21412001F041F80EE0EE
:101E70007B4800780A2190FBF1F0401C84B2214697
:101E8000412001F035F80B21412001F031F8744870
:101E900000780A2190FBF1F201FB120010B97048A2
:101EA000007878B96E4800780A2101E0B7E09DE03B
:101EB00090FBF1F201FB1200401C84B2214641204C
:101EC00001F016F80D21412001F012F86548007864
:101ED0000A2190FBF1F050B96248007890FBF1F0D4
:101EE000401C84B22146412001F002F81AE05D480E
:101EF00000780A2190FBF1F0012804D10B21412048
:101F000000F0F6FF0EE0574800780A2190FBF1F050
:101F1000401C84B22146412000F0EAFF0B21412001
:101F200000F0E6FF4F4800780A2190FBF1F201FB38
:101F3000120010B94B48007860B94A4800780A216D
:101F400090FBF1F201FB1200401C84B221464120BB
:101F500000F0CEFF0E21412000F0CAFF4248007879
:101F60000A2190FBF1F050B93F48007890FBF1F066
:101F7000401C84B22146412000F0BAFF1AE03A48E2
:101F800000780A2190FBF1F0012804D10B214120B7
:101F900000F0AEFF0EE0344800780A2190FBF1F02B
:101FA000401C84B22146412000F0A2FF0B214120B9
:101FB00000F09EFF2C4800780A2190FBF1F201FB13
:101FC000120010B92848007860B9274800780A2123
:101FD00090FBF1F201FB1200401C84B2214641202B
:101FE00000F086FF0F21412000F082FF00BF012199
:101FF0001E48FEF772FB0028F9D002211B48FEF7AD
:102000006CFB0028F3D004211848FEF766FB00287B
:10201000EDD008211548FEF760FB0028E7D01948ED
:102020000088012806D118A1062000F015FE002026
:102030001449088087E60000202020596F756E67DC
:1020400054616C6B2020202000000000204D503394
:102050002054494D452052454144202000000000B5
:102060003600002037000020380000200008014022
:1020700020202D2D20504C4159202D2D2020202076
:10208000000000002A00002020202D2D2053544F56
:1020900050202D2D2020202000000000704700BF80
:1020A000FEE700BFFEE700BFFEE700BFFEE77047A8
:1020B00070477047704700EBC001C9004FF0E02245
:1020C0005161002191610521116100BF4FF0E021B4
:1020D000096911F4803FF9D004214FF0E022116129
:1020E000704700B5034603E04FF47A70FFF7E3FF53
:1020F0001800A3F101018BB2F6D100BD10B5044662
:1021000003E04FF47A70FFF7ECFF2000A4F1010127
:102110008CB2F6D110BD10B54FF4A060FEF770F987
:1021200010BD10B5FEF794FB4FF48030FEF7B0FB06
:10213000FEF7EDFB0446012C24D14FF4E01100041E
:10214000FEF70AFC0020FEF724FCA002FEF72AFCA2
:102150000020FEF730FC0220FFF7DCF81020FFF72C
:10216000EDF80120FEF704FC00BF3920FEF7B3FBB9
:102170000028FAD00220FEF7FEFB00BFFEF704FCA9
:102180000828FBD110BD0000014600BF704700BF0A
:10219000A64A128812F0400FFAD0C2B2A44B1A809D
:1021A00070470FB410B5B4B0002437A80090C9210F
:1021B00001A8009B369A00F099FF0EE02046621CB1
:1021C000D4B201AA115C9948FEF753FE00BF40212A
:1021D0009648FEF7BCFE0028F9D0C82C04DA01A806
:1021E00001F0A2F8A042E9D834B010BC5DF814FBAD
:1021F00010B586B00446012144F20400FEF78FFCBE
:102200004FF40070ADF8140003208DF8160018206C
:102210008DF8170005A98748FEF7CEF94FF48060C6
:10222000ADF8140004208DF8170005A98148FEF7C9
:10223000C3F925208DF8000003208DF801008DF8EA
:10224000020001208DF803006846FEF7DEF80194D5
:102250000020ADF80800ADF80A00ADF80C00ADF8AC
:1022600010000C20ADF80E0001A97048FEF705FD26
:10227000002240F225516D48FEF797FD01216B4881
:10228000FEF787FD06B010BD10B540F22551674836
:10229000FEF773FE30B36548FEF7EFFDC4B221468A
:1022A00065A000F03DFF6548008810F4004F2BD179
:1022B0006248008810F4804F0CD00A2C03D0002014
:1022C0005E49088020E05D48008840F400405B499A
:1022D000088019E00D2C06D15848008840F4804051
:1022E0005649088010E055480088C0F30D00544955
:1022F0000C5452480088401C504908800846008809
:10230000C72801DD0020088010BD0FB410B5B4B09F
:10231000002437A80090C92101A8009B369A00F03C
:10232000E5FE0EE02046621CD4B201AA115C4548CD
:10233000FEF79FFD00BF40214248FEF708FE00283F
:10234000F9D0C82C04DA01A800F0EEFFA042E9D8C9
:1023500034B010BC5DF814FB10B586B00446012102
:102360000820FEF7DCFB01218804FEF7E5FB4FF4B3
:102370000060ADF8140004208DF8170005A932485C
:10238000FEF71AF94FF48060ADF8140003208DF8C1
:10239000160018208DF8170005A92B48FEF70CF938
:1023A0004FF4E060FEF72CF827208DF800000120A4
:1023B0008DF801008DF802008DF803006846FEF7E5
:1023C00024F801940020ADF80800ADF80A00ADF83B
:1023D0000C00ADF810000C20ADF80E0001A9194852
:1023E000FEF74BFC012240F225511648FEF7DDFCBA
:1023F00001211448FEF7CDFC06B010BD10B540F227
:1024000025511048FEF7B9FD70B10E48FEF735FDB5
:10241000C4B2532C03D101200C49088004E04B2C9A
:1024200002D102200949088010BD00000038014097
:102430000438014000080140256300002800002006
:102440004000002000480040000C01402A0000200D
:1024500008B501211C20FEF762FB01214805FEF7AB
:102460006BFBC020ADF800001C208DF8030003209A
:102470008DF802006946B148FEF79EF808BD1FB509
:10248000FFF7E6FF0020ADF804004BF6FF70ADF853
:102490000600C020ADF808004FF48060ADF80A00D7
:1024A0000001ADF80C00A64800906946A548FFF76A
:1024B0002EFA0121A348FFF7A8FA1FBD2DE9F0412C
:1024C00005460F4614461E4601219E48FFF7C1FAF5
:1024D00000BF9D499B48FFF79BFB0028F9D00022D5
:1024E00029469848FFF70EFB00BF98499548FFF72B
:1024F0008FFB0028F9D039469248FFF7FDFA00BF5C
:102500009249891C8F48FFF783FB0028F8D00CE024
:1025100021788C48FFF7F0FA641C00BF8B49891CB6
:102520008848FFF775FB0028F8D03000A6F10101BC
:102530008EB2EDD101218348FFF797FABDE8F08113
:1025400070B504460E46154601217E48FFF781FA14
:1025500000BF7D497B48FFF75BFB0028F9D00022D4
:1025600021467848FFF7CEFA00BF78497548FFF753
:102570004FFB0028F9D031467248FFF7BDFA00BF83
:102580007249891C6F48FFF743FB0028F8D02946A1
:102590006C48FFF7B1FA00BF6C49891C6948FFF726
:1025A00037FB0028F8D001216648FFF75EFA70BDBE
:1025B0002DE9F04106460F4615461C4600BF4FF474
:1025C00000316048FFF746FB0028F8D101215D4843
:1025D000FFF73FFA00BF5C495A48FFF719FB002894
:1025E000F9D0002231465748FFF78CFA00BF57490F
:1025F0005448FFF70DFB0028F9D001215148FFF79F
:1026000004FA39464F48FFF777FA00BF4F49891C53
:102610004C48FFF7FDFA0028F8D001214948FFF7A0
:1026200018FA00BF48494748FFF7F2FA0028F9D0E6
:10263000012231464348FFF765FA00BF4249491C71
:102640004048FFF7E5FA0028F8D016E0012C07D142
:1026500000213C48FFF715FA01213A48FFF705FA37
:1026600039493F313748FFF7D3FA30B13548FFF7E2
:1026700045FA28706D1C601E84B2002CE6D1012141
:102680003048FFF7FEF9BDE8F08170B504460D460D
:1026900000BF4FF400312B48FFF7DCFA0028F8D1D7
:1026A00001212848FFF7D5F900BF27492548FFF742
:1026B000AFFA0028F9D0002221462248FFF722FA7B
:1026C00000BF22491F48FFF7A3FA0028F9D00121D3
:1026D0001C48FFF79AF929461A48FFF70DFA00BF80
:1026E0001A49891C1748FFF793FA0028F8D00121EE
:1026F0001448FFF7AEF900BF13491248FFF788FAF4
:102700000028F9D0012221460E48FFF7FBF900BF4F
:102710000D49491C0B48FFF77BFA0028F8D000212F
:102720000848FFF7AEF901210648FFF79EF9054872
:10273000FFF7E4F90646304670BD0000000C01408A
:10274000400D030000540040010003008200070018
:1027500010B501214FF0C050FEF7EEF90120FEF751
:10276000BCFCFEF74DFC0120FEF74AF900BF4120FA
:10277000FEF7B1F80028FAD04FF48070FEF759F94F
:102780000120FEF75CF9FEF774FDFEF76BFD47F6DE
:10279000FF70FEF73FFDFEF765FD10BD10B504208C
:1027A000FEF761FCA0F52541A53907D0FFF7D0FF62
:1027B0004AF2A5510420FEF750FC0DE07B20FEF705
:1027C0008AF810B97A20FEF786F8FEF7E5F90120BD
:1027D000FEF735F9FEF74DFD10BD10B50120FEF7EF
:1027E0006DFD0120FEF77BFDFEF73CFD10BD10B531
:1027F0000220FEF763FD0220FEF771FDFEF732FDB9
:1028000010BD0146CA1701EB92729210B1EB820221
:1028100012D1642091FBF0F200FB121050B94FF47A
:10282000C87091FBF0F200FB121008B9012070474C
:102830000020FCE70120FAE70020F8E72DE9F05F2F
:1028400006460F4690469946DDE90AAB0024B6F5E8
:10285000FA6F03DB40F63300864202DD0120BDE85B
:10286000F09F40F2B2750AE02846FFF7CAFF10B1A8
:102870007948044401E079480444681C85B2B542B3
:10288000F2DB781EC7B2002510E07548405D40F2CB
:10289000A321484304EBC0143046FFF7B2FF18B140
:1028A000012D01D16F480444681C85B2BD42ECDBA8
:1028B000A8F1010040F2A321484304EBC014C9EB86
:1028C0004910C0EB092004EB0014CAEB0A1004EB1A
:1028D00080045C44FFF73CFF4AF2A5510420FEF758
:1028E000BCFB2046FEF789FCFEF7BCFC0020B6E7E7
:1028F000F0B503460C461546642093FBF0F0C6B2D3
:10290000642093FBF0F700FB1730C1B2132E02DDF9
:1029100001F16400C1B20846CF1701EB977701EBD4
:10292000A702072092FBF0F700FB172082B257198D
:10293000601EDFF834C11CF80000384482B2CF17A3
:1029400001EB9777BF10B1EB870703D1032C01DAB6
:10295000501E82B2072092FBF0F700FB1720C0B296
:10296000F0BD70B5002600240025FEF73DFC0646AC
:102970003C48B6FBF0F43D480088A0423DD03B49BE
:102980000C8040F2B27510E02846FFF73AFF40B1E4
:10299000B4F5B77F02D3A4F5B77404E0681C85B220
:1029A00006E0A4F26D14681C85B2B4F5B67FEBD8CE
:1029B00000BF2F480580002516E02D480088FFF74E
:1029C00020FF30B1012D04D11D2C01D31D3C09E0A5
:1029D0000CE02348405DA04203D82148405D241A02
:1029E00000E003E0681C85B21C2CE6D200BF681C26
:1029F00020490870601C204908701A48B6FBF0F1A5
:102A000000FB11644FF46160B4FBF0F01B490870E7
:102A10004FF46160B4FBF0F100FB11403C21B0FBCE
:102A2000F1F0174908704FF46160B4FBF0F100FB5E
:102A300011403C21B0FBF1F201FB1200114908707A
:102A40000D4802780B48017809480088FFF750FFCD
:102A50000D490870002070BD0085E2018033E1015E
:102A6000224800088051010016480008300000206C
:102A70003200002034000020350000203600002005
:102A800037000020380000203900002008B501215F
:102A90007C20FEF744F80F20ADF8000048208DF8A8
:102AA000030069460148FDF787FD08BD00080140A5
:102AB00008B501217C20FEF732F801210846FEF717
:102AC0002EF84FF4C040ADF8000010208DF8030040
:102AD00003208DF8020069460F48FDF76DFD0121C6
:102AE0000E48FDF738FE4FF4C0410B48FDF711FECC
:102AF00008BD10B5044622464FF480410648FDF754
:102B00000AFE10BD10B5044622464FF4005102489B
:102B1000FDF701FE10BD0000000801400004300078
:102B200000B587B01C228FA1684600F01CFC1C2356
:102B30006A4600217820FFF7C1FC07B000BD70B5E0
:102B4000B0241BE0224600217820FFF7F9FC102278
:102B500000217820FFF7F4FC002211467820FFF7CF
:102B6000EFFC002506E0002240217820FFF7E8FC7A
:102B7000681CC5B2842DF6DB601CC4B2B82CE1DB46
:102B800070BD08B57EA00068009003236A4600214E
:102B90007820FFF793FC08BD10B5FFF7F2FFFFF7B1
:102BA000CEFFFFF7BDFF10BD10B504468122002106
:102BB0007820FFF7C5FC224600217820FFF7C0FCF3
:102BC00010BD2DE9F04705460C4616464FF0000AA9
:102BD000A01CC4B2D1463AE005F1B000C2B2002157
:102BE0007820FFF7ADFC2746E01704EB10700011CA
:102BF00000F1100200217820FFF7A2FCE01704EB9F
:102C000010700011A4EB0010C2B200217820FFF771
:102C100097FC4FF0000811E00AEB0610A0F50070D9
:102C200058490A5C40217820FFF78AFC0AF101002C
:102C300000F0FF0A08F1010000F0FF08B8F1080FEA
:102C4000EADB681CC5B209F1010000F0FF09B9F127
:102C5000020FC1DBBDE8F08770B506460C460025C3
:102C600008E014F8012BE806010E3046FFF7A9FF33
:102C7000681CC5B220780028F3D170BD2DE9F0475B
:102C800005460C4616464FF0000AD14638E005F1DD
:102C9000B000C2B200217820FFF752FC2746E017AF
:102CA00004EB1070001100F1100200217820FFF7F2
:102CB00047FCE01704EB10700011A4EB0010C2B247
:102CC00000217820FFF73CFC4FF000080FE00AEBF2
:102CD00046102D490A5C40217820FFF731FC0AF1AB
:102CE000010000F0FF0A08F1010000F0FF08B8F150
:102CF000100FECDB681CC5B209F1010000F0FF0900
:102D0000B9F1020FC3DBAF2200217820FFF718FCD6
:102D1000BDE8F08770B5002420E004F1B000C2B235
:102D200000217820FFF70CFC102200217820FFF70B
:102D300007FC022200217820FFF702FC002509E0B1
:102D400005EBC41011490A5C40217820FFF7F8FB1D
:102D5000681CC5B2802DF3DB601CC4B2082CDCDB20
:102D600070BD0000AE0010D580A83FD300B0408DEC
:102D700014A1C8DA1281FFD9F1DB302000A4A6AF7C
:102D8000AE8D10002E4800082E4E0008AE4E0008F2
:102D900010B58BA0FFF7B9FA10BD10B54FF416505F
:102DA000FFF7DAFAFFF7F4FF10BD10B586A0FFF7C2
:102DB000ACFA10BD10B586A0FFF7A7FA10BD10B58C
:102DC00085A0FFF7A2FA10BD10B585A0FFF79DFA08
:102DD00010BD10B584A0FFF798FA10BD10B584A0FF
:102DE000FFF793FA10BD70B5044684F003057E2109
:102DF0008148FEF73EF800BF40217F48FEF7A7F864
:102E00000028F9D003217C48FEF733F800BF4021A9
:102E10007948FEF79CF80028F9D021467648FEF75D
:102E200028F800BF40217448FEF791F80028F9D037
:102E300029467148FEF71DF800BF40216E48FEF795
:102E400086F80028F9D0EF216B48FEF712F800BF92
:102E500040216948FEF77BF80028F9D070BD70B5B5
:102E600004460D4684F004066E407E216248FEF75B
:102E700000F800BF40216048FEF769F80028F9D04B
:102E800004215D48FDF7F5FF00BF40215A48FEF7D9
:102E90005EF80028F9D021465748FDF7EAFF00BF49
:102EA00040215548FEF753F80028F9D029465248EA
:102EB000FDF7DFFF00BF40214F48FEF748F800282C
:102EC000F9D031464C48FDF7D4FF00BF40214A48B5
:102ED000FEF73DF80028F9D0EF214748FDF7C9FF7C
:102EE00000BF40214448FEF732F80028F9D070BDF9
:102EF0002DE9F04105460C462046E11704EB11612F
:102F0000C1F307272046E11704EB11610912A4EB76
:102F1000012101F0FF0885F005067E4086EA0806DB
:102F20007E213548FDF7A5FF00BF40213248FEF75E
:102F30000EF80028F9D005212F48FDF79AFF00BFB1
:102F400040212D48FEF703F80028F9D029462A48E9
:102F5000FDF78FFF00BF40212748FDF7F8FF00284D
:102F6000F9D039462448FDF784FF00BF40212248AC
:102F7000FDF7EDFF0028F9D041461F48FDF779FF26
:102F800000BF40211C48FDF7E2FF0028F9D0314680
:102F90001948FDF76EFF00BF40211748FDF7D7FF26
:102FA0000028F9D0EF211448FDF763FF00BF40214E
:102FB0001148FDF7CCFF0028F9D0BDE8F0810000F2
:102FC0007E031E1DEF0000007E031112EF000000C3
:102FD0007E031211EF0000007E031417EF000000C3
:102FE0007E031310EF0000007E031516EF000000B3
:102FF0007E031615EF0000000048004008B50121CF
:103000001C20FDF78CFDC020ADF8000048208DF895
:10301000030069463048FDF7CFFA0420ADF8000000
:1030200048208DF8030069462C48FDF7C5FA08BD15
:1030300070B5002540212848FDF74FFB10B1002056
:103040002749087040212448FDF747FB80BB2448EE
:10305000007868BB6420FFF72EF804211F48FDF7B5
:103060003CFB04460320FFF73CF840211A48FDF7DB
:1030700034FBE8B90CB9012500E00225002019490C
:1030800008800AE017480088401C16490880012083
:10309000134908701420FFF70EF840210E48FDF781
:1030A0001CFB28B90F4800884EF660218842E9DBF6
:1030B00080210948FDF711FB58B90948007840B94B
:1030C0001420FFF70EF880210348FDF706FB00B936
:1030D0000325284670BD000000080140000C014097
:1030E0003A0000203C000020704700007CB51546E7
:1030F0001A460C00009001D02044401E074B7B4430
:1031000069460190284600F0F4F905461CB10020FC
:10311000694600F001FA28467CBD00002104000049
:103120000FB4044910B503AA029800F019FA10BCB4
:103130005DF814FB2C00002070B505460C46012AF2
:1031400005D02868800600D5EA69002302E0012343
:1031500005E05B1C934202D2E05C0028F9D1A8692B
:10316000E618C01AA861286A18442862284600F0A8
:1031700030F904E0D5E9012114F8010B9047B4427D
:10318000F8D3284600F03BF970BD00002DE9F05F50
:103190004FF0000B054689464FF0010AC0F820B0F9
:1031A0002846E968884798B3252806D0D5E9012143
:1031B0009047286A401C2862F2E75A4F00267F4455
:1031C0002846E96888472028044608DB312C06D2C7
:1031D00007EB040010F8200C08B10643F0E7B00735
:1031E00001D526F00406C5F81CB00027C5F818B0B4
:1031F0002A2C0ED05246A4F130010A292ED2BAF15F
:10320000000F2BD0924605EB8708C8F818101AE07B
:1032100084E059F8041B284605EB87029161E968B0
:103220008847012F04461BD1E869002823DA26F0DD
:10323000200620E0D8F8180000EB800004EB4000E6
:103240003038C8F818002846E9688847A0F13001EE
:1032500004460A2902D2BAF1000FEBD1012F0AD09D
:103260002E2C08D12846E96888477F1C0446022F87
:1032700046F02006BCDBA869002803DA404246F08D
:103280000106A861F00701D026F010066C2C0AD0C8
:10329000682C08D04C2C34D06A2C32D0742C30D00E
:1032A0007A2C2ED015E0E968274628468847B84290
:1032B000044609D180206C2F00D0C000E968064385
:1032C00028468847044604E040206C2F00D0800048
:1032D00006431CB3A4F14100192802D8203446F457
:1032E00000664A46214628462E604E46FCF738FFC7
:1032F00090B101280DD0F61D26F0070000F1080955
:103300004EE74C2C5846D9D080206A2CD6D00020CD
:10331000D4E706F1040943E7204647E7286ABDE8F9
:10332000F09F0000EC20000010B5431C02E010F8F4
:10333000011B71B18107FAD14FF0013202C88C1A1A
:103340008C4314EAC211F9D0C01A0A0603D0C01E79
:1033500010BDC01A10BD0A0401D0801E10BD0902A4
:10336000FCD0401E10BD10B5203AC0F00B80B1E873
:103370001850203AA0E81850B1E81850A0E81850AA
:10338000BFF4F5AF5FEA027C24BFB1E81850A0E8B3
:10339000185044BF18C918C0BDE810405FEA827CCD
:1033A00024BF51F8043B40F8043B08BF7047D207E4
:1033B00028BF31F8023B48BF11F8012B28BF20F885
:1033C000023B48BF00F8012B7047704770477047B9
:1033D000704770B50446856900683026C10600D480
:1033E0002026C00708D070BDD4E90121304690479F
:1033F000206A00F1010020626D1EF5D570BD70B528
:10340000044685690068C00708D170BDD4E9012170
:1034100020209047206A00F1010020626D1EF5D542
:1034200070BD09684A0501D540B27047C905FCD591
:1034300000B2704709684A0501D5C0B27047C90596
:10344000FCD580B2704700002DE9F041804600268F
:1034500010687529414615A512D0FFF7E2FF002834
:1034600003DAC0F1000012A508E0D8F800108A07BE
:1034700001D510A502E0490704D50FA5012601E0FA
:10348000FFF7D8FF002408F1240704E000F07EFCD9
:1034900030313955641C0028F8D133462A4621467C
:1034A0004046BDE8F04100F0D6B900000000000041
:1034B0002D0000002B0000002000000011680268B1
:1034C000006A530501D508700BE0D30501D50880CB
:1034D00007E0130603D5C217C1E9000201E0520656
:1034E000086001207047000001694A1C02610878E9
:1034F000704700B58FB0CDE9013100210591054934
:103500007944CDE9031011466846FFF73FFE0FB03E
:1035100000BD0000E5FFFFFF0A6802F8010B0A602A
:103520007047D1E900239A4202D2531C0B601070FD
:10353000704710B5436913B1AFF3008001E0FFF7A6
:10354000FBFD012010BD126800F124010A70002269
:103550004A700122EDE711684FF0FF32E9E7000001
:10356000074B70B50C467B44FFF7C3FF054620466A
:1035700000F0E8FB10B14FF0FF3070BD284670BD81
:1035800025ECFFFF2DE9FF5F04468A461546DFF86C
:10359000AC80F8440027D8E900103E46CDE9001081
:1035A00011E03AF816106A4602A800F0CFFB411C61
:1035B00007D02168890603D5E269391891420ED8EF
:1035C000074406F101062068800602D5E069B8428A
:1035D00005DDAE42E5DB3AF816000028E1D1A0692E
:1035E000C01BA0612046FFF7F4FED8E90010CDE92A
:1035F0000010002016E03AF818106A4602A800F001
:10360000A5FB8146401C0BD000250DF1080B05E001
:10361000D4E901211BF8050090476D1C4D45F7D3F7
:1036200008F10100B0428046E5DB206A38442062A0
:103630002046FFF7E4FEBDE8FF9F00002A1D0000C2
:103640002DE9F0418046D21D22F007020026D2E982
:103650000002F52914A512D0002A06DA0023D0EBC7
:10366000030063EB020211A508E0D8F800108B07F5
:1036700001D50FA502E0490701D50EA50126114687
:10368000002408F1240704E000F0A0F830323A5595
:10369000641C50EA0102F7D133462A4621464046CF
:1036A000BDE8F04100F0D7B8000000002D00000098
:1036B0002B0000002000000030B4002100F12404A1
:1036C0000CE002F0070505F130054FEAD20242EAAC
:1036D0004372655401F101014FEAD30352EA030535
:1036E000EFD10468002310A2250708D504F02004B8
:1036F0000C4304D0C46901230CA2641EC46130BC15
:1037000000F0A9B810B5044621461068FFF792FEF4
:1037100002462046BDE810400023CDE7D21D22F02E
:103720000701D1E90023C7E70000000030000000D6
:10373000F0B40F460168090502D5234C7C4402E031
:10374000214C7C440E34002100F124050BE002F0F2
:103750000F064FEA1212A65D42EA03724FEA1313F4
:103760006E5401F1010152EA0306F0D122460468C9
:103770000023240704D5702F05D009B1113202238C
:10378000F0BC00F068B810320123F9E770B50446C8
:103790000D4621461068FFF74DFE02462946204699
:1037A000BDE870400023C3E7D21D22F00703D3E930
:1037B0000023BDE70368126843F020030360082379
:1037C000C3610023B4E70000881B000030B5B0F1EE
:1037D0000A024FEA900E71F100034EEA817EB0EBCF
:1037E0000E0061EB91014FEA101E4EEA017E10EBD4
:1037F0000E0041EB11114FEA102E4EEA016E10EB54
:103800000E0041EB11214FEA104E4EEA014E10EB33
:103810000E0041EB1141401841F100014FEAD00088
:1038200040EA41704FEAD10110EB80054FEA810474
:1038300044EA907444EB01046D1944EB0404521BF8
:10384000A3414FF0000348BF0A3200D530BD401CF1
:1038500041F1000130BD2DE9F0470D460446924686
:10386000994600F124080168880604D5E06921F032
:103870001001216000E001200027A84201DDA0EB3B
:103880000507A16907EB050202EB0300A1EB0000AD
:10389000A0612068C00602D42046FFF79AFD0026EA
:1038A00008E0D4E901211AF806009047206A401C7C
:1038B000761C20624E45F4DB2068C0060AD52046FF
:1038C000FFF787FD06E0D4E9012130209047206A08
:1038D000401C2062381EA7F10107F4DC07E0D4E9A0
:1038E000012118F805009047206A401C2062281E1C
:1038F000A5F10105F3DC2046FFF781FD21680220D8
:10390000090600D40120BDE8F08770472DE9FF4F7C
:103910000C461E464FF0FF3789B0D2E90001DDF8B2
:10392000588006908946C1F30A5505B93D460021E5
:1039300008464FF00000B9F1000F00F4400005DA2E
:1039400000EB80004FF4400101EA50004FEA905A2A
:10395000BAF1010F00DDBA46069850EA49002CD0B2
:1039600044F61050A5F2FF354543CAF10000089017
:103970002F14B8F1000F39D07542089A291E00DCC7
:10398000524600DA694203A800F07AFA06994846DE
:1039900000F03CFB8DE80700A0F500501F380090B8
:1039A0000398002D25DD42F21F015246084403A969
:1039B0000390684600F09BFD24E0B8F1010F4FF042
:1039C000000001D1F24307E0302101E02154401C06
:1039D000B042FBDB30460022002121540999C1F896
:1039E0000880C1E900200DB0BDE8F08FBD1B6D1C43
:1039F000C3E7A0F5005052461F3803A9039068465C
:103A000000F089FD8DE807000004000C03D04FF0A2
:103A1000FF30410800E01046B8F1000F03D000224B
:103A2000009215461FE0751E06D4FFF7CFFE02F187
:103A3000300262556D1EF8D5B3460122084302D00C
:103A400000227F1C04E02078302801D100227F1E54
:103A5000002A07978DD01DE0112D07DAFFF7B6FE7B
:103A6000303262556D1C50EA0102F5D108430FD186
:103A70000021681E05E0235C625C6354491C2254EB
:103A8000401E8142F7DBAB46A81B401E079001E0B9
:103A9000009848B1002004F80B000998079AC0F874
:103AA0000880C0E9002B9EE711264FF0000860E770
:103AB0002DE9F04F88460446D21D22F0070191B04F
:103AC000D1E90001CDE90C0100F05BFE02460D9842
:103AD000C10F4FF02D0006D121682B208B0702D497
:103AE000202000EAC100032A834601D0072A05DB13
:103AF00003464146204600F085F90AE12068800629
:103B000001D5E76900E006271120B8F1650F06D05E
:103B1000B8F1660F11D0B8F1670F67D128E0002324
:103B2000112F009300DA781C03460CAA01A909A8FA
:103B3000FFF7ECFE00267D1C3FE001234FF000491B
:103B40000CAA01A909A800933B46FFF7DFFEDDE9B7
:103B50000A50002620B9099907F1010001EB000580
:103B6000781B02D47D1CC0F1FF36A5EB070A3DE0AF
:103B7000012F00DA01270023112F009300DC3846C3
:103B800003460CAA01A909A8FFF7C0FE20683D461C
:103B9000002600070BD40A98A84200DA054601A8BF
:103BA000012D04DD411911F8011C302909D00998B3
:103BB000B84202DA10F1040F05DA4FF0010A099851
:103BC00013E06D1EECE7002802DC2D1A064405E028
:103BD000401CA84202DD099D05F101050998A0EBF2
:103BE000060000F1010A4FF00040814620680007FE
:103BF00003D4AA4501DB4FF0FF3A0020B9F1004F92
:103C00000DF13F078DF83F0024D04FF002082B2024
:103C1000B9F1000F00900BDA2D20C9F100090090D6
:103C200006E0484600F0B2F83031814607F8011D41
:103C3000B8F10001A8F10108F3DCB9F1000FF0D1EF
:103C4000009807F8010D21684520090500D465207A
:103C500007F8010D0EA8A0EB070000F107085FEAC6
:103C60000B0000D0012000EB050101EBEA7101EB34
:103C70000800A169A1EB0000A0F10100A06120688B
:103C8000C00602D42046FFF7A4FB5FEA0B0006D073
:103C9000D4E901219047206A00F1010020622068E8
:103CA000C00621D52046FFF794FB1DE0002E05DB62
:103CB0000A98B04202DD01A8805D00E03020D4E91E
:103CC00001219047206A761C401CBAF1010A20624B
:103CD0000AD100F091F8C0680168405CD4E9012184
:103CE0009047206A401C2062281EA5F10105DDDCFA
:103CF00007E0D4E9012117F8010B9047206A401C26
:103D00002062B8F10001A8F10108F2DC2046FFF7BB
:103D100076FB022011B067E610B5436913B1AFF32B
:103D2000008001E0FFF72EFC012010BD126800F1B9
:103D3000240182840022C2840122EDE711684FF041
:103D4000FF32E9E7C06800F08000704770B50546B3
:103D50000C46164600F048F8036893F80101012864
:103D600006D0FF2C0FD8185D68B101202C7070BDF3
:103D7000D3F807013246214603442846BDE8704087
:103D800003F2071318474FF0FF3070BD4FF00A01E0
:103D9000B0FBF1F202FB110110467047754600F0CE
:103DA000EBF8AE4605006946534620F0070085460D
:103DB00018B020B5FDF798FFBDE820404FF0000691
:103DC0004FF000074FF000084FF0000B21F0070103
:103DD000AC46ACE8C009ACE8C009ACE8C009ACE846
:103DE000C0098D467047000010B500F005F8001DB1
:103DF00010BD00BFE509000001487047704700BFD3
:103E0000F00100202DE9F04104461F460326016819
:103E1000072A01F4006003DB15A520B915A502E00F
:103E200015A500B915A521F010002060A069C01EDD
:103E3000A0610FB1401EA0612046FFF7CAFA4FB142
:103E4000D4E9012138469047206A401C2062C01CFA
:103E5000206206E0206AFAE7D4E9012115F8010B97
:103E60009047761EF8D22046FFF7C9FABDE8F081E8
:103E70004E414E006E616E00494E4600696E66000E
:103E80002DE9F047814616468AB037487844D0E994
:103E9000002380680092CDE90130334878440C3823
:103EA000D0E9022300690392CDE9043041F69B3347
:103EB0004FF0370001EB0302194492FBF0F591FB40
:103EC000F0F2A5F1800500FB12141B3C02D5644200
:103ED000012000E00020DFF890A080460027FA448F
:103EE000AAF1CE0A0DE0E00709D03246684607EB9A
:103EF00047010AEB810100F00EFB8DE8070064101A
:103F00007F1C002CEFD1184F7F44BC3F17E0E8071F
:103F100013D007EB04100DF1180A90E80E00AAE880
:103F20000E00C068F04201D198190890324606A9E7
:103F300003A800F0F0FA03AB07C36D10641C002D5A
:103F4000E5D132466946B8F1000F03A802D000F06F
:103F5000CEFA01E000F0DFFAC9E90001C9F8082053
:103F60000AB0BDE8F0870000DC1400000446AFF39F
:103F700000802046FCF759F900487047D001002026
:103F80004FF0013C50F8042B51F8043B9A4221D1E8
:103F9000A2EB0C03934313EACC1317D150F8042B74
:103FA00051F8043B9A4215D1A2EB0C03934313EA58
:103FB000CC130BD150F8042B51F8043B9A4209D191
:103FC000A2EB0C03934313EACC13DBD04FF00000B9
:103FD000704700BFD01A01BAB1FA81F101F018019F
:103FE00022FA01F0CB40C1F12001DBB2C0B2C01A0D
:103FF0002CFA01F3D11A914311EAC311E6D17047AB
:1040000001487047704700BFD40100205FEA400CB0
:1040100008BF91F0000F4FEA8C234FEAC12243EA18
:1040200051514FEA1C5018BF00F5F0404FEA3000E4
:1040300018BF41F000415FEA6C5C00F02980BCF1E0
:10404000FF3F08BF40F080407047130C06BF1204CA
:104050004FF0100C4FF0000C130E04BF12020CF1C5
:10406000080C130F04BF12010CF1040C930F04BFD2
:1040700092000CF1020CD30F04BF52000CF1010CA2
:1040800011464FF00002A0F11F00A0EB0C0070479A
:1040900011F0004F08BF704731F000413FF4D5AF39
:1040A0000B0C06BF09044FF0100C4FF0000C0B0E68
:1040B00004BF09020CF1080C0B0F04BF09010CF13D
:1040C000040C8B0F04BF89000CF1020CCB0F04BF52
:1040D00049000CF1010CCCF12003A0EB0C0022FAFA
:1040E00003F302FA0CF241EA030100F10100704708
:1040F00020F07F4C80EA030023F07F47ACEB0703FE
:1041000003F57C5300F0004003F1FF032DE98049E3
:104110004FEA154B09B44FEA144325EA0B4E24EA43
:1041200003480FF2042606EB132749083E785FEA9E
:10413000320203FB0667C7F5000707FB06F64FEAE6
:1041400054374FEAD64606F1020607FB066CCCF15F
:10415000005C4FEA1C472CEA074C07FB06F40CFBFB
:1041600006F504EB15464FEA961634BF00204FF0D3
:1041700000404FEAD13706FB07FC4FEA1C4C0CFB12
:104180000BF7D21B03FB0CF761EB07010CFB0EF7DF
:10419000B0EB074072EB17420CFB08F734BFA2EB01
:1041A0000742B2EB074261EB17414FEA0C444FEA7A
:1041B000910706FB07FC4FEA1C4C0CFB0BF7B0EB1E
:1041C000C74072EB573203FB0CF734BFA2EBC74278
:1041D000B2EBC74261EB57310CFB0EF7B0EBC700F7
:1041E00072EB57720CFB08F734BFA2EBC702B2EBBD
:1041F000C70261EB5771039F4FEA816141EA921157
:1042000004EBCC044FEAD1374FEA826206FB07FC8D
:1042100042EA90124FEA80604FEA1C4C0CFB0BF70D
:10422000D21B03FB0CF761EB07010CFB0EF7B0EBA5
:10423000074072EB17420CFB08F734BFA2EB0742B2
:10424000B2EB074261EB17414FEA8C554FEA9107F9
:1042500004EB9C2406FB07FC4FEA1C4C0CFB0BF701
:10426000B0EBC74072EB573203FB0CF734BFA2EB45
:10427000C742B2EBC74261EB57310CFB0EF7B0EB14
:10428000C70072EB57720CFB08F734BFA2EBC702F2
:10429000B2EBC70261EB577115EB4C254FEA816118
:1042A00041EA92114FEA82624FEAD13742EA901214
:1042B00006FB07FC44F100044FEA80604FEA1C4C07
:1042C0000CFB0BF7D21B03FB0CF761EB07010CFB9C
:1042D0000EF7B0EB074072EB17420CFB08F734BF48
:1042E000A2EB0742B2EB074261EB174115EB1C153D
:1042F0004FEA813141EA92414FEA823242EA9042EA
:104300004FEA80304FEA0C7644F1000448EA034358
:104310004EEA0B484FF0000EB2EB080C71EB0307AE
:1043200024BF624639464EEB0E0E4FF0000B0018CC
:10433000524149414BEB0B0BB2EB080C71EB0307FD
:104340007BF1000B24BF624639464EEB0E0E4FF058
:10435000000B0018524149414BEB0B0BB2EB080C20
:1043600071EB03077BF1000B24BF624639464EEB2D
:104370000E0E51EA020718BF46F0010616EB0E7644
:1043800055F1000254F1000103D5BDE88901BDE8F3
:104390000088BDE88901BDE80048B619524141EBEB
:1043A0000101A3F10103704780807F7E7D7C7B7AD1
:1043B0007978777676757473727171706F6E6E6DD1
:1043C0006C6C6B6A6A696868676666656464636377
:1043D00062616160605F5F5E5E5D5D5C5C5B5B5AFD
:1043E0005A5959585857575656555555545453536A
:1043F00052525251515050504F4F4F4E4E4D4D4DC5
:104400004C4C4C4B4B4B4A4A4A494949484848470F
:10441000474747464646454545444444444343434D
:104420004342424242414141002B26D4770021D0F1
:104430001CB54FEA370703B44FF010004FF01001DE
:104440004FF000000FBCBDE810400BF1010BBBF1B9
:10445000010F08BF5FEA170722BF12F1010211F135
:1044600001014FF0004143F1000300F0004043EA36
:1044700000007047F9D35708DAE746EA064613F119
:10448000400F4FEA16461FDD13F1200FDFBF164322
:104490000A46002120335B42C8D0C3F1200746EA18
:1044A000064602FA07F74FEA164646EA0706C3F140
:1044B000200722FA03F201FA07F721FA03F14FF07D
:1044C000000342EA0702B1E746EA020646EA064668
:1044D0004FEA164646EA0106BCBF46EA0646360CD7
:1044E0004FF000034FF000024FF000019EE72DE96E
:1044F000C048934630B491E8380007C831EA400C10
:1045000048BF34EA430C03D5FFF7F2FDFFF78CFFF9
:10451000F0BCBDE800882DE9C048934630B491E86E
:10452000380007C810F0804F08BF13F0804F03D148
:1045300000F005F8FFF778FFF0BCBDE8008820F038
:104540007F4780EA030023F07F4C07EB0C03A3F5C1
:104550007C5300F00040A3F1FE0392F0000F00F046
:10456000B38095F0000F00F077802DE901494FEA04
:1045700011404FEA144621EA004800FB06FC24EAF9
:10458000064708FB06F607FB08F800FB07F718EBE1
:1045900006484CEB164C4FEA124B18EB07484FEA13
:1045A00015464CEB174022EA0B4E0BFB06FC25EAA6
:1045B00006470EFB06F607FB0EFE0BFB07F71EEB8E
:1045C000064E4CEB164C4FF000061EEB074E4CEB24
:1045D000174B18EB0B0840F1000018EB0E0B58EBD3
:1045E000000840F100008F1A4FF000013CBFC943A2
:1045F000661B14BFB5EB040C00213CBFC943F61B7E
:104600004FEA17444EEA8E0E27EA04454FEA1C474C
:1046100004FB07622CEA074C05FB07F70CFB05F6C9
:1046200004FB0CFC16EB074642EB174216EB0C465C
:1046300042EB1C421BEB060658EB0202414146EAE4
:104640009E0601D5BDE80189B619524141EB010131
:10465000A3F10103BDE801894FEA14454FEA114770
:1046600024EA054621EA074C05FB07F406FB07F799
:104670000CFB06F105FB0CFC11EB074144EB174466
:104680004FEA124711EB0C4144EB1C4422EA074C61
:1046900005FB07F206FB07F70CFB06F605FB0CFC17
:1046A00016EB074642EB174216EB0C4642EB1C4555
:1046B0006A1854F1000148BF7047B619524141EBE6
:1046C0000101A3F10103704795F0000F37D04FEAC5
:1046D00011424FEA144721EA024624EA074C02FB42
:1046E00007F106FB07F70CFB06F402FB0CFC14EBCE
:1046F000074441EB17414FEA154714EB0C4441EBDB
:104700001C4125EA074C02FB07F506FB07F70CFBEB
:1047100006F602FB0CFC16EB074645EB174516EBBD
:104720000C4645EB1C42121951F1000148BF70477D
:10473000B619524141EB0101A3F1010370474FEA61
:1047400014454FEA114724EA054621EA074C05FBC8
:1047500007F106FB07F70CFB06F24FF0000605FB1E
:104760000CFC12EB074241EB174112EB0C4251EBF0
:104770001C4148BF7047921841EB0101A3F10103AE
:104780007047490050EAC12018BF04204A0D18BFE5
:1047900040F0010040F2FF72B2EB515F08BF40F001
:1047A0000200012808BF05207047000010B500294D
:1047B0000AD00878002807D005487844FFF7E0FBC6
:1047C000002801D0002010BD0248784410BD000030
:1047D000EA0B0000E20B000010B500290AD00878AF
:1047E000002807D005487844FFF7CAFB002801D00D
:1047F000002010BD0248784410BD0000DA0B000014
:10480000D20B000010B5FFF7FBFB4FF00001016079
:1048100010BDFFF74DB900030306010406020500B1
:1048200003051F1C1F1E1F1E1F1F1E1F1E1F000013
:104830000000000000000000000000000000000078
:1048400038FCFC3800000000000D0D000000000ED8
:104850001E00001E0E00000000000000000020F8F6
:10486000F820F8F82000020F0F020F0F0200387C2A
:10487000444747CC98000306041C1C070300303053
:104880000080C06030000C060301000C0C0080D8D2
:104890007CE4BCD84000070F0808070F0800001090
:1048A0001E0E0000000000000000000000000000DC
:1048B000F0F80C040000000003070C0800000000E2
:1048C000040CF8F000000000080C0703000080A0B2
:1048D000E0C0C0E0A08000020301010302000080EC
:1048E00080E0E08080000000000303000000000082
:1048F0000000000000000000101E0E00000080807C
:104900008080808080000000000000000000000027
:104910000000000000000000000C0C00000000007F
:104920000080C06030000C06030100000000F8FCAD
:1049300004C424FCF800070F0908080F0700001042
:1049400018FCFC0000000008080F0F080800080C05
:1049500084C4643C18000E0F0908080C0C00080CF5
:10496000444444FCB800040C0808080F0700C0E0E9
:10497000B098FCFC8000000000080F0F08007C7C51
:104980004444C4C48400040C0808080F0700F0F86D
:104990004C4444C08000070F0808080F07000C0CA7
:1049A0000484C47C3C0000000F0F00000000B8FC31
:1049B000444444FCB800070F0808080F0700387C7F
:1049C000444444FCF800000808080C0703000000F9
:1049D000003030000000000000060600000000006B
:1049E0000030300000000000080E060000000080CB
:1049F000C0603018080000000103060C08004040A9
:104A00004040404040000202020202020200000850
:104A1000183060C0800000080C0603010000181C5C
:104A200004C4E43C18000000000D0D000000F0F884
:104A300008C8C8F8F000070F080B0B0B0100E0F0E6
:104A4000988C98F0E0000F0F0000000F0F0004FC9E
:104A5000FC4444FCB800080F0F08080F0700F0F8EA
:104A60000C04040C180003070C08080C060004FCD6
:104A7000FC040CF8F000080F0F080C07030004FCFE
:104A8000FC44E40C1C00080F0F08080C0E0004FC8A
:104A9000FC44E40C1C00080F0F0800000000F0F8B4
:104AA0000C84848C980003070C0808070F00FCFC9A
:104AB000404040FCFC000F0F0000000F0F00000002
:104AC00004FCFC0400000000080F0F0800000000B8
:104AD0000004FCFC0400070F08080F07000004FC9A
:104AE000FCC0F03C0C00080F0F00010F0E0004FC8E
:104AF000FC0400000000080F0F08080C0E00FCFC6E
:104B0000387038FCFC000F0F0000000F0F00FCFC99
:104B10003870E0FCFC000F0F0000000F0F00F0F8F1
:104B20000C040CF8F00003070C080C07030004FC4D
:104B3000FC44447C3800080F0F0800000000F8FC1B
:104B4000040404FCF800070F080E3C3F270004FC97
:104B5000FC44C4FC3800080F0F00000F0F00183C85
:104B60006444C49C1800060E0808080F0700001CC7
:104B70000CFCFC0C1C000000080F0F080000FCFCE3
:104B8000000000FCFC00070F0808080F0700FCFCF1
:104B9000000000FCFC000103060C06030100FCFC05
:104BA000008000FCFC00030F0E030E0F03000C3C02
:104BB000F0C0F03C0C000C0F0300030F0C00003C95
:104BC0007CC0C07C3C000000080F0F0800001C0CDB
:104BD00084C4643C1C000E0F0908080C0E00000081
:104BE000FCFC0404000000000F0F080800003870EF
:104BF000E0C0800000000000000103070E0000007C
:104C00000404FCFC0000000008080F0F0000080C62
:104C10000603060C08000000000000000000000071
:104C20000000000000002020202020202020000084
:104C3000030704000000000000000000000000A0C6
:104C4000A0A0E0C00000070F0808070F080004FC40
:104C5000FC2060C08000080F0708080F0700C0E0B4
:104C6000202020604000070F0808080C040080C0C6
:104C70006024FCFC0000070F0808070F0800C0E0D4
:104C8000A0A0A0E0C000070F0808080C040040F82E
:104C9000FC440C180000080F0F0800000000C0E0E2
:104CA0002020C0E02000276F48487F3F000004FC20
:104CB000FC4020E0C000080F0F00000F0F000000B4
:104CC00020ECEC0000000000080F0F0800000000BE
:104CD000000020ECEC0000307040407F3F0004FCFE
:104CE000FC80C0602000080F0F01030E0C000000C4
:104CF00004FCFC0000000000080F0F080000E0E0CA
:104D000060C060E0C0000F0F000F000F0F0020E038
:104D1000C02020E0C000000F0F00000F0F00C0E017
:104D2000202020E0C000070F0808080F070020E03F
:104D3000C02020E0C000407F7F48080F0700C0E08F
:104D40002020C0E02000070F08487F7F400020E0BF
:104D5000C0602060C000080F0F080000000040E0A5
:104D6000A02020604000040C09090B0E0400202044
:104D7000F8FC202000000000070F080C0400E0E011
:104D80000000E0E00000070F0808070F080000E03F
:104D9000E00000E0E0000003070C0C070300E0E087
:104DA000000000E0E000070F0C070C0F0700206078
:104DB000C080C0602000080C0703070C0800E0E07A
:104DC000000000E0E000474F4848683F1F00606077
:104DD00020A0E06020000C0E0B09080C0C00004025
:104DE00040F8BC040400000000070F0808000000A1
:104DF00000BCBC0000000000000F0F000000000419
:104E000004BCF84040000008080F07000000080C30
:104E1000040C080C0400000000000000000080C02A
:104E2000603060C0800007070404040707001022F8
:104E3000640C8008494A4CF84C4A490800000404B4
:104E4000FE010404040404FF04040406040010101A
:104E5000D0FF50902040FF00FF40203000000403AE
:104E600000FF8044221907003F414640700000F8CF
:104E700048484848FF48484848FC080000000007E8
:104E8000020202023F4242424247407000008080DC
:104E90008282828282E2A2928A8680C080000000A2
:104EA00000000040807F00000000000000000000C3
:104EB00000000000000000000000000000000000F2
:104EC00000000000000000000000000000000000E2
:104ED00000000000000000000000000000000000D2
:104EE00000000000000000000000000000000000C2
:104EF00000000000000000000000000000000000B2
:104F000000000000000000000000000000000000A1
:104F10000000000000000000000000000000000091
:104F20000000000000000000000000000000000081
:104F30000000000000000000000000000000000071
:104F400000000000000000F8FC1C3830381CFCF8A1
:104F500000F8F800F8F8000000F8FC8C8C8C008059
:104F6000D050F0E000F0F020300000808000808021
:104F700000808000000C1224120C000000000000D1
:104F80000000800000000000000018244488442431
:104F900018000000000000000000000000000000F9
:104FA0000000000000000000000000000000000001
:104FB00000000000000000000000000000000000F1
:104FC00000000000000000038380008080000303D5
:104FD00000080B0B0F078040804083030303000091
:104FE0000303030300038380808080C3C3C0C3C363
:104FF000C0C3C3C0C0C0C0C0808080C0C040201833
:10500000040300000000002050A050200000000019
:105010000000000000000000000000000000000090
:105020000000000000000000000000000000000080
:105030000000000000000000000000000000000070
:105040000000000000000003040811080403000031
:10505000000000000000010284C2E160301078EC22
:10506000FCF63A1B05859713121313111111111138
:10507000110181FFF9F9F2C2822225058D8B93B3CC
:10508000E6C68C1C18387070E0C08000000000007C
:105090000018244824180000000000000000000050
:1050A0000000000000000000000000000000000000
:1050B00000000000000000000000000000000000F0
:1050C000000000000000000080E0E0703018181CB4
:1050D0001C1C0C1C1616160627636DAECE0E0E0F8A
:1050E0000F0F0E0606070706060606060606060644
:1050F0000666776767E7070707060606070787C795
:105100006723231210000808090B0F0E0E0C3C70C9
:10511000F0C080000000000000000000000000005F
:10512000000000000000000000000000000000007F
:10513000000000000000000000000000000000006F
:1051400000000000F0F8DEFFF63611E0F0F8FCFE9B
:10515000DE1E3F3F1EFEFEFCF8F2E4080107FC00E5
:10516000000000000000000000000000000000003F
:105170000000000000FF00000000003CFFE7311CC1
:10518000E6FFFFFFFEFE1F3F3F1FFFFEFEFCF8F89D
:10519000F031FBFFFEFC38000000000000000000C2
:1051A00000000000000000000000000000000000FF
:1051B00000000000000000000000000000000000EF
:1051C000000000000003074F4C60607F7F7F7F7D01
:1051D0004D44727240797D7F7F7F7F7C70707373E6
:1051E0007070747474747474747474747474767683
:1051F0007676767676737070727272737070707C79
:105200007F7F7F7F7D7D62727260687D7F7F7F7F21
:105210007774676763000000000000000000000072
:10522000000000000000000000000000000000007E
:10523000000000000000000000000000000000006E
:10524000000000000000000000000000000000005E
:10525000000000000000000000000000000000004E
:10526000000000000000000000000000000000003E
:10527000000000000000000000000000000000002E
:10528000000000000000000000000000000000001E
:10529000000000000000000000000000000000000E
:1052A00000000000000000000000000000000400FA
:1052B00000080000000000000002000100001000D3
:1052C0000000000000000000303132333435363742
:1052D000383941424344454640305800303132333A
:1052E000343536373839616263646566403078003A
:1052F00002400000000000A0000000000540000087
:10530000000000C8000000000C4000000000409CAD
:1053100000000000194000000020BCBE000000009A
:1053200034400000BFC91B8E00000004B5400000DF
:10533000504BCFD06607E2CF010000006C41000067
:105340003E8251AADFEEA73401000000D9420000DE
:10535000DCB5A0E23A301F97FFFFFFFFB445000025
:10536000FD25A0C8E9A3C14FFFFFFFFFFF3F0000DD
:105370000000008000000000FF3F000000000080EF
:1053800000000000D0540008000000204000000091
:10539000280100081055000840000020F007000018
:1053A000440100081C00000043000000F8FFFFFF5C
:1053B0000C0000000E0000000F0000002E00000096
:1053C0001001000043000000F8FFFFFF00404040D4
:1053D00040404040404041414141414040404040C8
:1053E0004040404040404040404040404005020274
:1053F0000202020202020202020202020220202033
:10540000202020202020200202020202020290908E
:10541000909090901010101010101010101010108C
:1054200010101010101010100202020202028888E0
:1054300088888888080808080808080808080808EC
:1054400008080808080808080202020240000000D4
:10545000000000000000000000000000000000004C
:10546000000000000000000000000000000000003C
:10547000000000000000000000000000000000002C
:10548000000000000000000000000000000000001C
:10549000000000000000000000000000000000000C
:1054A00000000000000000000000000000000000FC
:1054B00000000000000000000000000000000000EC
:1054C00000000000000000000000000000000000DC
:1054D00000A24A04000000000000000001020304D2
:1054E000060708090000000001020304010203048A
:1054F000060708090204060800000000000000007A
:10550000000000000000000000000000000000009B
:04000005080000ED02
:00000001FF
