:020000040000FA
:10000000680400209D010000B70100009502000077
:1000100000000000000000000000000000000000E0
:10002000000000000000000000000000BB01000014
:100030000000000000000000BD01000031030000CE
:10004000F1020000F9020000010300000D030000AE
:100050008102000015050000350500004105000083
:10006000C9020000D10200002103000029030000A2
:10007000A5020000AD020000FD040000050500001F
:100080000D050000BD0200001D0500002505000053
:100090002D050000E10200006105000019030000C9
:1000A0006D020000E90200004D050000550500004A
:1000B000D9020000B50200008902000079020000A8
:1000C00000F002F800F03EF80CA030C80838241800
:1000D0002D18A246671EAB4654465D46AC4201D180
:1000E00000F030F87E460F3E0FCCB6460126334274
:1000F00000D0FB1AA246AB4633431847EC0400007D
:100100000C050000103A02D378C878C1FAD852071B
:1001100001D330C830C101D504680C6070470000BD
:100120000023002400250026103A01D378C1FBD813
:10013000520700D330C100D50B6070471FB51FBDFB
:1001400010B510BD00F059F81146FFF7F7FF00F0A9
:1001500086F800F071F803B4FFF7F2FF03BC00F07B
:1001600077F8000070B505460C46164602E00FCC45
:100170000FC5103E102EFAD2082E02D303CC03C5B1
:10018000083E042E07D301CC01C5361F03E02178B9
:100190002970641C6D1C761EF9D270BD0C480D4A86
:1001A000002100A1814200D902440B4802600B48A3
:1001B00080470B480047FEE7FEE7FEE7FEE7FEE765
:1001C000FEE7000007480849084A094B704700004D
:1001D000000000200000000008ED00E0BD04000069
:1001E000C1000000680000206804002068020020B0
:1001F00068020020704770477047754600F024F889
:10020000AE46050069465346C008C000854618B092
:1002100020B5FFF7D7FF60BC00274908B646002687
:10022000C0C5C0C5C0C5C0C5C0C5C0C5C0C5C0C5A6
:10023000403D49008D46704710B50446C046C04653
:100240002046FFF788FF10BD0048704704000020DB
:1002500001491820ABBEFEE726000200704710B52A
:1002600000F02CF900F0B2F9002010BD10B5C04626
:10027000C046C046C04610BD10B5C046C04610BD01
:1002800010B5C046C04610BD10B5C046C046C046F9
:10029000C04610BD08B50020009000BF009800289F
:1002A000FCD008BD10B5C046C04610BD10B5C04654
:1002B000C04610BD10B5C046C04610BD10B5C04602
:1002C000C046C046C04610BD10B5C046C04610BDB1
:1002D00010B5C046C04610BD10B5C046C04610BDE2
:1002E00010B5C046C04610BD10B5C046C04610BDD2
:1002F00010B5C046C04610BD10B5C046C04610BDC2
:1003000010B5C046C046C046C04610BD10B5C04678
:10031000C046C046C04610BD10B5C046C04610BD60
:1003200010B5C046C04610BD10B5C046C04610BD91
:1003300010B5C046C04610BD30B589B000241422A7
:10034000564904A8FFF70EFF544814300068039084
:100350000020009001900290514801886846018178
:100360004F4841886846C1804D48818868468180F1
:100370004B48C1886846418049482030018868461A
:100380000180484800680006450F2B0000F010F976
:1003900005042E303E4178004248C0684005400DBB
:1003A00069460989884201D1089C1EE03D48C06821
:1003B0004005400D6946C988884201D1079C14E078
:1003C0003848C0684005400D69468988884201D197
:1003D000069C0AE03348C0684005400D69464988DC
:1003E000884201D1059C00E0049C4BE02E4C49E082
:1003F000684600882B4949698905890D884202D1E0
:100400006846C48901E0684684893BE00124E4032E
:1004100038E02448C06B8007800F032829D1684644
:1004200000892049C9684905490D884201D1089CC5
:1004300020E06846C0881B49C9684905490D8842C3
:1004400001D1079C16E0684680881649C9684905AD
:10045000490D884201D1069C0CE06846408811494C
:10046000C9684905490D884201D1059C02E0049CF8
:1004700000E00D4C0B48C06BC005000F444301E089
:10048000002400BF00BF074800684005410F204618
:10049000C8400446204609B030BD0000D005000029
:1004A000000C1000002000400048E80110B5FFF7E4
:1004B00043FF0149086010BD0000002010B50D4940
:1004C00049888805800D0C494969890A89020143D8
:1004D000094A51610749203909894805400D1146EB
:1004E000C968C90AC9020143D160FFF7DFFF00F004
:1004F0003BF810BD200C10000020004010B5C04695
:10050000C04610BD10B5C046C04610BD10B5C046AF
:10051000C04610BD10B5C046C04610BD10B5C0469F
:10052000C04610BD10B5C046C04610BD10B5C0468F
:10053000C04610BD10B5C046C046C046C04610BD3E
:1005400010B5C046C046C046C04610BD10B5C04636
:10055000C04610BD10B5C046C046C046C04610BD1E
:1005600010B5C046C04610BD0E49086A096A01228E
:100570001207914389180B4A11620B49C9680B4A4B
:100580001140094AD16011460968B0221143064A58
:1005900011601146096AB0221143034A11620149F0
:1005A0000862704700200040401D02404FFF0000DD
:1005B00030B47446641E2578641CAB4204D3635D7A
:1005C0005B00E31830BC18471D46F8E700BFFEE7A4
:1005D00000093D0000127A000024F4004086510119
:1005E00000366E0100800096080600000000002022
:1005F00004000000040100000C06000004000020BC
:0C060000640400002001000000093D001F
:04000005000000C136
:00000001FF
