:020000040800F2
:1000000088060020011500089516000897160008BC
:100010009B1600089F160008A316000800000000A9
:10002000000000000000000000000000A71600080B
:10003000A916000800000000AB160008AD16000865
:100040001B1500081B1500081B1500081B150008D0
:100050001B1500081B1500081B1500081B150008C0
:100060001B1500081B1500081B1500081B150008B0
:100070001B1500081B1500081B1500081B150008A0
:100080001B1500081B1500081B1500081B15000890
:100090001B1500081B1500081B1500081B15000880
:1000A0001B1500081B1500081B1500081B15000870
:1000B0001B1500081B1500081B1500081B15000860
:1000C0001B1500081B1500081B1500081B15000850
:1000D0001B1500081B1500081B1500081B15000840
:1000E0001B1500081B1500081B15000800F002F87E
:1000F00000F03CF80AA090E8000C82448344AAF186
:100100000107DA4501D100F031F8AFF2090EBAE883
:100110000F0013F0010F18BFFB1A43F0010318473B
:100120005029000070290000103A24BF78C878C117
:10013000FAD8520724BF30C830C144BF04680C60ED
:10014000704700000023002400250026103A28BF35
:1001500078C1FBD8520728BF30C148BF0B60704739
:100160001FB501F03EFF1FBD10B510BD01F0FDFE33
:100170001146FFF7F5FF01F0E3F901F01BFF03B4AF
:10018000FFF7F2FF03BC01F025FF00000021002073
:10019000674A126842F48032654B1A6000BF644AB5
:1001A000126802F40030491C10B9B1F5A06FF6D105
:1001B0005F4A126812F4003F01D0012000E00020E5
:1001C000012842D15B4A126842F01002594B1A6072
:1001D0001A46126822F003021A601A46126842F0A8
:1001E00002021A60524A5268514B5A601A465268CB
:1001F0005A601A46526842F480625A601A4652683F
:1002000022F47C125A601A46526842F4E8125A608C
:100210001A46126842F080721A6000BF444A12689F
:1002200012F0007FFAD0424A526822F00302404B9B
:100230005A601A46526842F002025A6000BF3C4AB5
:10024000526802F00C02082AF9D1704710B5FFF786
:100250009DFF10BD10B53648006840F001003449DC
:1002600008600846406834490840314948600846FB
:100270000068324908402E4908600846006820F4AA
:10028000802008600846406820F4FE0048604FF473
:100290001F008860FFF7DAFF4FF000602849086010
:1002A00010BD10B5002100200022214B5B6803F037
:1002B0000C0121B1042906D0082928D107E0214BDF
:1002C000214C236027E01F4B1F4C236023E0184B79
:1002D0005B6803F47010164B5B6803F480320223F2
:1002E00003EB904022B9194B4343174C23600DE0B8
:1002F0000F4B5B6813F4003F04D0144B4343124C84
:10030000236003E00F4B43430F4C236003E00D4B8E
:100310000D4C236000BF00BF054B5B68C3F30313A4
:100320000B4CE15C084B1B68CB40074C236010BDB5
:1003300000100240002002400000FFF8FFFFF6FE20
:1003400008ED00E000127A000000002000093D00E6
:100350000400002036490143364A1160704770B5E9
:10036000002100230F22C4784CB3324C246804F4DB
:10037000E064C4F5E0644FEA1421C1F1040322FAF9
:1003800001F2447804FA03F1847804EA020444EAAE
:1003900001014FEA0111284C0678A155047804F0B8
:1003A0001F054FF0010404FA05F405784FEA6515BE
:1003B0004FF0E02606EB8505C5F8004109E004781A
:1003C00004F01F050124AC401C4D0678761145F859
:1003D000264070BD1A4A0A4002431A4B1A60704701
:1003E00041B1194A126842EA00024FF0E023C3F813
:1003F000102D07E0144A126822EA00024FF0E023B1
:10040000C3F8102D7047042808D14FF0E021096986
:1004100041F004014FF0E022116107E04FF0E021CC
:10042000096921F004014FF0E022116170470000DA
:100430000000FA050CED00E000E400E080E100E0DF
:1004400080FFFF1F08ED00E010ED00E010B504464E
:10045000CA48844208D10121042000F024FB002175
:10046000042000F020FB46E0C548844208D1012169
:10047000082000F018FB0021082000F014FB3AE0EF
:10048000C048844208D10121102000F00CFB00215B
:10049000102000F008FB2EE0BB48844208D1012167
:1004A000202000F000FB0021202000F0FCFA22E0D8
:1004B000B648844208D10121402000F0F4FA00211E
:1004C000402000F0F0FA16E0B148844208D1012142
:1004D000802000F0E8FA0021802000F0E4FA0AE031
:1004E000AC48844207D10121801500F0DCFA0021DC
:1004F000A01500F0D8FA10BD10B50121084600F093
:10050000D2FA0021012000F0CEFA10BD2DE9F04111
:10051000024600250026002000230024002791F831
:1005200003C00CF00F0591F803C01CF0100F03D0AE
:1005300091F802C04CEA0505B1F800C01CF0FF0FAD
:1005400031D0146800202BE04FF0010C0CFA00F3BE
:10055000B1F800C00CEA03069E4220D183004FF0A0
:100560000F0C0CFA03F7BC4305FA03FC4CEA040435
:1005700091F803C0BCF1280F06D14FF0010C0CFA22
:1005800000FCC2F814C00AE091F803C0BCF1480FA7
:1005900005D14FF0010C0CFA00FCC2F810C0401C51
:1005A0000828D1D31460B1F800C0BCF1FF0F34DDCE
:1005B000546800202EE000F1080C4FF0010808FA02
:1005C0000CF3B1F800C00CEA03069E4221D183006F
:1005D0004FF00F0C0CFA03F7BC4305FA03FC4CEA8E
:1005E000040491F803C0BCF1280F05D100F1080CF8
:1005F00008FA0CF8C2F8148091F803C0BCF1480F57
:1006000007D100F1080C4FF0010808FA0CF8C2F805
:100610001080401C0828CED35460BDE8F0814FF60E
:10062000FF710180022181700421C1707047024670
:10063000002093680B4201D0012000E000207047A9
:100640000146886880B2704702460020D3680B429A
:1006500001D0012000E0002070470146C86880B248
:10066000704701617047416170470AB1016100E064
:1006700041617047C16070474FF480320A43826124
:100680008161826182698269704702460020424B23
:1006900018684FF68073184040EA021008433E4B3A
:1006A000186070473D49C8617047F0B50A4600239D
:1006B00000240021002500F00046B6F1004F02D1D1
:1006C000354EF16901E0344E7168C0F3034583B2E1
:1006D00000F44016B6F5401F08D121F070612E4E8F
:1006E000766826F070662C4F7E6012E000F480166B
:1006F000B6F5801F06D1032606FA05F4A14341F0A2
:10070000706106E0460D360103FA06F6B14341F08A
:10071000706122B1460D360103FA06F6314300F04E
:100720000046B6F1004F02D11B4EF16101E01A4EB6
:100730007160F0BD30B500228B071C0F0F2303FA48
:1007400004F2154B08338C1053F824309343124CA9
:1007500008348D1044F8253023468C1053F824308B
:100760008C07240F00FA04F423430B4C08348D103B
:1007700044F8253030BD0A49086070470008014040
:10078000000C01400010014000140140001801401D
:10079000001C0140002001400000014000002042F8
:1007A000DC002042DB48006840F00100D9490860C5
:1007B00008464068D8490840D6494860084600685D
:1007C000D6490840D34908600846006820F48020D4
:1007D00008600846406820F4FE0048604FF41F009F
:1007E00088607047CB49096821F48031C94A11609B
:1007F0001146096821F480211160B0F5803F03D0D3
:10080000B0F5802F0ED106E0C249096841F480316D
:10081000C04A116007E0BF49096841F4A021BD4A00
:10082000116000E000BF00BF704710B50146002214
:10083000002300204A11012A02D1B64C236806E0A9
:10084000022A02D1B34C236A01E0B24C636A01F080
:100850001F02012494401C4201D0012000E000202E
:1008600010BD70B500240025002600BF3120FFF721
:10087000DCFF0646641CB4F5A06F01D0002EF5D055
:100880003120FFF7D2FF08B1012500E000252846FE
:1008900070BD014600209F4A106820F0F80040EA31
:1008A000C100106070479E490860704702460020F2
:1008B000984B586820F47C1042EA01031843954B8A
:1008C0005860704796490866704701460020914A73
:1008D000506820F003000843506070478D4840681E
:1008E00000F00C007047014600208A4A506820F052
:1008F000F00008435060704701460020854A506868
:1009000020F4E06008435060704701460020814AAF
:10091000506820F4605040EAC1005060704729B12F
:100920007C4A527A02437B4B5A7206E0794A527AE9
:10093000C343DBB21A40774B5A727047794908605B
:10094000704701460020734A506820F44040084335
:10095000506070470021744A11706E4A82F820106E
:10096000012802D0042808D103E001216E4A117049
:1009700004E005216C4A117000E000BF00BF704721
:100980006A49086070476349096A0143614A116214
:10099000704767490860704730B500210022002485
:1009A00000235C4D6D6805F00C0121B1042905D0D0
:1009B000082923D105E05F4D056022E05D4D05600B
:1009C0001FE0544D6D6805F47012524D6D6805F4CA
:1009D0008034022505EB92421CB9574D5543056002
:1009E0000BE04C4D6D6815F4003F03D0524D55435C
:1009F000056002E04F4D5543056002E04D4D056036
:100A000000BF00BF434D6D6805F0F00109094B4D73
:100A10006B5C0568DD4045603E4D6D6805F4E06146
:100A2000090A464D6B5C4568DD408560394D6D684F
:100A300005F46051C90A414D6B5C4568DD40C560F5
:100A4000344D6D6805F44041890B3D4D6B5CC568C4
:100A5000B5FBF3F5056130BD29B12E4A5269024359
:100A60002C4B5A6104E02B4A52698243294B5A614C
:100A7000704729B1274A92690243264B9A6104E0E4
:100A8000244A92698243234B9A61704729B1214AD3
:100A9000D26902431F4BDA6104E01E4AD2698243E5
:100AA0001C4BDA61704729B11A4AD2680243194BCC
:100AB000DA6004E0174AD2688243164BDA60704766
:100AC00029B1144A12690243124B1A6104E0114A17
:100AD000126982430F4B1A6170471A4908607047C8
:100AE0000F49C86470470B49C87170470948406A8C
:100AF00040F0807007494862704701460020054A6F
:100B000092680A4201D0012000E0002070470149AC
:100B100088727047001002400000FFF8FFFFF6FEE9
:100B200000004242D800424220100240800442426B
:100B30003C04424200127A0000093D0014000020EB
:100B4000240000204004424210B50446F648844286
:100B500009D101214805FFF7B3FF00214FF4001030
:100B6000FFF7AEFF08E001218805FFF7A9FF00218C
:100B70004FF48000FFF7A4FF10BD2DE9F04385B0CE
:100B800004460D460026B1460427DFF8A083A68858
:100B90004FF6C0710E406846FFF7FEFEDDF8088094
:100BA000E348B8FBF0F01FFA80F946EA0906A68090
:100BB00020884FF6FE71084020800026DD49286815
:100BC00088420CD828684000B8FBF0F087B2042FA8
:100BD00000DA04273E4309F10100208427E0E88879
:100BE000A0F53F41FF3906D1286800EB4000B8FB73
:100BF000F0F087B209E0286800EBC00101EB0010BB
:100C0000B8FBF0F087B247F480473805000D01D1FA
:100C100047F0010747F4004006434FF4967009FB84
:100C200000F04FF47A7190FBF1F0401C2084A68311
:100C3000208840F00100208026884FF6F5310E40D4
:100C4000A8886989084306432680A889298908431A
:100C5000208105B0BDE8F08341F2883101600021B8
:100C600081804BF6FF71C1800021018141814FF4E9
:100C700080418181704721B1028842F001020280E7
:100C800004E002884FF6FE731A400280704721B1DB
:100C9000828842F40062828004E082884FF2FF730F
:100CA0001A408280704721B1828842F4805282804B
:100CB00004E082884EF6FF731A408280704721B1AB
:100CC000028842F48072028004E002884FF6FF63DB
:100CD0001A400280704721B1028842F400720280FB
:100CE00004E002884FF6FF531A400280704721B19A
:100CF000028842F48062028004E002884FF6FF33EB
:100D00001A40028070470A46002181894FF601731C
:100D1000194002F0FE0319438181704721B1828995
:100D200042F00102828104E082894FF6FE731A408C
:100D30008281704721B1028842F04002028004E0C3
:100D400002884FF6BF731A400280704710B51AB17F
:100D500083880B43838004E08388CC43A4B2234080
:100D6000838010BD018270470146088AC0B2704777
:100D700012B141F0010102E04FF6FE731940018209
:100D800070470246002313460B441888704721B170
:100D9000028842F40042028003E00288C2F30E029D
:100DA00002807047B1F5006F04D1028842F40062FE
:100DB000028004E002884FF2FF731A4002807047FD
:100DC000B1F5005F04D1028842F40052028004E0D1
:100DD00002884DF6FF731A400280704721B10288E5
:100DE00042F48052028004E002884EF6FF731A40FB
:100DF00002807047B1F5006F04D1028842F40062AE
:100E0000028004E002884FF2FF731A4002807047AC
:100E100021B1028842F02002028004E002884FF6ED
:100E2000DF731A40028070470146088B001270473A
:100E300021B1028842F01002028004E002884FF6DD
:100E4000EF731A400280704721B9028842F0800295
:100E5000028004E002884FF67F731A4002807047D8
:100E6000B1F5804F05D0828B4BF6FF731A40828319
:100E700003E0828B42F480428283704770B5024661
:100E80000024002500230020958A138B1B0445EACB
:100E9000030626F07F4404EA01068E4201D10120B8
:100EA00000E0002070BD10B50146002000230022A4
:100EB0008B8A0A8B120443EA020424F07F4010BD9F
:100EC00030B503460020002400221A460C0F21F002
:100ED0007F410CB1143201E0090C183215680D4243
:100EE00001D0012000E0002030BD002221F07F422F
:100EF000D3438382704730B5024600200023948894
:100F000001F0E06504EA154321F07F41948A0C4228
:100F100002D00BB1012000E0002030BD002221F002
:100F20007F42D343838270470054004000127A000E
:100F300040420F00A086010001460020FF4A1068D1
:100F400000F03800084310607047FC49096821F040
:100F50000801FA4A1160114609680143116070479F
:100F6000F649096821F01001F44A11601146096838
:100F7000014311607047F248F0494860F148486009
:100F80007047EF48ED494860EE4848607047EB48CD
:100F9000006940F08000E94908617047E74800694E
:100FA00040F08000E549086170470420E349C968C2
:100FB00001F00101012901D101200EE0DF49C968DA
:100FC00011F0040F01D0022007E0DC49C96811F0DC
:100FD000100F01D0032000E00420704700B5024646
:100FE0000423FFF7E2FF034603E0FFF7DEFF0346BB
:100FF000521E012B01D1002AF7D102B90523184650
:1010000000BD30B5044604254FF43020FFF7E6FF5D
:101010000546042D17D1C948006940F00200C749B0
:10102000086108464461006940F0400008614FF4DF
:101030003020FFF7D3FF0546C048006941F6FD7137
:101040000840BE490861284630BD10B504244FF45D
:101050003020FFF7C3FF0446042C16D1B7480069BF
:1010600040F00400B54908610846006940F04000BE
:1010700008614FF43020FFF7B1FF0446AF48006924
:1010800041F6FB710840AD490861204610BD00B52E
:1010900002460423FFF789FF034603E0FFF785FFBD
:1010A0000346521E012B01D1002AF7D102B90523B4
:1010B000184600BD10B504244FF43020FFF7E7FFB9
:1010C0000446042C16D19D48006940F004009B4959
:1010D00008610846006940F0400008614FF4302084
:1010E000FFF7D5FF04469548006941F6FB710840BB
:1010F00092490861204610BD00209049C96911F04D
:10110000020F01D0012000E00020704730B5A52576
:101110000424FFF7F1FF00B100254FF43020FFF762
:101120005DFF0446042C3BD185488449886085488E
:1011300088600846006940F02000086108460069A0
:1011400040F0400008614FF43020FFF747FF0446AD
:10115000042C1CD17948006941F6DF7108407749B9
:1011600008610846006940F0100008617648058073
:101170004FF40050FFF732FF0446052C10D06F48A3
:10118000006941F6EF7108406C49086108E0052CE0
:1011900006D06A48006941F6EF7108406749086166
:1011A000204630BDF0B504460D4604260027F00267
:1011B000FFF714FF0646042E22D16048006940F074
:1011C00001005E4908612580F002FFF707FF06462F
:1011D000042E0ED1A71C280C3880F002FFF7FEFE6B
:1011E00006465648006941F6FE71084053490861B9
:1011F00006E05248006941F6FE7108404F49086117
:101200003046F0BD70B504460D460426F002FFF7E7
:10121000E5FE0646042E11D14848006940F0010061
:10122000464908612580F002FFF7D8FE064643488C
:10123000006941F6FE71084040490861304670BDC2
:1012400070B505460E460424E002FFF7C7FE0446CB
:10125000042C17D13A48394988603A4888600846D2
:10126000006940F0100008612E80E002FFF7B6FE32
:101270000446052C06D03148006941F6EF7108405C
:101280002E490861204670BD2DE9F04304464FF613
:10129000FF763746B046B1460425E443E6B2C4F3D0
:1012A0000727C4F307484FEA1469E802FFF796FEE0
:1012B0000546042D3ED12248204988602148886097
:1012C0000846006940F010000861FF2E06D01F4854
:1012D00006804FF40050FFF781FE0546042D08D12B
:1012E000FF2F06D01A4807804FF40050FFF776FE14
:1012F0000546042D09D1B8F1FF0F06D01548A0F816
:101300000C88E802FFF76AFE0546042D09D1B9F101
:10131000FF0F06D00F48A0F80E98E802FFF75EFE18
:101320000546052D06D00548006941F6EF710840D5
:10133000024908612846BDE8F08300000020024011
:1013400023016745AB89EFCD00F8FF1F08F8FF1FA9
:101350000AF8FF1F00F0FF1F30B5054604244FF4C4
:101360003020FFF73BFE0446042C41D15F48604922
:101370008860604888600846006940F02000086185
:101380000846006940F0400008614FF43020FFF744
:1013900025FE0446042C22D15548006941F6DF7130
:1013A0000840534908610846006940F01000086190
:1013B0001DB100205049088002E0A5204E49088058
:1013C0004FF43020FFF70AFE0446052C10D04848A1
:1013D000006941F6EF7108404549086108E0052CB5
:1013E00006D04348006941F6DF7108404049086172
:1013F000204630BDF0B505460E46174604243B484E
:101400003B4988603B488860E002FFF7E7FD0446FF
:10141000042C19D13648006940F0100034490861A5
:1014200047F0F80030432843344908804FF4005017
:10143000FFF7D4FD0446052C06D02D48006941F67F
:10144000EF7108402A4908612046F0BD2848C0696C
:10145000800870472648006A7047002024490968C0
:1014600011F0200F01D0012000E00020704729B1C9
:101470001F4A126902431E4B1A6104E01C4A12699A
:1014800082431B4B1A61704701460020012908D195
:10149000174AD26912F0010F01D0012008E00020A4
:1014A00006E0134AD2680A4201D0012000E0002081
:1014B00070470F49C860704704200D49C96801F0A2
:1014C0000101012901D101200EE00949C96811F08B
:1014D000040F01D0022007E00549C96811F0100F80
:1014E00001D0032000E0042070470000230167457D
:1014F00000200240AB89EFCD00F8FF1F02F8FF1F6C
:101500000948804709480047FEE7FEE7FEE7FEE797
:10151000FEE7FEE7FEE7FEE7FEE7FEE704480549D3
:10152000054A064B7047000055020008ED00000810
:101530008800002088060020880200208802002001
:1015400008B54FF47A7000F0C8F800F0E6F800F043
:1015500097FA00F02CF900F007FB30A1002000F012
:1015600063FB33A1022000F05FFB00F090FC40B968
:1015700034A1042000F058FB37A1062000F054FBF2
:1015800003E03AA1042000F04FFB4FF47A7000F022
:10159000A4F841E0684600F084FCA0BB9DF8000080
:1015A0000A2190FBF1F0303084B222464821042019
:1015B00000F0EFFA9DF800000A2190FBF1F201FB28
:1015C0001200303084B222465021042000F0E1FAAB
:1015D0009DF801000A2190FBF1F0303084B22246E0
:1015E0006021062000F0D5FA9DF801000A2190FB49
:1015F000F1F201FB1200303084B22246682106204D
:1016000000F0C7FA04E0FFE71DA1062000F00CFB84
:101610004FF47A7000F061F8BCE7000020202059F8
:101620006F756E6754616C6B2020202000000000F5
:101630002020204448543131205445535420202048
:101640000000000048756D69646974793A202020B3
:10165000252020200000000054656D7065726174C3
:101660007572653A20202043000000004448543140
:1016700031494E4954204552524F5221000000003A
:10168000444854313152454144204552524F522131
:1016900000000000704700BFFEE700BFFEE700BF8C
:1016A000FEE700BFFEE7704770477047704700EBEA
:1016B000C001C9004FF0E022516100219161052174
:1016C000116100BF4FF0E021096911F4803FF9D0AA
:1016D00004214FF0E0221161704700B5034603E09A
:1016E0004FF47A70FFF7E3FF1800A3F101018BB20A
:1016F000F6D100BD10B5044603E04FF47A70FFF751
:10170000ECFF2000A4F101018CB2F6D110BD10B5A0
:101710004FF4A060FEF71EFE10BD10B5FFF742F8B3
:101720004FF48030FFF75EF8FFF79BF80446012C7A
:1017300024D14FF4E0110004FFF7B8F80020FFF7C0
:10174000D2F8A002FFF7D8F80020FFF7DEF8022059
:10175000FFF7F2FB1020FFF703FC0120FFF7B2F8C0
:1017600000BF3920FFF761F80028FAD00220FFF708
:10177000ACF800BFFFF7B2F80828FBD110BD00009D
:1017800008B501211C20FFF774F901214805FFF776
:101790007DF9C020ADF800001C208DF80300032067
:1017A0008DF802006946B148FEF7B0FE08BD1FB5CE
:1017B000FFF7E6FF0020ADF804004BF6FF70ADF830
:1017C0000600C020ADF808004FF48060ADF80A00B4
:1017D0000001ADF80C00A64800906946A548FFF747
:1017E000CCF90121A348FFF746FA1FBD2DE9F041CE
:1017F00005460F4614461E4601219E48FFF75FFA34
:1018000000BF9D499B48FFF739FB0028F9D0002213
:1018100029469848FFF7ACFA00BF98499548FFF76A
:101820002DFB0028F9D039469248FFF79BFA00BFFC
:101830009249891C8F48FFF721FB0028F8D00CE063
:1018400021788C48FFF78EFA641C00BF8B49891CF5
:101850008848FFF713FB0028F8D03000A6F10101FB
:101860008EB2EDD101218348FFF735FABDE8F08152
:1018700070B504460E46154601217E48FFF71FFA53
:1018800000BF7D497B48FFF7F9FA0028F9D0002214
:1018900021467848FFF76CFA00BF78497548FFF792
:1018A000EDFA0028F9D031467248FFF75BFA00BF25
:1018B0007249891C6F48FFF7E1FA0028F8D02946E1
:1018C0006C48FFF74FFA00BF6C49891C6948FFF765
:1018D000D5FA0028F8D001216648FFF7FCF970BD61
:1018E0002DE9F04106460F4615461C4600BF4FF451
:1018F00000316048FFF7E4FA0028F8D101215D4883
:10190000FFF7DDF900BF5C495A48FFF7B7FA002836
:10191000F9D0002231465748FFF72AFA00BF57494D
:101920005448FFF7ABFA0028F9D001215148FFF7DE
:10193000A2F939464F48FFF715FA00BF4F49891CF5
:101940004C48FFF79BFA0028F8D001214948FFF7DF
:10195000B6F900BF48494748FFF790FA0028F9D088
:10196000012231464348FFF703FA00BF4249491CB0
:101970004048FFF783FA0028F8D016E0012C07D181
:1019800000213C48FFF7B3F901213A48FFF7A3F9DA
:1019900039493F313748FFF771FA30B13548FFF721
:1019A000E3F928706D1C601E84B2002CE6D1012181
:1019B0003048FFF79CF9BDE8F08170B504460D464C
:1019C00000BF4FF400312B48FFF77AFA0028F8D116
:1019D00001212848FFF773F900BF27492548FFF781
:1019E0004DFA0028F9D0002221462248FFF7C0F91D
:1019F00000BF22491F48FFF741FA0028F9D0012112
:101A00001C48FFF738F929461A48FFF7ABF900BF21
:101A10001A49891C1748FFF731FA0028F8D001212C
:101A20001448FFF74CF900BF13491248FFF726FA94
:101A30000028F9D0012221460E48FFF799F900BF8E
:101A40000D49491C0B48FFF719FA0028F8D000216E
:101A50000848FFF74CF901210648FFF73CF9054813
:101A6000FFF782F90646304670BD0000000C0140C9
:101A7000400D0300005400400100030082000700F5
:101A800008B501217C20FEF7F4FF01210846FEF78E
:101A9000F0FF4FF4C040ADF8000010208DF80300B7
:101AA00003208DF8020069460F48FEF72FFD012143
:101AB0000E48FEF7FAFD4FF4C0410B48FEF7D3FD88
:101AC00008BD10B5044622464FF480410648FEF793
:101AD000CCFD10BD10B5044622464FF4005102481B
:101AE000FEF7C3FD10BD00000008014000043000F7
:101AF00000B587B01C228FA1684600F001FA1C23B4
:101B00006A4600217820FFF771FE07B000BD70B56E
:101B1000B0241BE0224600217820FFF7A9FE102206
:101B200000217820FFF7A4FE002211467820FFF75D
:101B30009FFE002506E0002240217820FFF798FE56
:101B4000681CC5B2842DF6DB601CC4B2B82CE1DB86
:101B500070BD08B57EA00068009003236A4600218E
:101B60007820FFF743FE08BD10B5FFF7F2FFFFF73F
:101B7000CEFFFFF7BDFF10BD10B504468122002146
:101B80007820FFF775FE224600217820FFF770FECF
:101B900010BD2DE9F04705460C4616464FF0000AE9
:101BA000A01CC4B2D1463AE005F1B000C2B2002197
:101BB0007820FFF75DFE2746E01704EB1070001158
:101BC00000F1100200217820FFF752FEE01704EB2D
:101BD00010700011A4EB0010C2B200217820FFF7B2
:101BE00047FE4FF0000811E00AEB0610A0F5007068
:101BF00058490A5C40217820FFF73AFE0AF10100BB
:101C000000F0FF0A08F1010000F0FF08B8F1080F2A
:101C1000EADB681CC5B209F1010000F0FF09B9F167
:101C2000020FC1DBBDE8F08770B506460C46002503
:101C300008E014F8012BE806010E3046FFF7A9FF73
:101C4000681CC5B220780028F3D170BD2DE9F0479B
:101C500005460C4616464FF0000AD14638E005F11D
:101C6000B000C2B200217820FFF702FE2746E0173D
:101C700004EB1070001100F1100200217820FFF732
:101C8000F7FDE01704EB10700011A4EB0010C2B2D6
:101C900000217820FFF7ECFD4FF000080FE00AEB81
:101CA00046102D490A5C40217820FFF7E1FD0AF13A
:101CB000010000F0FF0A08F1010000F0FF08B8F190
:101CC000100FECDB681CC5B209F1010000F0FF0940
:101CD000B9F1020FC3DBAF2200217820FFF7C8FD66
:101CE000BDE8F08770B5002420E004F1B000C2B276
:101CF00000217820FFF7BCFD102200217820FFF79B
:101D0000B7FD022200217820FFF7B2FD002509E08F
:101D100005EBC41011490A5C40217820FFF7A8FDAB
:101D2000681CC5B2802DF3DB601CC4B2082CDCDB60
:101D300070BD0000AE0010D580A83FD300B0408D2C
:101D400014A1C8DA1281FFD9F1DB302000A4A6AFBC
:101D5000AE8D1000F01F0008F02500087026000866
:101D600008B54FF40040ADF8000010208DF80300D6
:101D700003208DF8020069466048FEF7C7FB08BDE6
:101D800008B54FF40040ADF8000048208DF803007E
:101D900069465A48FEF7BAFB08BD10B5FFF7E0FFE9
:101DA0004FF400415548FEF75EFC1420FFF795FC08
:101DB0004FF400415148FEF754FC1E20FFF777FC1A
:101DC00010BD10B50024FFF7DBFF04E0601CC4B2B7
:101DD0000120FFF76CFC4FF400414848FEF727FC58
:101DE00008B1642CF2DB642C01DB012010BD00245F
:101DF00004E0601CC4B20120FFF759FC4FF400411D
:101E00003E48FEF714FC08B9642CF2DB642C01DBBD
:101E10000120EBE70020E9E710B5002404E0601C96
:101E2000C4B20120FFF743FC4FF400413348FEF7F2
:101E3000FEFB08B1642CF2DB002404E0601CC4B299
:101E40000120FFF734FC4FF400412C48FEF7EFFB74
:101E500008B9642CF2DB2820FFF729FC4FF400417D
:101E60002648FEF7E4FB08B1012010BD0020FCE786
:101E700070B50024002506E06006040EFFF7CCFFD5
:101E80000443681CC5B2082DF6DB204670BD10B5B2
:101E900001217C20FEF7EDFDFFF77FFFFFF791FFAB
:101EA00010BD7CB50446FFF778FFFFF78AFF00BB43
:101EB000002505E0FFF7DCFF0DF80500681CC5B242
:101EC000052DF7DB9DF800009DF8011008449DF8F2
:101ED000021008449DF8031008449DF8041088423D
:101EE00009D19DF800002070641C9DF8020020704C
:101EF00001E001207CBD0020FCE70000000801405B
:101F000010B5203AC0F00B80B1E81850203AA0E894
:101F10001850B1E81850A0E81850BFF4F5AF5FEAC8
:101F2000027C24BFB1E81850A0E8185044BF18C97B
:101F300018C0BDE810405FEA827C24BF51F8043B22
:101F400040F8043B08BF7047D20728BF31F8023B76
:101F500048BF11F8012B28BF20F8023B48BF00F80A
:101F6000012B7047704770477047754600F028F89E
:101F7000AE4605006946534620F00700854618B076
:101F800020B5FFF7CBFABDE820404FF000064FF038
:101F900000074FF000084FF0000B21F00701AC469E
:101FA000ACE8C009ACE8C009ACE8C009ACE8C009BD
:101FB0008D4670470446AFF300802046FEF7DFF8F9
:101FC000004870472800002001487047704700BF54
:101FD0002C00002001491820ABBEFEE726000200BD
:101FE000704710B5FFF7F0FF4FF00001016010BD22
:101FF00000000000000000000000000000000000E1
:10200000000038FCFC3800000000000D0D0000004E
:10201000000E1E00001E0E00000000000000000068
:1020200020F8F820F8F82000020F0F020F0F02002E
:10203000387C444747CC98000306041C1C07030067
:1020400030300080C06030000C060301000C0C0032
:1020500080D87CE4BCD84000070F0808070F0800B0
:1020600000101E0E00000000000000000000000034
:102070000000F0F80C040000000003070C0800004A
:102080000000040CF8F000000000080C070300003A
:1020900080A0E0C0C0E0A0800002030101030200B4
:1020A000008080E0E080800000000003030000006A
:1020B00000000000000000000000101E0E000000E4
:1020C0008080808080808000000000000000000090
:1020D00000000000000000000000000C0C000000E8
:1020E00000000080C06030000C060301000000000A
:1020F000F8FC04C424FCF800070F0908080F0700C7
:10210000001018FCFC0000000008080F0F08080071
:10211000080C84C4643C18000E0F0908080C0C005D
:10212000080C444444FCB800040C0808080F0700DD
:10213000C0E0B098FCFC8000000000080F0F080011
:102140007C7C4444C4C48400040C0808080F0700C5
:10215000F0F84C4444C08000070F0808080F07003F
:102160000C0C0484C47C3C0000000F0F0000000035
:10217000B8FC444444FCB800070F0808080F0700E7
:10218000387C444444FCF800000808080C070300AD
:1021900000000030300000000000000606000000D3
:1021A00000000030300000000000080E06000000B3
:1021B0000080C0603018080000000103060C080011
:1021C0004040404040404000020202020202020041
:1021D0000008183060C0800000080C0603010000F1
:1021E000181C04C4E43C18000000000D0D000000A1
:1021F000F0F808C8C8F8F000070F080B0B0B010037
:10220000E0F0988C98F0E0000F0F0000000F0F0036
:1022100004FCFC4444FCB800080F0F08080F07003A
:10222000F0F80C04040C180003070C08080C060056
:1022300004FCFC040CF8F000080F0F080C07030066
:1022400004FCFC44E40C1C00080F0F08080C0E00F2
:1022500004FCFC44E40C1C00080F0F080000000004
:10226000F0F80C84848C980003070C0808070F0012
:10227000FCFC404040FCFC000F0F0000000F0F0072
:10228000000004FCFC0400000000080F0F08000020
:1022900000000004FCFC0400070F08080F07000002
:1022A00004FCFCC0F03C0C00080F0F00010F0E00F6
:1022B00004FCFC0400000000080F0F08080C0E00CE
:1022C000FCFC387038FCFC000F0F0000000F0F0002
:1022D000FCFC3870E0FCFC000F0F0000000F0F004A
:1022E000F0F80C040CF8F00003070C080C070300CE
:1022F00004FCFC44447C3800080F0F080000000078
:10230000F8FC040404FCF800070F080E3C3F27000B
:1023100004FCFC44C4FC3800080F0F00000F0F0041
:10232000183C6444C49C1800060E0808080F0700F7
:10233000001C0CFCFC0C1C000000080F0F08000027
:10234000FCFC000000FCFC00070F0808080F070059
:10235000FCFC000000FCFC000103060C060301006D
:10236000FCFC008000FCFC00030F0E030E0F0300BA
:102370000C3CF0C0F03C0C000C0F0300030F0C00F1
:10238000003C7CC0C07C3C000000080F0F0800002F
:102390001C0C84C4643C1C000E0F0908080C0E00C1
:1023A0000000FCFC0404000000000F0F08080000FF
:1023B0003870E0C0800000000000000103070E003C
:1023C00000000404FCFC0000000008080F0F0000DF
:1023D000080C0603060C08000000000000000000C6
:1023E00000000000000000002020202020202020ED
:1023F00000000307040000000000000000000000CF
:1024000000A0A0A0E0C00000070F0808070F080008
:1024100004FCFC2060C08000080F0708080F0700BC
:10242000C0E0202020604000070F0808080C0400CE
:1024300080C06024FCFC0000070F0808070F08009C
:10244000C0E0A0A0A0E0C000070F0808080C04002E
:1024500040F8FC440C180000080F0F0800000000B2
:10246000C0E02020C0E02000276F48487F3F0000E8
:1024700004FCFC4020E0C000080F0F00000F0F001C
:10248000000020ECEC0000000000080F0F08000026
:102490000000000020ECEC0000307040407F3F0066
:1024A00004FCFC80C0602000080F0F01030E0C002C
:1024B000000004FCFC0000000000080F0F080000F2
:1024C000E0E060C060E0C0000F0F000F000F0F00E1
:1024D00020E0C02020E0C000000F0F00000F0F0020
:1024E000C0E0202020E0C000070F0808080F070008
:1024F00020E0C02020E0C000407F7F48080F070098
:10250000C0E02020C0E02000070F08487F7F400087
:1025100020E0C0602060C000080F0F08000000002D
:1025200040E0A02020604000040C09090B0E0400CC
:102530002020F8FC202000000000070F080C0400F9
:10254000E0E00000E0E00000070F0808070F0800C7
:1025500000E0E00000E0E0000003070C0C070300CF
:10256000E0E0000000E0E000070F0C070C0F0700A0
:102570002060C080C0602000080C0703070C080022
:10258000E0E0000000E0E000474F4848683F1F00DF
:10259000606020A0E06020000C0E0B09080C0C000D
:1025A000004040F8BC040400000000070F080800C9
:1025B000000000BCBC0000000000000F0F00000085
:1025C000000404BCF84040000008080F07000000A9
:1025D000080C040C080C04000000000000000000BF
:1025E00080C0603060C08000070704040407070053
:1025F0001022640C8008494A4CF84C4A49080000F3
:102600000404FE010404040404FF0404040604009A
:102610001010D0FF50902040FF00FF4020300000FD
:10262000040300FF8044221907003F414640700028
:1026300000F848484848FF48484848FC080000005F
:102640000007020202023F4242424247407000003D
:1026500080808282828282E2A2928A8680C080000A
:10266000000000000040807F00000000000000002B
:10267000000000000000000000000000000000005A
:10268000000000000000000000000000000000004A
:10269000000000000000000000000000000000003A
:1026A000000000000000000000000000000000002A
:1026B000000000000000000000000000000000001A
:1026C000000000000000000000000000000000000A
:1026D00000000000000000000000000000000000FA
:1026E00000000000000000000000000000000000EA
:1026F00000000000000000000000000000000000DA
:10270000000000000000000000F8FC1C3830381CFD
:10271000FCF800F8F800F8F8000000F8FC8C8C8C4D
:102720000080D050F0E000F0F02030000080800009
:10273000808000808000000C1224120C0000000039
:102740000000000080000000000000001824448801
:1027500044241800000000000000000000000000F9
:102760000000000000000000000000000000000069
:102770000000000000000000000000000000000059
:102780000000000000000000000383800080800043
:10279000030300080B0B0F078040804083030303F3
:1027A00000000303030300038380808080C3C3C051
:1027B000C3C3C0C3C3C0C0C0C0C0808080C0C0404D
:1027C0002018040300000000002050A0502000004A
:1027D00000000000000000000000000000000000F9
:1027E00000000000000000000000000000000000E9
:1027F00000000000000000000000000000000000D9
:102800000000000000000000000304081108040399
:102810000000000000000000010284C2E1603010EE
:1028200078ECFCF63A1B058597131213131111115E
:102830001111110181FFF9F9F2C2822225058D8B58
:1028400093B3E6C68C1C18387070E0C0800000009E
:1028500000000018244824180000000000000000B8
:102860000000000000000000000000000000000068
:102870000000000000000000000000000000000058
:102880000000000000000000000080E0E070301850
:10289000181C1C1C0C1C1616160627636DAECE0EDB
:1028A0000E0F0F0F0E06060707060606060606069B
:1028B00006060666776767E707070706060607073F
:1028C00087C76723231210000808090B0F0E0E0C90
:1028D0003C70F0C08000000000000000000000001C
:1028E00000000000000000000000000000000000E8
:1028F00000000000000000000000000000000000D8
:10290000000000000000F0F8DEFFF63611E0F0F8FD
:10291000FCFEDE1E3F3F1EFEFEFCF8F2E40801074F
:10292000FC000000000000000000000000000000AB
:1029300000000000000000FF00000000003CFFE776
:10294000311CE6FFFFFFFEFE1F3F3F1FFFFEFEFCA8
:10295000F8F8F031FBFFFEFC38000000000000003A
:102960000000000000000000000000000000000067
:102970000000000000000000000000000000000057
:102980000000000000000003074F4C60607F7F7F65
:102990007F7D4D44727240797D7F7F7F7F7C707038
:1029A00073737070747474747474747474747474F1
:1029B00076767676767676737070727272737070E1
:1029C000707C7F7F7F7F7D7D62727260687D7F7F9C
:1029D0007F7F7774676763000000000000000000DD
:1029E00000000000000000000000000000000000E7
:1029F00000000000000000000000000000000000D7
:102A000000000000000000000000000000000000C6
:102A100000000000000000000000000000000000B6
:102A200000000000000000000000000000000000A6
:102A30000000000000000000000000000000000096
:102A40000000000000000000000000000000000086
:102A50000000000000000000000000000000000076
:102A60000000000000000000000000000000000066
:102A7000902A00080000002028000000280100081B
:102A8000B82A000828000020600600004401000861
:102A900000A24A040000000000000000010203043C
:102AA00006070809000000000102030401020304F4
:082AB0000607080902040608EC
:04000005080000ED02
:00000001FF
