:020000040800F2
:1000000088060020B1220008192400081B240008DB
:100010001F240008232400082724000800000000F3
:100020000000000000000000000000002B24000879
:100030002D240008000000002F24000831240008AF
:10004000CB220008CB220008CB220008CB220008DC
:10005000CB220008CB220008CB220008CB220008CC
:10006000CB220008CB220008CB220008CB220008BC
:10007000CB220008CB220008CB220008CB220008AC
:10008000CB220008CB220008CB220008CB2200089C
:10009000CB220008CB220008CB220008CB2200088C
:1000A000CB220008CB220008CB220008CB2200087C
:1000B000CB220008CB220008CB220008CB2200086C
:1000C000CB220008CB220008CB220008CB2200085C
:1000D000CB220008CB220008CB220008CB2200084C
:1000E000CB220008CB220008CB22000800F002F847
:1000F00000F03CF80AA090E8000C82448344AAF186
:100100000107DA4501D100F031F8AFF2090EBAE883
:100110000F0013F0010F18BFFB1A43F0010318473B
:10012000E435000004360000103A24BF78C878C1D6
:10013000FAD8520724BF30C830C144BF04680C60ED
:10014000704700000023002400250026103A28BF35
:1001500078C1FBD8520728BF30C148BF0B60704739
:100160001FB502F088FD1FBD10B510BD02F047FDA0
:100170001146FFF7F5FF02F0BBF802F065FD03B48E
:10018000FFF7F2FF03BC02F06FFD0000002100202A
:10019000674A126842F48032654B1A6000BF644AB5
:1001A000126802F40030491C10B9B1F5A06FF6D105
:1001B0005F4A126812F4003F01D0012000E00020E5
:1001C000012842D15B4A126842F01002594B1A6072
:1001D0001A46126822F003021A601A46126842F0A8
:1001E00002021A60524A5268514B5A601A465268CB
:1001F0005A601A46526842F480625A601A4652683F
:1002000022F47C125A601A46526842F4E8125A608C
:100210001A46126842F080721A6000BF444A12689F
:1002200012F0007FFAD0424A526822F00302404B9B
:100230005A601A46526842F002025A6000BF3C4AB5
:10024000526802F00C02082AF9D1704710B5FFF786
:100250009DFF10BD10B53648006840F001003449DC
:1002600008600846406834490840314948600846FB
:100270000068324908402E4908600846006820F4AA
:10028000802008600846406820F4FE0048604FF473
:100290001F008860FFF7DAFF4FF000602849086010
:1002A00010BD10B5002100200022214B5B6803F037
:1002B0000C0121B1042906D0082928D107E0214BDF
:1002C000214C236027E01F4B1F4C236023E0184B79
:1002D0005B6803F47010164B5B6803F480320223F2
:1002E00003EB904022B9194B4343174C23600DE0B8
:1002F0000F4B5B6813F4003F04D0144B4343124C84
:10030000236003E00F4B43430F4C236003E00D4B8E
:100310000D4C236000BF00BF054B5B68C3F30313A4
:100320000B4CE15C084B1B68CB40074C236010BDB5
:1003300000100240002002400000FFF8FFFFF6FE20
:1003400008ED00E000127A000000002000093D00E6
:100350000400002036490143364A1160704770B5E9
:10036000002100230F22C4784CB3324C246804F4DB
:10037000E064C4F5E0644FEA1421C1F1040322FAF9
:1003800001F2447804FA03F1847804EA020444EAAE
:1003900001014FEA0111284C0678A155047804F0B8
:1003A0001F054FF0010404FA05F405784FEA6515BE
:1003B0004FF0E02606EB8505C5F8004109E004781A
:1003C00004F01F050124AC401C4D0678761145F859
:1003D000264070BD1A4A0A4002431A4B1A60704701
:1003E00041B1194A126842EA00024FF0E023C3F813
:1003F000102D07E0144A126822EA00024FF0E023B1
:10040000C3F8102D7047042808D14FF0E021096986
:1004100041F004014FF0E022116107E04FF0E021CC
:10042000096921F004014FF0E022116170470000DA
:100430000000FA050CED00E000E400E080E100E0DF
:1004400080FFFF1F08ED00E010ED00E010B504464E
:10045000CA48844208D10121042000F024FB002175
:10046000042000F020FB46E0C548844208D1012169
:10047000082000F018FB0021082000F014FB3AE0EF
:10048000C048844208D10121102000F00CFB00215B
:10049000102000F008FB2EE0BB48844208D1012167
:1004A000202000F000FB0021202000F0FCFA22E0D8
:1004B000B648844208D10121402000F0F4FA00211E
:1004C000402000F0F0FA16E0B148844208D1012142
:1004D000802000F0E8FA0021802000F0E4FA0AE031
:1004E000AC48844207D10121801500F0DCFA0021DC
:1004F000A01500F0D8FA10BD10B50121084600F093
:10050000D2FA0021012000F0CEFA10BD2DE9F04111
:10051000024600250026002000230024002791F831
:1005200003C00CF00F0591F803C01CF0100F03D0AE
:1005300091F802C04CEA0505B1F800C01CF0FF0FAD
:1005400031D0146800202BE04FF0010C0CFA00F3BE
:10055000B1F800C00CEA03069E4220D183004FF0A0
:100560000F0C0CFA03F7BC4305FA03FC4CEA040435
:1005700091F803C0BCF1280F06D14FF0010C0CFA22
:1005800000FCC2F814C00AE091F803C0BCF1480FA7
:1005900005D14FF0010C0CFA00FCC2F810C0401C51
:1005A0000828D1D31460B1F800C0BCF1FF0F34DDCE
:1005B000546800202EE000F1080C4FF0010808FA02
:1005C0000CF3B1F800C00CEA03069E4221D183006F
:1005D0004FF00F0C0CFA03F7BC4305FA03FC4CEA8E
:1005E000040491F803C0BCF1280F05D100F1080CF8
:1005F00008FA0CF8C2F8148091F803C0BCF1480F57
:1006000007D100F1080C4FF0010808FA0CF8C2F805
:100610001080401C0828CED35460BDE8F0814FF60E
:10062000FF710180022181700421C1707047024670
:10063000002093680B4201D0012000E000207047A9
:100640000146886880B2704702460020D3680B429A
:1006500001D0012000E0002070470146C86880B248
:10066000704701617047416170470AB1016100E064
:1006700041617047C16070474FF480320A43826124
:100680008161826182698269704702460020424B23
:1006900018684FF68073184040EA021008433E4B3A
:1006A000186070473D49C8617047F0B50A4600239D
:1006B00000240021002500F00046B6F1004F02D1D1
:1006C000354EF16901E0344E7168C0F3034583B2E1
:1006D00000F44016B6F5401F08D121F070612E4E8F
:1006E000766826F070662C4F7E6012E000F480166B
:1006F000B6F5801F06D1032606FA05F4A14341F0A2
:10070000706106E0460D360103FA06F6B14341F08A
:10071000706122B1460D360103FA06F6314300F04E
:100720000046B6F1004F02D11B4EF16101E01A4EB6
:100730007160F0BD30B500228B071C0F0F2303FA48
:1007400004F2154B08338C1053F824309343124CA9
:1007500008348D1044F8253023468C1053F824308B
:100760008C07240F00FA04F423430B4C08348D103B
:1007700044F8253030BD0A49086070470008014040
:10078000000C01400010014000140140001801401D
:10079000001C0140002001400000014000002042F8
:1007A000DC002042DB48006840F00100D9490860C5
:1007B00008464068D8490840D6494860084600685D
:1007C000D6490840D34908600846006820F48020D4
:1007D00008600846406820F4FE0048604FF41F009F
:1007E00088607047CB49096821F48031C94A11609B
:1007F0001146096821F480211160B0F5803F03D0D3
:10080000B0F5802F0ED106E0C249096841F480316D
:10081000C04A116007E0BF49096841F4A021BD4A00
:10082000116000E000BF00BF704710B50146002214
:10083000002300204A11012A02D1B64C236806E0A9
:10084000022A02D1B34C236A01E0B24C636A01F080
:100850001F02012494401C4201D0012000E000202E
:1008600010BD70B500240025002600BF3120FFF721
:10087000DCFF0646641CB4F5A06F01D0002EF5D055
:100880003120FFF7D2FF08B1012500E000252846FE
:1008900070BD014600209F4A106820F0F80040EA31
:1008A000C100106070479E490860704702460020F2
:1008B000984B586820F47C1042EA01031843954B8A
:1008C0005860704796490866704701460020914A73
:1008D000506820F003000843506070478D4840681E
:1008E00000F00C007047014600208A4A506820F052
:1008F000F00008435060704701460020854A506868
:1009000020F4E06008435060704701460020814AAF
:10091000506820F4605040EAC1005060704729B12F
:100920007C4A527A02437B4B5A7206E0794A527AE9
:10093000C343DBB21A40774B5A727047794908605B
:10094000704701460020734A506820F44040084335
:10095000506070470021744A11706E4A82F820106E
:10096000012802D0042808D103E001216E4A117049
:1009700004E005216C4A117000E000BF00BF704721
:100980006A49086070476349096A0143614A116214
:10099000704767490860704730B500210022002485
:1009A00000235C4D6D6805F00C0121B1042905D0D0
:1009B000082923D105E05F4D056022E05D4D05600B
:1009C0001FE0544D6D6805F47012524D6D6805F4CA
:1009D0008034022505EB92421CB9574D5543056002
:1009E0000BE04C4D6D6815F4003F03D0524D55435C
:1009F000056002E04F4D5543056002E04D4D056036
:100A000000BF00BF434D6D6805F0F00109094B4D73
:100A10006B5C0568DD4045603E4D6D6805F4E06146
:100A2000090A464D6B5C4568DD408560394D6D684F
:100A300005F46051C90A414D6B5C4568DD40C560F5
:100A4000344D6D6805F44041890B3D4D6B5CC568C4
:100A5000B5FBF3F5056130BD29B12E4A5269024359
:100A60002C4B5A6104E02B4A52698243294B5A614C
:100A7000704729B1274A92690243264B9A6104E0E4
:100A8000244A92698243234B9A61704729B1214AD3
:100A9000D26902431F4BDA6104E01E4AD2698243E5
:100AA0001C4BDA61704729B11A4AD2680243194BCC
:100AB000DA6004E0174AD2688243164BDA60704766
:100AC00029B1144A12690243124B1A6104E0114A17
:100AD000126982430F4B1A6170471A4908607047C8
:100AE0000F49C86470470B49C87170470948406A8C
:100AF00040F0807007494862704701460020054A6F
:100B000092680A4201D0012000E0002070470149AC
:100B100088727047001002400000FFF8FFFFF6FEE9
:100B200000004242D800424220100240800442426B
:100B30003C04424200127A0000093D0014000020EB
:100B4000240000204004424201460020FF4A106871
:100B500000F03800084310607047FC49096821F034
:100B60000801FA4A11601146096801431160704793
:100B7000F649096821F01001F44A1160114609682C
:100B8000014311607047F248F0494860F1484860FD
:100B90007047EF48ED494860EE4848607047EB48C1
:100BA000006940F08000E94908617047E748006942
:100BB00040F08000E549086170470420E349C968B6
:100BC00001F00101012901D101200EE0DF49C968CE
:100BD00011F0040F01D0022007E0DC49C96811F0D0
:100BE000100F01D0032000E00420704700B502463A
:100BF0000423FFF7E2FF034603E0FFF7DEFF0346AF
:100C0000521E012B01D1002AF7D102B90523184643
:100C100000BD30B5044604254FF43020FFF7E6FF51
:100C20000546042D17D1C948006940F00200C749A4
:100C3000086108464461006940F0400008614FF4D3
:100C40003020FFF7D3FF0546C048006941F6FD712B
:100C50000840BE490861284630BD10B504244FF451
:100C60003020FFF7C3FF0446042C16D1B7480069B3
:100C700040F00400B54908610846006940F04000B2
:100C800008614FF43020FFF7B1FF0446AF48006918
:100C900041F6FB710840AD490861204610BD00B522
:100CA00002460423FFF789FF034603E0FFF785FFB1
:100CB0000346521E012B01D1002AF7D102B90523A8
:100CC000184600BD10B504244FF43020FFF7E7FFAD
:100CD0000446042C16D19D48006940F004009B494D
:100CE00008610846006940F0400008614FF4302078
:100CF000FFF7D5FF04469548006941F6FB710840AF
:100D000092490861204610BD00209049C96911F040
:100D1000020F01D0012000E00020704730B5A5256A
:100D20000424FFF7F1FF00B100254FF43020FFF756
:100D30005DFF0446042C3BD1854884498860854882
:100D400088600846006940F0200008610846006994
:100D500040F0400008614FF43020FFF747FF0446A1
:100D6000042C1CD17948006941F6DF7108407749AD
:100D700008610846006940F0100008617648058067
:100D80004FF40050FFF732FF0446052C10D06F4897
:100D9000006941F6EF7108406C49086108E0052CD4
:100DA00006D06A48006941F6EF710840674908615A
:100DB000204630BDF0B504460D4604260027F0025B
:100DC000FFF714FF0646042E22D16048006940F068
:100DD00001005E4908612580F002FFF707FF064623
:100DE000042E0ED1A71C280C3880F002FFF7FEFE5F
:100DF00006465648006941F6FE71084053490861AD
:100E000006E05248006941F6FE7108404F4908610A
:100E10003046F0BD70B504460D460426F002FFF7DB
:100E2000E5FE0646042E11D14848006940F0010055
:100E3000464908612580F002FFF7D8FE0646434880
:100E4000006941F6FE71084040490861304670BDB6
:100E500070B505460E460424E002FFF7C7FE0446BF
:100E6000042C17D13A48394988603A4888600846C6
:100E7000006940F0100008612E80E002FFF7B6FE26
:100E80000446052C06D03148006941F6EF71084050
:100E90002E490861204670BD2DE9F04304464FF607
:100EA000FF763746B046B1460425E443E6B2C4F3C4
:100EB0000727C4F307484FEA1469E802FFF796FED4
:100EC0000546042D3ED1224820498860214888608B
:100ED0000846006940F010000861FF2E06D01F4848
:100EE00006804FF40050FFF781FE0546042D08D11F
:100EF000FF2F06D01A4807804FF40050FFF776FE08
:100F00000546042D09D1B8F1FF0F06D01548A0F809
:100F10000C88E802FFF76AFE0546042D09D1B9F1F5
:100F2000FF0F06D00F48A0F80E98E802FFF75EFE0C
:100F30000546052D06D00548006941F6EF710840C9
:100F4000024908612846BDE8F08300000020024005
:100F500023016745AB89EFCD00F8FF1F08F8FF1F9D
:100F60000AF8FF1F00F0FF1F30B5054604244FF4B8
:100F70003020FFF73BFE0446042C41D15F48604916
:100F80008860604888600846006940F02000086179
:100F90000846006940F0400008614FF43020FFF738
:100FA00025FE0446042C22D15548006941F6DF7124
:100FB0000840534908610846006940F01000086184
:100FC0001DB100205049088002E0A5204E4908804C
:100FD0004FF43020FFF70AFE0446052C10D0484895
:100FE000006941F6EF7108404549086108E0052CA9
:100FF00006D04348006941F6DF7108404049086166
:10100000204630BDF0B505460E46174604243B4841
:101010003B4988603B488860E002FFF7E7FD0446F3
:10102000042C19D13648006940F010003449086199
:1010300047F0F80030432843344908804FF400500B
:10104000FFF7D4FD0446052C06D02D48006941F673
:10105000EF7108402A4908612046F0BD2848C06960
:10106000800870472648006A7047002024490968B4
:1010700011F0200F01D0012000E00020704729B1BD
:101080001F4A126902431E4B1A6104E01C4A12698E
:1010900082431B4B1A61704701460020012908D189
:1010A000174AD26912F0010F01D0012008E0002098
:1010B00006E0134AD2680A4201D0012000E0002075
:1010C00070470F49C860704704200D49C96801F096
:1010D0000101012901D101200EE00949C96811F07F
:1010E000040F01D0022007E00549C96811F0100F74
:1010F00001D0032000E00420704700002301674571
:1011000000200240AB89EFCD00F8FF1F02F8FF1F5F
:1011100010B50446F648844209D101214805FFF77D
:10112000CFFC00214FF40010FFF7CAFC08E00121BA
:101130008805FFF7C5FC00214FF48000FFF7C0FCD5
:1011400010BD2DE9F04385B004460D460026B1469A
:101150000427DFF8A083A6884FF6C0710E406846CA
:10116000FFF71AFCDDF80880E348B8FBF0F01FFA3F
:1011700080F946EA0906A68020884FF6FE710840ED
:1011800020800026DD49286888420CD82868400065
:10119000B8FBF0F087B2042F00DA04273E4309F1D0
:1011A0000100208427E0E888A0F53F41FF3906D1FF
:1011B000286800EB4000B8FBF0F087B209E028682F
:1011C00000EBC00101EB0010B8FBF0F087B247F470
:1011D00080473805000D01D147F0010747F4004072
:1011E00006434FF4967009FB00F04FF47A7190FBC0
:1011F000F1F0401C2084A683208840F0010020806C
:1012000026884FF6F5310E40A888698908430643C1
:101210002680A88929890843208105B0BDE8F0838C
:1012200041F288310160002181804BF6FF71C1805D
:101230000021018141814FF480418181704721B1BA
:10124000028842F00102028004E002884FF6FE7339
:101250001A400280704721B1828842F40062828085
:1012600004E082884FF2FF731A408280704721B1F8
:10127000828842F48052828004E082884EF6FF73B6
:101280001A408280704721B1028842F48072028045
:1012900004E002884FF6FF631A400280704721B1D4
:1012A000028842F40072028004E002884FF6FF5385
:1012B0001A400280704721B1028842F480620280A5
:1012C00004E002884FF6FF331A40028070470A4656
:1012D000002181894FF60173194002F0FE03194382
:1012E0008181704721B1828942F00102828104E04C
:1012F00082894FF6FE731A408281704721B10288BD
:1013000042F04002028004E002884FF6BF731A40A8
:101310000280704710B51AB183880B43838004E0C4
:101320008388CC43A4B22340838010BD01827047E0
:101330000146088AC0B2704712B141F0010102E0D3
:101340004FF6FE7319400182704702460023134690
:101350000B441888704721B1028842F40042028091
:1013600003E00288C2F30E0202807047B1F5006FFD
:1013700004D1028842F40062028004E002884FF245
:10138000FF731A4002807047B1F5005F04D10288F4
:1013900042F40052028004E002884DF6FF731A40C6
:1013A0000280704721B1028842F48052028004E03A
:1013B00002884EF6FF731A4002807047B1F5006F45
:1013C00004D1028842F40062028004E002884FF2F5
:1013D000FF731A400280704721B1028842F0200258
:1013E000028004E002884FF6DF731A4002807047E3
:1013F0000146088B0012704721B1028842F01002AA
:10140000028004E002884FF6EF731A4002807047B2
:1014100021B9028842F08002028004E002884FF67F
:101420007F731A4002807047B1F5804F05D0828BE0
:101430004BF6FF731A40828303E0828B42F48042B2
:101440008283704770B502460024002500230020E7
:10145000958A138B1B0445EA030626F07F4404EAB1
:1014600001068E4201D1012000E0002070BD10B5C0
:1014700001460020002300228B8A0A8B120443EAD3
:10148000020424F07F4010BD30B503460020002444
:1014900000221A460C0F21F07F410CB1143201E0FA
:1014A000090C183215680D4201D0012000E000201F
:1014B00030BD002221F07F42D3438382704730B594
:1014C000024600200023948801F0E06504EA1543F9
:1014D00021F07F41948A0C4202D00BB1012000E040
:1014E000002030BD002221F07F42D3438382704729
:1014F0000054004000127A0040420F00A086010014
:1015000010B50446FF48844208D10121C014FFF7FA
:10151000CAFA0021E014FFF7C6FAC4E0B4F1804F24
:1015200008D101210846FFF7CBFA00210120FFF77F
:10153000C7FAB8E0F448844208D101210220FFF73D
:10154000BFFA00210220FFF7BBFAACE0EF4884426B
:1015500008D101210420FFF7B3FA00210420FFF78E
:10156000AFFAA0E0EA48844208D101210820FFF741
:10157000A7FA00210820FFF7A3FA94E0E548844287
:1015800008D101211020FFF79BFA00211020FFF75E
:1015900097FA88E0E048844208D101212020FFF733
:1015A0008FFA00212020FFF78BFA7CE0DB48844291
:1015B00008D101214014FFF776FA00216014FFF7EB
:1015C00072FA70E0D648844209D10121C804FFF7BD
:1015D0006AFA00214FF40020FFF765FA63E0D14872
:1015E000844209D101210805FFF75DFA00214FF47B
:1015F0008010FFF758FA56E0CB48844209D1012108
:101600004805FFF750FA00214FF40010FFF74BFA9E
:1016100049E0C648844208D101214020FFF750FA32
:1016200000214020FFF74CFA3DE0C148844208D138
:1016300001218020FFF744FA00218020FFF740FAC3
:1016400031E0BC48844208D101218015FFF738FA07
:101650000021A015FFF734FA25E0B748844209D1EC
:1016600001210804FFF71FFA00214FF48030FFF733
:101670001AFA18E0B148844209D101214804FFF761
:1016800012FA00214FF40030FFF70DFA0BE0AC48DE
:10169000844208D101218804FFF705FA00214FF4A4
:1016A0008020FFF700FA10BD00220288954B984277
:1016B0000ED09A4B98420BD0B0F1804F08D0924B8D
:1016C000984205D0914B984202D0914B984204D158
:1016D0004FF68F731A404B881A438E4B984207D0AF
:1016E0008D4B984204D04FF6FF431A40CB881A43E3
:1016F00002808B8883850B880385824B98420BD0B0
:10170000864B984208D08C4B984205D08B4B984220
:1017100002D08B4B984201D10B7A0386012383823E
:10172000704770B5002400220023058C4FF6FE762A
:1017300035400584028C8388048B4FF68F752C40CE
:10174000B51E2C400D882C43751E2A400D892A4356
:101750004D882A436B4DA8420BD0704DA84208D04B
:10176000754DA84205D0754DA84202D0744DA842CF
:1017700013D14FF6F7752A404D892A434FF6FB7572
:101780002A408D882A434FF6FF652B404FF6FF55C0
:101790002B408D892B43CD892B4383800483CD88B7
:1017A0008586028470BD70B5002400220023058C5C
:1017B0004FF6EF7635400584028C8388048B48F61B
:1017C000FF752C404FF6FF452C400D882D0644EA4E
:1017D00015444FF6DF752A400D892D0542EA154262
:1017E0004D882D0542EA1542464DA84202D04B4D88
:1017F000A8421BD14FF67F752A404D892D0542EA3C
:1018000015424FF6BF752A408D882D0542EA1542D4
:101810004FF6FF352B404FF2FF752B408D89AD04FD
:1018200043EA1543CD89AD0443EA1543838004831D
:10183000CD880587028470BD70B500240022002386
:10184000058C4FF6FF6635400584028C8388848BB7
:101850004FF68F752C404FF6FC752C400D882C43AD
:101860004FF6FF552A400D892D0642EA15424D8854
:101870002D0642EA1542234DA84202D0274DA84228
:101880001BD14FF2FF752A404D892D0642EA1542C1
:101890004FF6FF352A408D882D0642EA15424EF656
:1018A000FF752B404DF6FF752B408D892D0543EAC2
:1018B0001543CD892D0543EA154383808483CD8864
:1018C0008587028470BD70B5002200230024058C3A
:1018D0004EF6FF7635400584038C8488828B48F66B
:1018E000FF752A404FF6FF452A400D882D0642EA33
:1018F00015424DF6FF752B400D892D0743EA154320
:101900004D881FE0002C014000040040000800400A
:10191000000C004000100040001400400034014062
:10192000004C0140005001400054014000180040AC
:10193000001C0040002000400040014000440140E5
:10194000004801402D0743EA1543F94DA84202D053
:10195000F84DA84206D14BF6FF752C408D89AD0598
:1019600044EA154484808283CD88A0F840500384E3
:1019700070BD828B4FF2FF331A408283828B0B063D
:1019800042EA134282837047F0B50C4615460022A6
:1019900000210026078C4EF6FF7C07EA0C0707841F
:1019A000828B018C27073E0C40F6FF473A402F06FA
:1019B00042EA17421F0742EA1742DD4FB8420ED0F3
:1019C000DC4FB8420BD0B0F1804F08D0DA4FB842AC
:1019D00005D0DA4FB84202D0D94FB84206D14DF601
:1019E000FF77394046F48057394305E047F6FF5703
:1019F000394044F48057394382830184F0BD828B9F
:101A00004FF6F3731A408283828B0A4382837047B6
:101A1000F0B50C461546002200210026078C4FF633
:101A2000FF6C07EA0C070784828B018C27063E0CAB
:101A30004FF60C773A401F0545EA17473A43BC4F2B
:101A4000B8420ED0BB4FB8420BD0B0F1804F08D097
:101A5000B94FB84205D0B94FB84202D0B84FB842DA
:101A600006D14FF6FF57394046F48077394305E0F9
:101A70004FF2FF57394044F4807739438283018421
:101A8000F0BD028B4FF2FF331A400283028B0B062C
:101A900042EA134202837047F0B50C461546002215
:101AA00000210026078C4FF6EF7C07EA0C0707841D
:101AB000028B018C27053E0C40F6FF473A401F077A
:101AC00042EA17422F0642EA1742994FB8420ED017
:101AD000984FB8420BD0B0F1804F08D0964FB84223
:101AE00005D0964FB84202D0954FB84206D14FF676
:101AF000DF77394046F01007394305E04FF65F774E
:101B0000394044F01007394302830184F0BD028B51
:101B10004FF6F3731A400283028B0A430283704725
:101B2000F0B50C46154600220021068C4FF6FE77D4
:101B30003E400684028B018C4FF60C7632401E0527
:101B400045EA164632437A4EB0420ED0794EB04244
:101B50000BD0B0F1804F08D0774EB04205D0774E11
:101B6000B04202D0764EB04206D14FF6FD763140FB
:101B700044F00106314305E04FF6F576314044F07C
:101B80000106314302830184F0BD70B505460C4661
:101B9000674885420ED0674885420BD0B5F1804F2B
:101BA00008D06548854205D06448854202D0644823
:101BB000854200D100E000BF208850B92389A28867
:101BC00061882846FFF7ACFFE1882846FFF79FFFB2
:101BD00025E0208804280AD12389A2886188284624
:101BE000FFF75AFFE1882846FFF74BFF17E02088F0
:101BF00008280AD12389A28861882846FFF708FFB0
:101C0000E1882846FFF7FBFE09E02389A288618866
:101C10002846FFF7B9FEE1882846FFF7AAFE70BD07
:101C20002DE9F04105460C4600260127608808B9D9
:101C3000022600E00026A088012801D1022700E04A
:101C400001272088A0B92389A28861882846FFF748
:101C500067FFE1882846FFF75AFF23893A46314655
:101C60002846FFF719FFE1882846FFF70AFF13E02F
:101C70002389A28861882846FFF70EFFE18828465D
:101C8000FFF7FFFE23893A4631462846FFF748FF13
:101C9000E1882846FFF73BFFBDE8F0810A884B88C2
:101CA0001A438B881A43CB881A430B891A434B89F2
:101CB0001A438B891A43A0F8442070474FF6FF71EE
:101CC000818000210180C180418001727047002124
:101CD000018041808180C180018141818181C181F8
:101CE0007047002101804180012181800021C18055
:101CF000018170470021018041808180C180018184
:101D000041818181704721B1028842F00102028045
:101D100004E002884FF6FE731A400280704789B1D2
:101D2000B0F8442042F40042A0F8442010E0000043
:101D3000002C014000340140000400400008004035
:101D4000000C0040B0F84420C2F30E02A0F844207A
:101D5000704710B51AB183890B43838104E08389EE
:101D6000CC43A4B22340838110BD8182704741EAF5
:101D70000203A0F84830704710B51AB183890B43AD
:101D8000838104E08389CC43A4B22340838110BDC6
:101D900001894FF6F8721140018170470A4600210F
:101DA00001894FF68F73194011430181704730B597
:101DB00004460D4629462046FFF7F0FF208940F0F3
:101DC0000700208130BD2DE9F04104460D4616463E
:101DD0001F46602D06D13B46012231462046FFF7C3
:101DE0005BFE05E03B46012231462046FFF798FEA8
:101DF00029462046FFF7D2FF208940F007002081C6
:101E0000BDE8F08130B50C4600210189C9B21D063C
:101E100042EA154525432943018130BD2DE9F041B2
:101E200005460E4617469846002443463A46314634
:101E30002846FFF7E7FF2C894FF6F8710C4044F075
:101E400007044FF68F710C4044F070042C81BDE8FC
:101E5000F081F0B504460D4616461F463B46324615
:101E600029462046FFF7CEFF208940F4804020819C
:101E7000F0BD0185828270470A46002101884FF635
:101E80008F731940114301807047F0B50C46154619
:101E90001E460021002200230189028B038C4FF68D
:101EA000F877394021434FF6FC473A4040F201179A
:101EB0003A434FF6DD773B40370545EA17473B434A
:101EC000018102830384F0BD0A460021018B4FF695
:101ED0008F7319401143018370470A460021018B1B
:101EE00048F6FF731940130641EA13410183704716
:101EF0000A460021818B4FF68F731940114381836D
:101F000070470A460021818B48F6FF73194013067B
:101F100041EA13418183704721B1028842F0800277
:101F2000028004E002884FF67F731A4002807047F7
:101F300021B1828842F00402828004E082884FF658
:101F4000FB731A408280704721B1828842F00802F8
:101F5000828004E082884FF6F7731A4082807047CF
:101F600021B1828842F00102828004E082884FF62B
:101F7000FE731A40828070470A460021018B4FF69B
:101F8000F77319401143018370470A460021018B02
:101F90004FF2FF731940130641EA13410183704762
:101FA0000A460021818B4FF6F77319401143818354
:101FB00070470A460021818B4FF2FF7319401306C8
:101FC00041EA1341818370470A460021018B4FF695
:101FD000FB7319401143018370470A460021018BAE
:101FE0004FF6FF331940130641EA1341018370474E
:101FF0000A460021818B4FF6FB7319401143818300
:1020000070470A460021818B4FF6FF3319401306B3
:1020100041EA1341818370470A460021018B4FF644
:102020007F7319401143018370470A460021018BD9
:10203000C1F30E01130641EA1341018370470A46BA
:102040000021818B4FF67F731940114381837047C4
:102050000A460021818BC1F30E01130641EA1341A8
:10206000818370470A460021018C4FF6FD731940A9
:102070001143018470470A460021018C4FF6F77323
:1020800019401143018470470A460021018C4FF624
:10209000DF731940130541EA1341018470470A4672
:1020A0000021018C4FF67F731940130541EA13415B
:1020B000018470470A460021018C4FF6FF531940F6
:1020C000130641EA1341018470470A460021018C3E
:1020D0004FF2FF731940130641EA13410184704720
:1020E0000A460021018C4DF6FF731940130741EA9F
:1020F00013410184704730B5002301248C40A3B202
:10210000048CDD43ADB22C400484048C02FA01F54A
:10211000ADB22C43048430BD30B5002304248C4080
:10212000A3B2048CDD43ADB22C400484048C02FACB
:1021300001F5ADB22C43048430BD70B503460020D8
:1021400000241846183001258D40ACB21D8CE643A2
:10215000B6B235401D8409B1082909D100EB6100F0
:10216000056825F0700505600568154305600CE0FD
:102170000D1FADB200EB6500056825F4E045056074
:102180000568160645EA1645056070BD21B102884E
:1021900042F00202028004E002884FF6FD731A400A
:1021A0000280704721B1028842F00402028004E0FC
:1021B00002884FF6FB731A400280704721B1828873
:1021C00042F08002828004E082884FF67F731A40DA
:1021D0008280704702884FF6F7731A4002800288A7
:1021E0000A430280704782884FF68F731A408280BC
:1021F00082880A438280704702894FF6F8731A403A
:10220000028102890A430281704702894FF67F7377
:102210001A40028102890A43028170478184704713
:102220008185704781867047018770478187704735
:10223000A0F84010704702884FF6FF431A40028012
:1022400002880A43028070470146888E7047014623
:10225000088F70470146888F70470146B1F84000EB
:1022600070470146888C70470146088D70470246CA
:102270000020138A0B4201D0012000E000207047AB
:10228000CA430282704730B5024600200023002472
:10229000158A05EA0103958905EA010413B10CB119
:1022A000012000E0002030BDCA43028270470000D8
:1022B0000948804709480047FEE7FEE7FEE7FEE7DA
:1022C000FEE7FEE7FEE7FEE7FEE7FEE70448054916
:1022D000054A064B7047000055020008ED00000853
:1022E0008800002088060020880200208802002044
:1022F0004FF4FA7000F0B3F800F0D1F800F0C8FA2B
:1023000000F017F900F038FB24A1002000F094FB46
:1023100027A1032000F090FB00F02AFC17214EF6C5
:102320005F2000F06FFA37E001212648FEF77FF9C1
:1023300040B925A1062000F07FFB40F2DC51274880
:10234000FFF774FF02211F48FEF771F940B924A17D
:10235000062000F071FB40F6B8312048FFF766FF19
:1023600004211848FEF763F940B922A1062000F0C5
:1023700063FB41F294111948FFF758FF08211148F7
:10238000FEF755F940B91FA1062000F055FB41F6B4
:102390004C511248FFF74AFFC6E7000020202059A1
:1023A0006F756E6754616C6B202020200000000068
:1023B00020202053473930205445535432202020C8
:1023C00000000000000801402020416E676C65207D
:1023D00030202020202020200000000000040040A9
:1023E0002020416E676C652034352020202020207D
:1023F000000000002020416E676C652039302020ED
:10240000202020002020416E676C6520313830206C
:102410002020202000000000704700BFFEE700BF22
:10242000FEE700BFFEE700BFFEE77047704770475A
:10243000704700EBC001C9004FF0E022516100215C
:1024400091610521116100BF4FF0E021096911F48C
:10245000803FF9D004214FF0E0221161704700B5B0
:10246000034603E04FF47A70FFF7E3FF1800A3F18F
:1024700001018BB2F6D100BD10B5044603E04FF464
:102480007A70FFF7ECFF2000A4F101018CB2F6D1C5
:1024900010BD10B54FF4A060FDF75CFF10BD10B586
:1024A000FEF780F94FF48030FEF79CF9FEF7D9F97A
:1024B0000446012C24D14FF4E0110004FEF7F6F994
:1024C0000020FEF710FAA002FEF716FA0020FEF731
:1024D0001CFA0220FEF738FB1020FEF749FB012012
:1024E000FEF7F0F900BF3920FEF79FF90028FAD077
:1024F0000220FEF7EAF900BFFEF7F0F90828FBD149
:1025000010BD000008B501211C20FEF7B2FA012120
:102510004805FEF7BBFAC020ADF800001C208DF87E
:10252000030003208DF802006946B148FDF7EEFF75
:1025300008BD1FB5FFF7E6FF0020ADF804004BF61D
:10254000FF70ADF80600C020ADF808004FF48060C1
:10255000ADF80A000001ADF80C00A64800906946ED
:10256000A548FEF7EEFD0121A348FEF768FE1FBD5A
:102570002DE9F04105460F4614461E4601219E48AE
:10258000FEF781FE00BF9D499B48FEF75BFF0028D8
:10259000F9D0002229469848FEF7CEFE00BF9849A0
:1025A0009548FEF74FFF0028F9D039469248FEF7CC
:1025B000BDFE00BF9249891C8F48FEF743FF0028EB
:1025C000F8D00CE021788C48FEF7B0FE641C00BF08
:1025D0008B49891C8848FEF735FF0028F8D0300069
:1025E000A6F101018EB2EDD101218348FEF757FE1D
:1025F000BDE8F08170B504460E46154601217E48BF
:10260000FEF741FE00BF7D497B48FEF71BFF002817
:10261000F9D0002221467848FEF78EFE00BF7849A7
:102620007548FEF70FFF0028F9D031467248FEF7D3
:102630007DFE00BF7249891C6F48FEF703FF00282A
:10264000F8D029466C48FEF771FE00BF6C49891C22
:102650006948FEF7F7FE0028F8D001216648FEF72A
:102660001EFE70BD2DE9F04106460F4615461C467C
:1026700000BF4FF400316048FEF706FF0028F8D194
:1026800001215D48FEF7FFFD00BF5C495A48FEF797
:10269000D9FE0028F9D0002231465748FEF74CFEFB
:1026A00000BF57495448FEF7CDFE0028F9D001215C
:1026B0005148FEF7C4FD39464F48FEF737FE00BFCC
:1026C0004F49891C4C48FEF7BDFE0028F8D0012177
:1026D0004948FEF7D8FD00BF48494748FEF7B2FE1B
:1026E0000028F9D0012231464348FEF725FE00BFFD
:1026F0004249491C4048FEF7A5FE0028F8D016E0E4
:10270000012C07D100213C48FEF7D5FD01213A48B4
:10271000FEF7C5FD39493F313748FEF793FE30B12A
:102720003548FEF705FE28706D1C601E84B2002C33
:10273000E6D101213048FEF7BEFDBDE8F08170B55D
:1027400004460D4600BF4FF400312B48FEF79CFEB7
:102750000028F8D101212848FEF795FD00BF274940
:102760002548FEF76FFE0028F9D0002221462248B6
:10277000FEF7E2FD00BF22491F48FEF763FE002876
:10278000F9D001211C48FEF75AFD29461A48FEF7E8
:10279000CDFD00BF1A49891C1748FEF753FE0028DB
:1027A000F8D001211448FEF76EFD00BF134912480E
:1027B000FEF748FE0028F9D0012221460E48FEF718
:1027C000BBFD00BF0D49491C0B48FEF73BFE00282E
:1027D000F8D000210848FEF76EFD01210648FEF7FB
:1027E0005EFD0548FEF7A4FD0646304670BD0000BC
:1027F000000C0140400D03000054004001000300A4
:102800008200070030B589B005460C460121022040
:10281000FEF73CF901210820FEF72BF901210846BB
:10282000FEF727F90120ADF8200018208DF82300CD
:1028300003208DF8220008A91348FDF767FEADF8C4
:102840000850ADF804400020ADF80600ADF80A00CD
:1028500001A90E48FEF728FF6020ADF81000002007
:10286000ADF818000120ADF8120004A90748FEF7E2
:10287000E3FF08210548FFF793FB01210348FFF719
:1028800042FA09B030BD0000000C014000040040D5
:1028900008B501217C20FEF7ECF801210846FEF77F
:1028A000E8F84FF4C040ADF8000010208DF80300A8
:1028B00003208DF8020069460F48FDF727FE01212D
:1028C0000E48FDF7F2FE4FF4C0410B48FDF7CBFE7A
:1028D00008BD10B5044622464FF480410648FDF776
:1028E000C4FE10BD10B5044622464FF40051024804
:1028F000FDF7BBFE10BD00000008014000043000E1
:1029000000B587B01C228FA1684600F043F91C2354
:102910006A4600217820FFF72BFE07B000BD70B596
:10292000B0241BE0224600217820FFF763FE10222E
:1029300000217820FFF75EFE002211467820FFF785
:1029400059FE002506E0002240217820FFF752FEC4
:10295000681CC5B2842DF6DB601CC4B2B82CE1DB68
:1029600070BD08B57EA00068009003236A46002170
:102970007820FFF7FDFD08BD10B5FFF7F2FFFFF768
:10298000CEFFFFF7BDFF10BD10B504468122002128
:102990007820FFF72FFE224600217820FFF72AFE3D
:1029A00010BD2DE9F04705460C4616464FF0000ACB
:1029B000A01CC4B2D1463AE005F1B000C2B2002179
:1029C0007820FFF717FE2746E01704EB1070001180
:1029D00000F1100200217820FFF70CFEE01704EB55
:1029E00010700011A4EB0010C2B200217820FFF794
:1029F00001FE4FF0000811E00AEB0610A0F5007090
:102A000058490A5C40217820FFF7F4FD0AF10100E3
:102A100000F0FF0A08F1010000F0FF08B8F1080F0C
:102A2000EADB681CC5B209F1010000F0FF09B9F149
:102A3000020FC1DBBDE8F08770B506460C460025E5
:102A400008E014F8012BE806010E3046FFF7A9FF55
:102A5000681CC5B220780028F3D170BD2DE9F0477D
:102A600005460C4616464FF0000AD14638E005F1FF
:102A7000B000C2B200217820FFF7BCFD2746E01766
:102A800004EB1070001100F1100200217820FFF714
:102A9000B1FDE01704EB10700011A4EB0010C2B2FE
:102AA00000217820FFF7A6FD4FF000080FE00AEBA9
:102AB00046102D490A5C40217820FFF79BFD0AF162
:102AC000010000F0FF0A08F1010000F0FF08B8F172
:102AD000100FECDB681CC5B209F1010000F0FF0922
:102AE000B9F1020FC3DBAF2200217820FFF782FD8E
:102AF000BDE8F08770B5002420E004F1B000C2B258
:102B000000217820FFF776FD102200217820FFF7C2
:102B100071FD022200217820FFF76CFD002509E0FD
:102B200005EBC41011490A5C40217820FFF762FDD3
:102B3000681CC5B2802DF3DB601CC4B2082CDCDB42
:102B400070BD0000AE0010D580A83FD300B0408D0E
:102B500014A1C8DA1281FFD9F1DB302000A4A6AF9E
:102B6000AE8D1000842C0008843200080433000865
:102B700008B501217C20FDF77CFF0F20ADF8000097
:102B800048208DF8030069460148FDF7BFFC08BDE9
:102B90000008014010B5203AC0F00B80B1E8185091
:102BA000203AA0E81850B1E81850A0E81850BFF437
:102BB000F5AF5FEA027C24BFB1E81850A0E81850D6
:102BC00044BF18C918C0BDE810405FEA827C24BF2A
:102BD00051F8043B40F8043B08BF7047D20728BFB8
:102BE00031F8023B48BF11F8012B28BF20F8023B07
:102BF00048BF00F8012B7047704770477047754613
:102C000000F028F8AE4605006946534620F007005C
:102C1000854618B020B5FFF759FBBDE820404FF0BE
:102C200000064FF000074FF000084FF0000B21F0B6
:102C30000701AC46ACE8C009ACE8C009ACE8C00983
:102C4000ACE8C0098D4670470446AFF300802046CB
:102C5000FDF795FA004870472800002001487047AA
:102C6000704700BF2C00002001491820ABBEFEE7D2
:102C700026000200704710B5FFF7F0FF4FF000018B
:102C8000016010BD00000000000000000000000016
:102C900000000000000038FCFC3800000000000DBF
:102CA0000D000000000E1E00001E0E0000000000BF
:102CB0000000000020F8F820F8F82000020F0F02B2
:102CC0000F0F0200387C444747CC98000306041CD1
:102CD0001C07030030300080C06030000C06030188
:102CE000000C0C0080D87CE4BCD84000070F08081A
:102CF000070F080000101E0E00000000000000007A
:102D0000000000000000F0F80C04000000000307C1
:102D10000C0800000000040CF8F000000000080C93
:102D20000703000080A0E0C0C0E0A0800002030113
:102D300001030200008080E0E080800000000003CA
:102D40000300000000000000000000000000101E52
:102D50000E000000808080808080800000000000E5
:102D60000000000000000000000000000000000C57
:102D70000C00000000000080C06030000C06030161
:102D800000000000F8FC04C424FCF800070F090848
:102D9000080F0700001018FCFC0000000008080FD6
:102DA0000F080800080C84C4643C18000E0F0908C2
:102DB000080C0C00080C444444FCB800040C08083F
:102DC000080F0700C0E0B098FCFC8000000000087D
:102DD0000F0F08007C7C4444C4C48400040C080821
:102DE000080F0700F0F84C4444C08000070F0808A3
:102DF000080F07000C0C0484C47C3C0000000F0F7B
:102E000000000000B8FC444444FCB800070F080868
:102E1000080F0700387C444444FCF8000008080808
:102E20000C07030000000030300000000000000626
:102E30000600000000000030300000000000080E16
:102E4000060000000080C060301808000000010388
:102E5000060C080040404040404040000202020290
:102E6000020202000008183060C0800000080C0652
:102E700003010000181C04C4E43C18000000000D0D
:102E80000D000000F0F808C8C8F8F000070F080BA4
:102E90000B0B0100E0F0988C98F0E0000F0F0000A1
:102EA000000F0F0004FCFC4444FCB800080F0F089E
:102EB000080F0700F0F80C04040C180003070C08B6
:102EC000080C060004FCFC040CF8F000080F0F08C6
:102ED0000C07030004FCFC44E40C1C00080F0F0862
:102EE000080C0E0004FCFC44E40C1C00080F0F0846
:102EF00000000000F0F80C84848C980003070C0894
:102F000008070F00FCFC404040FCFC000F0F0000D5
:102F1000000F0F00000004FCFC0400000000080F7C
:102F20000F08000000000004FCFC0400070F080864
:102F30000F07000004FCFCC0F03C0C00080F0F0061
:102F4000010F0E0004FCFC0400000000080F0F0835
:102F5000080C0E00FCFC387038FCFC000F0F000061
:102F6000000F0F00FCFC3870E0FCFC000F0F0000AD
:102F7000000F0F00F0F80C040CF8F00003070C0829
:102F80000C07030004FCFC44447C3800080F0F08C5
:102F900000000000F8FC040404FCF800070F080E11
:102FA0003C3F270004FCFC44C4FC3800080F0F0021
:102FB000000F0F00183C6444C49C1800060E08085B
:102FC000080F0700001C0CFCFC0C1C000000080F84
:102FD0000F080000FCFC000000FCFC00070F0808C4
:102FE000080F0700FCFC000000FCFC000103060CBD
:102FF00006030100FCFC008000FCFC00030F0E0334
:103000000E0F03000C3CF0C0F03C0C000C0F030052
:10301000030F0C00003C7CC0C07C3C000000080F8B
:103020000F0800001C0C84C4643C1C000E0F09082F
:10303000080C0E000000FCFC0404000000000F0F50
:10304000080800003870E0C08000000000000001A7
:1030500003070E0000000404FCFC00000000080848
:103060000F0F0000080C0603060C0800000000000B
:1030700000000000000000000000000020202020D0
:1030800020202020000003070400000000000000B2
:103090000000000000A0A0A0E0C00000070F08088A
:1030A000070F080004FCFC2060C08000080F070820
:1030B000080F0700C0E0202020604000070F08082C
:1030C000080C040080C06024FCFC0000070F080806
:1030D000070F0800C0E0A0A0A0E0C000070F08088C
:1030E000080C040040F8FC440C180000080F0F08FE
:1030F00000000000C0E02020C0E02000276F48480A
:103100007F3F000004FCFC4020E0C000080F0F00DF
:10311000000F0F00000020ECEC0000000000080F82
:103120000F0800000000000020ECEC0000307040B0
:10313000407F3F0004FCFC80C0602000080F0F01AE
:10314000030E0C00000004FCFC0000000000080F4F
:103150000F080000E0E060C060E0C0000F0F000F4B
:10316000000F0F0020E0C02020E0C000000F0F0083
:10317000000F0F00C0E0202020E0C000070F08086B
:10318000080F070020E0C02020E0C000407F7F48FB
:10319000080F0700C0E02020C0E02000070F08480B
:1031A0007F7F400020E0C0602060C000080F0F0853
:1031B0000000000040E0A02020604000040C09094D
:1031C0000B0E04002020F8FC202000000000070F58
:1031D000080C0400E0E00000E0E00000070F080831
:1031E000070F080000E0E00000E0E0000003070C2B
:1031F0000C070300E0E0000000E0E000070F0C0710
:103200000C0F07002060C080C0602000080C07037E
:10321000070C0800E0E0000000E0E000474F4848ED
:10322000683F1F00606020A0E06020000C0E0B09CA
:10323000080C0C00004040F8BC040400000000072B
:103240000F080800000000BCBC0000000000000FD8
:103250000F000000000404BCF84040000008080F04
:1032600007000000080C040C080C0400000000001B
:103270000000000080C0603060C0800007070404C8
:10328000040707001022640C8008494A4CF84C4A95
:10329000490800000404FE010404040404FF0404BB
:1032A000040604001010D0FF50902040FF00FF40A3
:1032B00020300000040300FF8044221907003F4132
:1032C0004640700000F848484848FF48484848FCD5
:1032D000080000000007020202023F424242424749
:1032E0004070000080808282828282E2A2928A867E
:1032F00080C08000000000000040807F00000000CF
:1033000000000000000000000000000000000000BD
:1033100000000000000000000000000000000000AD
:10332000000000000000000000000000000000009D
:10333000000000000000000000000000000000008D
:10334000000000000000000000000000000000007D
:10335000000000000000000000000000000000006D
:10336000000000000000000000000000000000005D
:10337000000000000000000000000000000000004D
:10338000000000000000000000000000000000003D
:1033900000000000000000000000000000F8FC1C1D
:1033A0003830381CFCF800F8F800F8F8000000F895
:1033B000FC8C8C8C0080D050F0E000F0F0203000CD
:1033C00000808000808000808000000C1224120C9D
:1033D000000000000000000080000000000000006D
:1033E0001824448844241800000000000000000055
:1033F00000000000000000000000000000000000CD
:1034000000000000000000000000000000000000BC
:1034100000000000000000000000000000038380A6
:1034200000808000030300080B0B0F0780408040E2
:1034300083030303000003030303000383808080EE
:1034400080C3C3C0C3C3C0C3C3C0C0C0C0C080802A
:1034500080C0C0402018040300000000002050A0DD
:1034600050200000000000000000000000000000EC
:10347000000000000000000000000000000000004C
:10348000000000000000000000000000000000003C
:10349000000000000000000000000000000304081D
:1034A000110804030000000000000000010284C2B3
:1034B000E160301078ECFCF63A1B05859713121387
:1034C000131111111111110181FFF9F9F2C28222B8
:1034D00025058D8B93B3E6C68C1C18387070E0C040
:1034E000800000000000001824482418000000009C
:1034F00000000000000000000000000000000000CC
:1035000000000000000000000000000000000000BB
:10351000000000000000000000000000000080E04B
:10352000E0703018181C1C1C0C1C1616160627639D
:103530006DAECE0E0E0F0F0F0E060607070606061F
:103540000606060606060666776767E707070706A4
:103550000606070787C76723231210000808090B10
:103560000F0E0E0C3C70F0C0800000000000000048
:10357000000000000000000000000000000000004B
:10358000000000000000000000000000000000003B
:1035900000000000000000000000F0F8DEFFF6363A
:1035A00011E0F0F8FCFEDE1E3F3F1EFEFEFCF8F2CE
:1035B000E4080107FC00000000000000000000001B
:1035C0000000000000000000000000FF00000000FC
:1035D000003CFFE7311CE6FFFFFFFEFE1F3F3F1FE1
:1035E000FFFEFEFCF8F8F031FBFFFEFC38000000A7
:1035F00000000000000000000000000000000000CB
:1036000000000000000000000000000000000000BA
:10361000000000000000000000000003074F4C60A5
:10362000607F7F7F7F7D4D44727240797D7F7F7F99
:103630007F7C707073737070747474747474747449
:103640007474747476767676767676737070727239
:1036500072737070707C7F7F7F7F7D7D627272601D
:10366000687D7F7F7F7F777467676300000000005D
:10367000000000000000000000000000000000004A
:10368000000000000000000000000000000000003A
:10369000000000000000000000000000000000002A
:1036A000000000000000000000000000000000001A
:1036B000000000000000000000000000000000000A
:1036C00000000000000000000000000000000000FA
:1036D00000000000000000000000000000000000EA
:1036E00000000000000000000000000000000000DA
:1036F00000000000000000000000000000000000CA
:10370000000000002437000800000020280000000E
:10371000280100084C37000828000020600600003F
:103720004401000800A24A0400000000000000005C
:103730000102030406070809000000000102030457
:0C37400001020304060708090204060841
:04000005080000ED02
:00000001FF
