:020000040800F2
:1000000008070020CD170008C5190008C719000807
:10001000CB190008CF190008D31900080000000010
:10002000000000000000000000000000D7190008D8
:10003000D919000800000000DB190008DD190008CC
:10004000E7170008E7170008E7170008E717000898
:10005000E7170008E7170008E7170008E717000888
:10006000E7170008E7170008E7170008E717000878
:10007000E7170008E7170008E7170008E717000868
:10008000E7170008E7170008E7170008E717000858
:10009000E7170008E7170008E7170008E717000848
:1000A000E7170008E7170008E7170008E717000838
:1000B000E7170008E7170008E7170008E717000828
:1000C000E7170008E7170008E7170008E717000818
:1000D000E7170008E7170008E7170008E717000808
:1000E000E7170008E7170008E717000800F002F814
:1000F00000F03AF80AA090E8000C82448344AAF188
:100100000107DA4501D100F02FF8AFF2090EBAE885
:100110000F0013F0010F18BFFB1A43F0010318473B
:10012000BC330000DC330000103A24BF78C878C12B
:10013000FAD8520724BF30C830C144BF04680C60ED
:10014000704700000023002400250026103A28BF35
:1001500078C1FBD8520728BF30C148BF0B60704739
:100160001FB51FBD10B510BD02F040FC1146FFF7D2
:10017000F7FF01F04BFB02F05EFC03B4FFF7F2FF68
:1001800003BC02F063FC000000210020674A1268F3
:1001900042F48032654B1A6000BF644A126802F470
:1001A0000030491C10B9B1F5A06FF6D15F4A126852
:1001B00012F4003F01D0012000E00020012842D1CC
:1001C0005B4A126842F01002594B1A601A461268D4
:1001D00022F003021A601A46126842F002021A6004
:1001E000524A5268514B5A601A4652685A601A462F
:1001F000526842F480625A601A46526822F47C12B5
:100200005A601A46526842F4E8125A601A46126856
:1002100042F080721A6000BF444A126812F0007FF8
:10022000FAD0424A526822F00302404B5A601A4602
:10023000526842F002025A6000BF3C4A526802F023
:100240000C02082AF9D1704710B5FFF79DFF10BDC9
:1002500010B53648006840F001003449086008468F
:1002600040683449084031494860084600683249CE
:1002700008402E4908600846006820F48020086085
:100280000846406820F4FE0048604FF41F00886074
:10029000FFF7DAFF4FF000602849086010BD10B585
:1002A000002100200022214B5B6803F00C0121B1EA
:1002B000042906D0082928D107E0214B214C2360CE
:1002C00027E01F4B1F4C236023E0184B5B6803F4AF
:1002D0007010164B5B6803F48032022303EB9040EE
:1002E00022B9194B4343174C23600DE00F4B5B6859
:1002F00013F4003F04D0144B4343124C236003E03B
:100300000F4B43430F4C236003E00D4B0D4C236018
:1003100000BF00BF054B5B68C3F303130B4CE15CEC
:10032000084B1B68CB40074C236010BD00100240F7
:10033000002002400000FFF8FFFFF6FE08ED00E09D
:1003400000127A000000002000093D000400002097
:1003500031490143314A1160704770B500210023D3
:100360000F22C4780CB32D4C246804F4E064C4F567
:10037000E064210AC1F10403CA40447804FA03F19D
:100380008478144021430901254C0678A15504784E
:1003900004F01F050124AC4005786D114FF0E026F4
:1003A00006EB8505C5F8004109E0047804F01F0557
:1003B0000124AC401B4D0678761145F8264070BDEF
:1003C000194A0A400243154B1B1F1A60704739B186
:1003D000124A121D12680243104B1B1D1A6006E0E0
:1003E0000E4A121D126882430C4B1B1D1A60704787
:1003F000042808D14FF0E021096941F004014FF0D1
:10040000E022116107E04FF0E021096921F00401C9
:100410004FF0E022116170470000FA050CED00E09A
:1004200000E400E080E100E080FFFF1F10B504461B
:10043000CA48844208D10121042000F023FB002196
:10044000042000F01FFB46E0C548844208D101218A
:10045000082000F017FB0021082000F013FB3AE011
:10046000C048844208D10121102000F00BFB00217C
:10047000102000F007FB2EE0BB48844208D1012188
:10048000202000F0FFFA0021202000F0FBFA22E0FB
:10049000B648844208D10121402000F0F3FA00213F
:1004A000402000F0EFFA16E0B148844208D1012163
:1004B000802000F0E7FA0021802000F0E3FA0AE053
:1004C000AC48844207D10121801500F0DBFA0021FD
:1004D000A01500F0D7FA10BD10B50121084600F0B4
:1004E000D1FA0021012000F0CDFA10BD2DE9F04134
:1004F000024600250026002000230024002791F852
:1005000003C00CF00F0591F803C01CF0100F03D0CE
:1005100091F802C04CEA050591F800C0BCF1000F4B
:1005200031D0146800202BE04FF0010C0CFA00F3DE
:10053000B1F800C00CEA03069E4220D183004FF0C0
:100540000F0C0CFA03F7BC4305FA03FC4CEA040455
:1005500091F803C0BCF1280F06D14FF0010C0CFA42
:1005600000FCC2F814C00AE091F803C0BCF1480FC7
:1005700005D14FF0010C0CFA00FCC2F810C0401C71
:100580000828D1D31460B1F800C0BCF1FF0F34DDEE
:10059000546800202EE000F1080C4FF0010808FA22
:1005A0000CF3B1F800C00CEA03069E4221D183008F
:1005B0004FF00F0C0CFA03F7BC4305FA03FC4CEAAE
:1005C000040491F803C0BCF1280F05D100F1080C18
:1005D00008FA0CF8C2F8148091F803C0BCF1480F77
:1005E00007D100F1080C4FF0010808FA0CF8C2F826
:1005F0001080401C0828CED35460BDE8F0814FF62F
:10060000FF710180022181700421C1707047024690
:10061000002093680B4201D0012000E000207047C9
:100620000146886880B2704702460020D3680B42BA
:1006300001D0012000E0002070470146C86880B268
:10064000704701617047416170470AB1016100E084
:1006500041617047C16070474FF480320A43826144
:100660008161826182698269704702460020424B43
:1006700018684FF68073184040EA021008433E4B5A
:10068000186070473D49C8617047F0B50A460023BD
:1006900000240021002500F00046B6F1004F02D1F1
:1006A000354EF16901E0344E7168C0F3034583B201
:1006B00000F44016B6F5401F08D121F070612E4EAF
:1006C000766826F070662C4F7E6012E000F480168B
:1006D000B6F5801F06D1032606FA05F4A14341F0C2
:1006E000706106E0460D360103FA06F6B14341F0AB
:1006F000706122B1460D360103FA06F6314300F06F
:100700000046B6F1004F02D11B4EF16101E01A4ED6
:100710007160F0BD30B500228B071C0F0F2303FA68
:1007200004F2154B08338C1053F824309343124CC9
:1007300008348D1044F8253023468C1053F82430AB
:100740008C07240F00FA04F423430B4C08348D105B
:1007500044F8253030BD0A49086070470008014060
:10076000000C01400010014000140140001801403D
:10077000001C014000200140000001400000204218
:10078000DC002042DB48006840F00100D9490860E5
:1007900008464068D8490840D6494860084600687D
:1007A000D6490840D34908600846006820F48020F4
:1007B00008600846406820F4FE0048604FF41F00BF
:1007C00088607047CB49096821F48031C94A1160BB
:1007D0001146096821F480211160B0F5803F03D0F3
:1007E000B0F5802F0ED106E0C249096841F480318E
:1007F000C04A116007E0BF49096841F4A021BD4A21
:10080000116000E000BF00BF704710B50146002234
:10081000002300204A11012A02D1B64C236806E0C9
:10082000022A02D1B34C236A01E0B24C636A01F0A0
:100830001F02012494401C4201D0012000E000204E
:1008400010BD70B500240025002600BF3120FFF741
:10085000DCFF0646641CB4F5A06F01D0002EF5D075
:100860003120FFF7D2FF08B1012500E0002528461E
:1008700070BD014600209F4A106820F0F80040EA51
:10088000C100106070479E49086070470246002012
:10089000984B586820F47C1042EA01031843954BAA
:1008A0005860704796490866704701460020914A93
:1008B000506820F003000843506070478D4840683E
:1008C00000F00C007047014600208A4A506820F072
:1008D000F00008435060704701460020854A506888
:1008E00020F4E06008435060704701460020814AD0
:1008F000506820F4605040EAC1005060704729B150
:100900007C4A527A02437B4B5A7204E0794A527A0B
:100910008243784B5A7270477A49086070470146A3
:100920000020744A506820F44040084350607047EB
:100930000021754A11706F4A82F82010012802D0F8
:10094000042808D103E001216F4A117004E0052159
:100950006D4A117000E000BF00BF70476B4908602E
:1009600070476449096A0143624A116270476749E6
:1009700044390860704730B500210022002400236C
:100980005C4D6D6805F00C0121B1042905D00829E2
:1009900023D105E05E4D056022E05D4D05601FE05E
:1009A000544D6D6805F47012524D6D6805F4803435
:1009B000022505EB92421CB9564D554305600BE0EC
:1009C0004C4D6D6815F4003F03D0524D5543056002
:1009D00002E04F4D5543056002E04D4D056000BFFC
:1009E00000BF444D6D6805F0F00109094A4D6B5C8C
:1009F0000568DD4045603F4D6D6805F4E061090A1A
:100A0000454D6B5C4568DD4085603A4D6D6805F489
:100A10006051C90A404D6B5C4568DD40C560354D8D
:100A20006D6805F44041890B3C4D6B5CC568B5FBB6
:100A3000F3F5056130BD29B12E4A526902432D4BB1
:100A40005A6104E02B4A526982432A4B5A6170472B
:100A500029B1284A92690243264B9A6104E0254A4B
:100A600092698243234B9A61704729B1214AD26926
:100A70000243204BDA6104E01E4AD26982431D4BD7
:100A8000DA61704729B11B4AD2680243194BDA6018
:100A900004E0184AD2688243164BDA60704729B1E5
:100AA000144A12690243134B1A6104E0114A126995
:100AB0008243104B1A6170471449403908607047EF
:100AC0000F49C86470470B49C87170470948406AAC
:100AD00040F0807007494862704701460020054A8F
:100AE00092680A4201D0012000E0002070470149CD
:100AF00088727047001002400000FFF8FFFFF6FE0A
:100B000000004242D800424220100240800442428B
:100B100000127A0000093D0014000020240000208B
:100B200001460020FE4A106800F0380008431060BB
:100B30007047FB49096821F00801F94A1160114624
:100B40000968014311607047F549096821F01001F7
:100B5000F34A116011460968014311607047F1487A
:100B6000EF494860F04848607047EE48EC494860FB
:100B7000ED4848607047EA48006940F08000E84965
:100B800008617047E648006940F08000E449086168
:100B900070470420E249C96811F0010F01D001201B
:100BA0000EE0DF49C96811F0040F01D0022007E010
:100BB000DB49C96811F0100F01D0032000E00420C8
:100BC000704700B502460423FFF7E3FF034603E046
:100BD000FFF7DFFF0346521E012B01D1002AF7D198
:100BE00002B90523184600BD30B5044604254FF46C
:100BF0003020FFF7E6FF0546042D17D1C8480069ED
:100C000040F00200C649086108464461006940F0AE
:100C1000400008614FF43020FFF7D3FF0546C0487D
:100C2000006941F6FD710840BD490861284630BDA4
:100C300010B504244FF43020FFF7C3FF0446042C02
:100C400016D1B748006940F00400B549086108466C
:100C5000006940F0400008614FF43020FFF7B1FF19
:100C60000446AF48006941F6FB710840AC49086191
:100C7000204610BD00B502460423FFF78AFF034655
:100C800003E0FFF786FF0346521E012B01D1002A25
:100C9000F7D102B90523184600BD10B504244FF45E
:100CA0003020FFF7E7FF0446042C16D19C4800696A
:100CB00040F004009A4908610846006940F040008D
:100CC00008614FF43020FFF7D5FF044694480069CF
:100CD00041F6FB71084092490861204610BD002092
:100CE0008F49C96911F0020F01D0012000E00020F6
:100CF000704730B5A5250424FFF7F1FF00B10025AA
:100D00004FF43020FFF75DFF0446042C3AD18548AC
:100D100083498860844888600846006940F0200064
:100D200008610846006940F0400008614FF4302037
:100D3000FFF747FF0446042C1BD17948006941F6B0
:100D4000DF710840764908610846006940F01000EC
:100D5000086176480580E002FFF733FF0446052C62
:100D600010D06F48006941F6EF7108406C49086186
:100D700008E0052C06D06A48006941F6EF7108408A
:100D800067490861204630BDF0B504460D4604268B
:100D90000027F002FFF715FF0646042E22D1604817
:100DA000006940F001005E4908612580F002FFF70C
:100DB00008FF0646042E0ED1A71C280C3880F0022E
:100DC000FFF7FFFE06465648006941F6FE710840EF
:100DD0005349086106E05248006941F6FE71084037
:100DE0004F4908613046F0BD70B504460D460426F3
:100DF000F002FFF7E6FE0646042E11D148480069CE
:100E000040F00100464908612580F002FFF7D9FE55
:100E100006464348006941F6FE71084040490861B2
:100E2000304670BD70B505460E460424E002FFF75B
:100E3000C8FE0446042C17D13A48394988603A481C
:100E400088600846006940F0100008612E80E002CA
:100E5000FFF7B7FE0446052C06D03148006941F67D
:100E6000EF7108402E490861204670BD2DE9F0431E
:100E700004464FF6FF763746B046B1460425E443B4
:100E8000E6B2C4F30727C4F307484FEA1469E8023F
:100E9000FFF797FE0546042D40D12248204988607F
:100EA000214888600846006940F010000861FF2E64
:100EB00006D01E4808300680E802FFF782FE05468D
:100EC000042D08D1FF2F06D018480A300780E80209
:100ED000FFF777FE0546042D0AD1B8F1FF0F07D0C2
:100EE00012480C30A0F80080E802FFF76AFE0546C1
:100EF000042D0AD1B9F1FF0F07D00C480E30A0F82D
:100F00000090E802FFF75DFE0546052D06D0044877
:100F1000006941F6EF71084001490861284607E081
:100F20000020024023016745AB89EFCD00F8FF1F89
:100F3000BDE8F08330B5054604244FF43020FFF7B8
:100F400040FE0446042C41D15E485F4988605F48FA
:100F500088600846006940F0200008610846006982
:100F600040F0400008614FF43020FFF72AFE0446AD
:100F7000042C22D15448006941F6DF7108405249DF
:100F800008610846006940F0100008611DB10020AA
:100F90004F49088002E0A5204D4908804FF43020D9
:100FA000FFF70FFE0446052C10D04748006941F6B4
:100FB000EF7108404449086108E0052C06D042481A
:100FC000006941F6DF7108403F490861204630BDA5
:100FD000F0B505460E46174604243A483A4988605B
:100FE0003A488860E002FFF7ECFD0446042C19D172
:100FF0003548006940F010003349086147F0F800B7
:10100000304328433249891C0880E002FFF7D9FDAC
:101010000446052C06D02C48006941F6EF710840C3
:10102000294908612046F0BD2748C06980087047FB
:101030002548006A704700202349096811F0200FF5
:1010400001D0012000E00020704729B11E4A12693A
:1010500002431D4B1A6104E01B4A126982431A4B7A
:101060001A61704701460020012908D1164AD26949
:1010700012F0010F01D0012008E0002006E0124A22
:10108000D2680A4201D0012000E0002070470E49DA
:10109000C860704704200C49C96811F0010F01D0E5
:1010A00001200EE00849C96811F0040F01D00220A8
:1010B00007E00549C96811F0100F01D0032000E0D6
:1010C000042070472301674500200240AB89EFCD23
:1010D00000F8FF1F10B50446F548844209D10121EC
:1010E0004805FFF7DCFC00214FF40010FFF7D7FCA8
:1010F00008E001218805FFF7D2FC00214FF48000B1
:10110000FFF7CDFC10BD2DE9F04385B004460D4638
:101110000026B1460427DFF89C83A6884FF6C070EE
:1011200006406846FFF727FCDDF80880E248B8FB78
:10113000F0F01FFA80F946EA0906A68020884FF6EB
:10114000FE71084020800026DC49286888420CD8BF
:1011500028684000B8FBF0F087B2042F00DA0427BB
:101160003E4309F10100208427E0E888A0F53F41D3
:10117000FF3906D1286800EB4000B8FBF0F087B2D9
:1011800009E0286800EBC00101EB0010B8FBF0F0AB
:1011900087B247F480473805000D01D147F00107B9
:1011A00047F4004006434FF4967009FB00F04FF4FB
:1011B0007A7190FBF1F0401C2084A683208840F0D7
:1011C0000100208026884FF6F5300640A8886989FE
:1011D000084306432680A88929890843208105B051
:1011E000BDE8F08341F288310160002181804BF637
:1011F000FF71C1800021018141814FF480418181D3
:10120000704721B1028842F00102028004E00288A6
:101210004FF6FE731A400280704721B1828842F473
:101220000062828004E082884FF2FF731A4082805D
:10123000704721B1828842F48052828004E0828823
:101240004EF6FF731A408280704721B1028842F443
:101250008072028004E002884FF6FF631A40028029
:10126000704721B1028842F40072028004E00288D3
:101270004FF6FF531A400280704721B1028842F4B2
:101280008062028004E002884FF6FF331A40028039
:1012900070470A46002181894FF60173194002F018
:1012A000FE0319438181704721B1828942F0010216
:1012B000828104E082894FF6FE731A408281704772
:1012C00021B1028842F04002028004E002884FF619
:1012D000BF731A40028070471AB183880B43838022
:1012E00002E083888B438380704701827047014608
:1012F000088AC0B2704712B141F0010102E04FF616
:10130000FE731940018270470246002313460B44C6
:101310001888704721B1028842F40042028003E03D
:101320000288C2F30E0202807047B1F5006F04D14B
:10133000028842F40062028004E002884FF2FF73E8
:101340001A4002807047B1F5005F04D1028842F470
:101350000052028004E002884DF6FF731A400280BA
:10136000704721B1028842F48052028004E0028872
:101370004EF6FF731A4002807047B1F5006F04D13A
:10138000028842F40062028004E002884FF2FF7398
:101390001A400280704721B1028842F02002028088
:1013A00004E002884FF6DF731A400280704701465E
:1013B000088B0012704721B1028842F010020280AF
:1013C00004E002884FF6EF731A400280704721B99B
:1013D000028842F08002028004E002884FF67F73A8
:1013E0001A4002807047B1F5804F05D0828B4BF6D2
:1013F000FF731A40828303E0828B42F4804282832F
:10140000704770B502460024002500230020958A0D
:10141000138B1B0445EA030626F07F4404EA010609
:101420008E4201D1012000E0002070BD10B50146C0
:101430000020002300228B8A0A8B120443EA020454
:1014400024F07F4010BD30B5034600200024002268
:101450001A460C0F21F07F410CB1143201E0090C47
:10146000183215680D4201D0012000E0002030BD87
:10147000002221F07F42D3438382704730B5024679
:1014800000200023948801F0E06504EA154321F070
:101490007F41948A0C4202D00BB1012000E0002071
:1014A00030BD002221F07F42D34383827047000089
:1014B0000054004000127A0040420F00A086010054
:1014C00010B50446BE48844208D101218014FFF7BC
:1014D000D9FA0021A014FFF7D5FA16E0B9488442E2
:1014E00008D101210014FFF7DAFA00212014FFF7D8
:1014F000D6FA0AE0B448844207D10121C013FFF7AD
:10150000CEFA0021E013FFF7CAFA10BD10B5002291
:10151000028802F441520B884C8823438C88234371
:10152000CC8823430C8923434C8923438C89234350
:10153000CC8923431A430280838B4FF2FF742340EC
:1015400083830B8A038210BD2DE9F04F85B00546D9
:101550000C464FF0000902274FF000084FF0010B36
:101560000026B246A88B4FF240010840A883022013
:101570002884B5F81C90A068022801D100BF38E08B
:10158000A08810B94FF0010B01E04FF0020B8D481D
:10159000854200D100E000BF6846FFF7ECF9DDF8B6
:1015A00000A0E088B0F5007F0AD14FEA1A2000EBD6
:1015B00080004000A168B0FBF1F0401D86B20BE056
:1015C0004FEA4B10BAFBF0F000EB80004000A1683E
:1015D000B0FBF1F0401D86B20A20B6FBF0F606F033
:1015E0000108A6EB0800C0F34F074FF6FF7000EAB2
:1015F0000828022F01DBFF2F02DD02274FF0000831
:10160000E08840EA080038432884A088A18908437C
:10161000618808432188084340F4006040EA0909D2
:10162000A5F81C9005B0BDE8F08F00210180418035
:101630008180C180018141818181C1810721018235
:1016400070470021018041808180C180022181603A
:1016500000218181704721B1028842F0400202805E
:1016600004E002884FF6BF731A400280704721B130
:10167000828B42F48062828304E0828B4FF6FF33D8
:101680001A408283704730B5002400230C110125D5
:10169000A540ABB21AB185881D43858002E08588DC
:1016A0009D43858030BD1AB183880B43838002E05F
:1016B00083888B4383807047818170470146888986
:1016C0007047A1F57E42FF3A04D0028842F480724E
:1016D000028004E002884FF6FF631A4002807047E0
:1016E00021B1828842F00402828004E082884FF6B1
:1016F000FB731A408280704702884FF2FF731A40D2
:10170000028002880A4302807047018841F48051B8
:101710000180704721B1028842F40052028004E047
:1017200002884DF6FF731A4002807047024600207F
:10173000012901D0108B00E0908A70470146088A89
:101740007047B1F5804F04D1028842F48042028094
:1017500004E002884BF6FF731A400280704702468D
:10176000002013890B4201D0012000E000207047C7
:10177000CA4302817047F0B50246002000240023CE
:10178000002501F00F070126BE40B4B20B1101265F
:101790009E40B3B2968806EA03051689264202D017
:1017A0000DB1012000E00020F0BD10B5002201F0D5
:1017B0000F040123A3409AB2D343038110BD00005C
:1017C0000030014000380040003C0040094880479C
:1017D00009480047FEE7FEE7FEE7FEE7FEE7FEE713
:1017E000FEE7FEE7FEE7FEE704480549054A064B2B
:1017F0007047000051020008ED00000808010020B9
:101800000807002008030020080300204FF4FA70A6
:1018100000F0FBF800F019F900F03AFB00F04AFB89
:1018200000F05DF900F0BAFB38A1002000F016FCD2
:101830003BA1022000F012FC00F0BAFA00F00FFD0C
:10184000142803D13BA1042000F008FC5CE002E076
:10185000642000F0DAF800F089FE1428F8D13AA1EB
:10186000062000F0FBFBC82000F0CFF8002514E0B4
:10187000322000F0CAF800F083FE0446142C00D198
:101880000DE0822C00D10AE000F050FE032802DBBC
:10189000052D00DB03E0681CC5B2642DE8DB00BF4A
:1018A0002EA1062000F0DAFBC82000F0AEF830A030
:1018B00000F0EBFE0446C82000F0A7F82FA1364840
:1018C00001F018F8C4B200222146334800F072FF3C
:1018D0000446C82000F099F8012000F015FF0446E6
:1018E0002EA1062000F0BAFB03E04FF4FA7000F0DE
:1018F0008CF800F03BFE1428F7D02DA1062000F054
:10190000ADFBC82000F081F8A1E70000202020599D
:101910006F756E6754616C6B202020200000000002
:10192000202055204449534B205445535420202017
:10193000000000002020204348333736204F4B2141
:1019400020202020000000002055204449534B2037
:101950005265616479212020000000002055204458
:1019600049534B20494E49542120202000000000BB
:101970002FD1F3CCD22E545854000000D1F3CCD246
:10198000B5E7D7D3207777772E446F596F756E6799
:101990002E6E65742F5954002800002020552044D5
:1019A00049534B20535543434553532000000000F7
:1019B0002020202020202020202020202020202027
:1019C00000000000704700BFFEE700BFFEE700BF59
:1019D000FEE700BFFEE7704770477047704700EBB7
:1019E000C001C9004FF0E022516100219161052141
:1019F000116100BF4FF0E021096911F4803FF9D077
:101A000004214FF0E0221161704700B5034603E066
:101A10004FF47A70FFF7E3FF1800A3F101018BB2D6
:101A2000F6D100BD10B5044603E04FF47A70FFF71D
:101A3000ECFF2000A4F101018CB2F6D110BD10B56D
:101A40004FF4A060FEF784FC10BD10B5FEF79AFEBF
:101A50004FF48030FEF7B6FEFEF7F3FE0446012C8D
:101A600024D14FF4E0110004FEF710FF0020FEF730
:101A70002AFFA002FEF730FF0020FEF736FF02200B
:101A8000FFF74EF81020FFF75FF80120FEF70AFF7E
:101A900000BF3920FEF7B9FE0028FAD00220FEF779
:101AA00004FF00BFFEF70AFF0828FBD110BD0000AD
:101AB00008B501211C20FEF7CBFF01214805FEF7E8
:101AC000D4FFC020ADF800001C208DF803000320D7
:101AD0008DF802006946B148FEF708FD08BD1FB544
:101AE000FFF7E6FF0020ADF804004BF6FF70ADF8FD
:101AF0000600C020ADF808004FF48060ADF80A0081
:101B00000001ADF80C00A64800906946A548FFF713
:101B1000FAFA0121A348FFF774FB1FBD2DE9F0413C
:101B200005460F4614461E4601219E48FFF78DFBD1
:101B300000BF9D499B48FFF764FC0028F9D00022B4
:101B400029469848FFF7D7FB00BF98499548FFF70B
:101B500058FC0028F9D039469248FFF7C6FB00BF71
:101B60009249891C8F48FFF74CFC0028F8D00CE004
:101B700021788C48FFF7B9FB641C00BF8B49891C96
:101B80008848FFF73EFC0028F8D03000A6F101019C
:101B90008EB2EDD101218348FFF763FBBDE8F081F0
:101BA00070B504460E46154601217E48FFF74DFBF1
:101BB00000BF7D497B48FFF724FC0028F9D00022B4
:101BC00021467848FFF797FB00BF78497548FFF733
:101BD00018FC0028F9D031467248FFF786FB00BF99
:101BE0007249891C6F48FFF70CFC0028F8D0294681
:101BF0006C48FFF77AFB00BF6C49891C6948FFF706
:101C000000FC0028F8D001216648FFF72AFB70BDD0
:101C10002DE9F04106460F4615461C4600BF4FF41D
:101C200000316048FFF70FFC0028F8D101215D4822
:101C3000FFF70BFB00BF5C495A48FFF7E2FB0028A7
:101C4000F9D0002231465748FFF755FB00BF5749EE
:101C50005448FFF7D6FB0028F9D001215148FFF77F
:101C6000D0FA39464F48FFF740FB00BF4F49891C67
:101C70004C48FFF7C6FB0028F8D001214948FFF780
:101C8000E4FA00BF48494748FFF7BBFB0028F9D0FA
:101C9000012231464348FFF72EFB00BF4249491C51
:101CA0004048FFF7AEFB0028F8D016E0012C07D122
:101CB00000213C48FFF7E1FA01213A48FFF7D1FA49
:101CC00039493F313748FFF79CFB30B13548FFF7C2
:101CD0000EFB28706D1C601E84B2002CE6D1012121
:101CE0003048FFF7CAFABDE8F08170B504460D46EA
:101CF00000BF4FF400312B48FFF7A5FB0028F8D1B7
:101D000001212848FFF7A1FA00BF27492548FFF71E
:101D100078FB0028F9D0002221462248FFF7EBFA91
:101D200000BF22491F48FFF76CFB0028F9D00121B2
:101D30001C48FFF766FA29461A48FFF7D6FA00BF93
:101D40001A49891C1748FFF75CFB0028F8D00121CD
:101D50001448FFF77AFA00BF13491248FFF751FB06
:101D60000028F9D0012221460E48FFF7C4FA00BF2F
:101D70000D49491C0B48FFF744FB0028F8D000210F
:101D80000848FFF77AFA01210648FFF76AFA054882
:101D9000FFF7ADFA0646304670BD0000000C01406A
:101DA000400D0300005400400100030082000700C2
:101DB00000B587B001218803FEF757FE4FF480403D
:101DC000ADF8040004208DF8070001A92E48FEF7A5
:101DD0008DFB4FF42040ADF8040003208DF8060081
:101DE00018208DF8070001A92748FEF77FFB4FF464
:101DF0008050ADF8040003208DF8060010208DF807
:101E0000070001A92048FEF771FB0020ADF808008B
:101E10004FF48270ADF80A000020ADF80C000220EB
:101E2000ADF80E000120ADF810004002ADF8120030
:101E30003820ADF814000020ADF816000720ADF8EA
:101E4000180002A91148FFF761FB01210F48FFF7B5
:101E500002FC07B000BD10B5044600BF02210B48CC
:101E6000FFF77DFC0028F9D021460848FFF724FC45
:101E700000BF01210548FFF772FC0028F9D0034894
:101E8000FFF71CFCC0B210BD000C01400038004040
:101E900008B501217C20FEF7DBFD0F20ADF8000026
:101EA00048208DF8030069460148FEF71FFB08BD76
:101EB0000008014008B501217C20FEF7C9FD012181
:101EC0000846FEF7C5FD4FF4C040ADF800001020F5
:101ED0008DF8030003208DF8020069460F48FEF7D5
:101EE00005FB01210E48FEF7D0FB4FF4C0410B4823
:101EF000FEF7A9FB08BD10B5044622464FF4804109
:101F00000648FEF7A2FB10BD10B5044622464FF46A
:101F100000510248FEF799FB10BD00000008014087
:101F20000004300000B587B01C228FA1684600F085
:101F3000F7FC1C236A4600217820FFF7EFFD07B06D
:101F400000BD70B5B0241BE0224600217820FFF7C9
:101F500027FE102200217820FFF722FE00221146E2
:101F60007820FFF71DFE002506E0002240217820A2
:101F7000FFF716FE681CC5B2842DF6DB601CC4B2E8
:101F8000B82CE1DB70BD08B57EA00068009003238B
:101F90006A4600217820FFF7C1FD08BD10B5FFF7A4
:101FA000F2FFFFF7CEFFFFF7BDFF10BD10B50446EF
:101FB000812200217820FFF7F3FD224600217820BE
:101FC000FFF7EEFD10BD2DE9F04705460C4616461D
:101FD0004FF0000AA01CC4B2D1463AE005F1B000AF
:101FE000C2B200217820FFF7DBFD2746E01704EBA3
:101FF0001070001100F1100200217820FFF7D0FDD1
:10200000E01704EB10700011A4EB0010C2B2002125
:102010007820FFF7C5FD4FF0000811E00AEB06102D
:10202000A0F5007058490A5C40217820FFF7B8FD00
:102030000AF1010000F0FF0A08F1010000F0FF08BA
:10204000B8F1080FEADB681CC5B209F1010000F025
:10205000FF09B9F1020FC1DBBDE8F08770B5064694
:102060000C46002508E014F8012BE806010E304666
:10207000FFF7A9FF681CC5B220780028F3D170BD16
:102080002DE9F04705460C4616464FF0000AD146AA
:1020900038E005F1B000C2B200217820FFF780FDE2
:1020A0002746E01704EB1070001100F11002002128
:1020B0007820FFF775FDE01704EB10700011A4EB1A
:1020C0000010C2B200217820FFF76AFD4FF000082F
:1020D0000FE00AEB46102D490A5C40217820FFF7FB
:1020E0005FFD0AF1010000F0FF0A08F1010000F0B5
:1020F000FF08B8F1100FECDB681CC5B209F1010054
:1021000000F0FF09B9F1020FC3DBAF2200217820F4
:10211000FFF746FDBDE8F08770B5002420E004F12C
:10212000B000C2B200217820FFF73AFD1022002152
:102130007820FFF735FD022200217820FFF730FDDF
:10214000002509E005EBC41011490A5C4021782004
:10215000FFF726FD681CC5B2802DF3DB601CC4B2FE
:10216000082CDCDB70BD0000AE0010D580A83FD38A
:1021700000B0408D14A1C8DA1281FFD9F1DB302004
:1021800000A4A6AFAE8D10005A2A00085A300008ED
:10219000DA30000808B54FF48070ADF80000482030
:1021A0008DF8030069464348FEF7A0F94FF48071AB
:1021B0004048FEF746FA4FF480513F48FEF741FA97
:1021C00008BD10B54FF480513B48FEF73AFA10BDF8
:1021D00010B504462046FFF73EFE10BD10B500BF07
:1021E00001213648FFF7BBFA0028F9D03348FFF742
:1021F00065FAC0B210BD10B504464FF480512E48A8
:10220000FEF71FFA1420FFF7EAFB4FF480512A482B
:10221000FEF719FA2046FFF7DBFF40F2A460FFF754
:10222000DEFB10BD10B504462046FFF7D1FF4FF48A
:102230004870FFF7D4FB10BD10B50A20FFF7CFFBA5
:10224000FF20FFF708FE0446204610BD10B54FF4EE
:1022500080711848FEF7DBF90446204610BD10B522
:102260004FF41670FFF7D1FBFFF794FF0620FFF73E
:10227000C2FF5520FFF7D6FFFFF7DEFF0446FFF74A
:10228000A0FFAA2C01D0FA2010BD1520FFF7B3FF44
:102290000620FFF7C7FF1420FFF7A1FBFFF7CCFFD5
:1022A0000446FFF78EFF512C01D11420ECE7FA20F1
:1022B000EAE7000000080140000C0140003800403F
:1022C00070B504462720FFF796FFFFF7B5FF0646D7
:1022D000054646B100BFFFF7AFFF2070641C701EBB
:1022E000C0B20600F7D1FFF76CFF284670BD70B58D
:1022F00004462D20FFF77FFFFFF79EFF06460546A9
:1023000046B100BF2078FFF78DFF641C701EC0B27D
:102310000600F7D1FFF755FF284670BD70B505469A
:102320000C462C20FFF767FF2046FFF77BFF44B1E8
:1023300000BF2878FFF776FF6D1C601EC0B2040056
:10234000F7D1FFF73EFF70BD70B505460E46144647
:102350002E20FFF750FF3046FFF764FF2046FFF7BF
:1023600061FF44B100BF2878FFF75CFF6D1C601E61
:10237000C0B20400F7D1FFF724FF70BD70B5054669
:102380000C460D20FFF737FF2846FFF74BFFE0B262
:10239000FFF748FFC4F30720FFF744FFC4F30740EB
:1023A000FFF740FF200EFFF73DFFFFF70AFF70BD6C
:1023B0002DE9F041FFF740FF0446FFF73DFF0546DA
:1023C000FFF73AFF0646FFF737FF0746FFF7F9FE2C
:1023D00044EA052040EA064040EA0760BDE8F08193
:1023E00010B504460C20FFF706FF2046FFF71AFF42
:1023F000FFF7DEFF10BD70B504460A20FFF7FBFEB5
:102400002046FFF70FFFFFF717FF0546FFF7D9FE3E
:10241000284670BD10B52220FFF7EDFEFFF70CFF38
:102420000446FFF7CEFE204610BD10B5002406E09E
:10243000FFF70CFF10B1FFF7EDFF10BD641CFC4867
:102440008442F5D3FA20F8E710B504462046FFF79A
:10245000D2FEFFF7B6FEFFF7E8FF10BD2DE9F04111
:1024600006460120FFF7C7FEFFF7E6FE43282BDAFA
:102470002B20FFF7C0FF102826DA2F20FFF7BBFE26
:102480000020FFF7CFFE3220FFF7DEFF0446142CBA
:102490001AD1CF20FFF7AFFF0446ACB14C20FFF7B5
:1024A0009FFF00EB042739464C20FFF767FF5020C1
:1024B000FFF796FF00EB042739465020FFF75EFF39
:1024C00000217020FFF75AFF2F20FFF794FE357888
:1024D0002846FFF7A7FE09E0761C35785C2D01D071
:1024E0002F2D00D100252846FFF79CFE002DF3D1AB
:1024F000FFF767FEBDE8F08170B505460C460B207E
:10250000FFF779FE2846FFF78DFE2046FFF78AFE8B
:10251000FFF757FE70BD10B500210D20FFF7ECFF4F
:1025200010BD10B56820FFF75BFF10BD10B52B2064
:10253000FFF761FF10BD70B505460C462846FFF752
:102540005AFE2046FFF76EFEFFF73BFEFFF76DFFDA
:1025500070BD10B50520FFF758FA5A20FFF774FF39
:1025600004460520FFF751FA204610BD10B5FFF7CD
:102570006DFE08B1FFF74EFF3020FFF765FF10BD7D
:1025800010B53120FFF760FF10BD10B5044620469E
:10259000FFF764FF20785C2802D020782F2803D131
:1025A00000216420FFF7EAFE3220FFF74DFF10BD47
:1025B00010B5044614B12046FFF750FF3420FFF752
:1025C00043FF10BD10B504462046FFF747FF2078B3
:1025D0005C2802D020782F2803D100216420FFF747
:1025E000CDFE4020FFF730FF10BD0246114600E04F
:1025F000491C08780028FBD100E0491E08785C28B7
:1026000004D008782F2801D09142F6D1914200D011
:10261000491C881AC0B270472DE9F04105460F46A3
:102620000026012429E001E0601CC4B2285D5C287A
:1026300005D0285D2F2802D0285D0028F4D1285D20
:1026400010B1601CC4B200E00024A819FFF79DFF80
:10265000064684B1BC420ED0412E0AD0142E02D1BF
:102660004320BDE8F081422E01D1B320F9E7304686
:10267000F7E7264601E03046F3E7D4E710B5044615
:10268000FF212046FFF7C8FF10BD70B50646304653
:10269000FFF7ABFF054685B129463046FFF7BCFF83
:1026A0000446412C09D0142C01D1432070BD422C8A
:1026B00001D1B320FAE72046F8E77019FFF778FF59
:1026C000F4E770B50546DDB1012401E0601CC4B239
:1026D000285D5C2805D0285D2F2802D0285D0028C1
:1026E000F4D1285D48B12846FFF7C8FF0446142CF2
:1026F00006D0412C04D0204670BD2846FFF7AEFE20
:102700003520FFF7A1FEF7E710B504462146362035
:10271000FFF711FF10BD10B5FF213720FFF70BFFAA
:1027200010BD10B53820FFF78FFE10BD10B5044660
:102730003920FFF760FDE0B2FFF774FDC4F3072016
:10274000FFF770FDC4F30740FFF76CFD200EFFF7A5
:1027500069FDFFF736FDFFF768FE10BD2DE9F0417A
:1027600007460E4614463A20FFF745FDF0B2FFF744
:1027700059FD3012FFF756FDFFF723FD0CB1002085
:10278000208016E0FFF751FE05461D2D0ED138467C
:10279000FFF796FD05463B20FFF72DFDFFF711FDE6
:1027A0002F4434B120882844208002E02846BDE828
:1027B000F081E7E72DE9F04107460E4614463C203C
:1027C000FFF719FDF0B2FFF72DFD3012FFF72AFDDC
:1027D000FFF7F7FC0CB10020208016E0FFF725FE84
:1027E00005461E2D0ED13846FFF781FD05463D20DA
:1027F000FFF701FDFFF7E5FC2F4434B120882844A2
:10280000208002E02846BDE8F081E7E770B5044685
:102810003E20FFF719FE0546142D0BD12720FFF7A8
:10282000EAFCFFF709FDFFF7C3FD206004E00000AC
:10283000404B4C0000202060284670BD2DE9F04739
:1028400004460120FFF7D7FCFFF7F6FC432808DA1F
:102850002B20FFF7D0FD102803DB03212B20FFF7EF
:102860004BFE3F20FFF7F0FD0546142D24D1272015
:10287000FFF7C1FCFFF7E0FCFFF7DEFCFFF7DCFC35
:10288000FFF7DAFCFFF7D8FCFFF7D6FC0646FFF7A8
:10289000D3FC0746FFF7D0FC8046FFF7CDFC81460E
:1028A00046EA072040EA084040EA09602060FFF756
:1028B000C3FCFFF786FC01E0002020602846BDE84D
:1028C000F08710B504464A20FFF795FCE0B2FFF709
:1028D000A9FCC4F30720FFF7A5FCC4F30740FFF7EA
:1028E000A1FC0020FFF79EFCFFF76BFCFFF79DFDAE
:1028F00010BD00000FB41CB5084B06AA7B44694606
:102900000090059800F047F804460020694600F062
:1029100055F820461CBC5DF814FB0000BD0000000B
:1029200010B5203AC0F00B80B1E81850203AA0E86A
:102930001850B1E81850A0E81850BFF4F5AF5FEA9E
:10294000027C24BFB1E81850A0E8185044BF18C951
:1029500018C0BDE810405FEA827C24BF51F8043BF8
:1029600040F8043B08BF7047D20728BF31F8023B4C
:1029700048BF11F8012B28BF20F8023B48BF00F8E0
:10298000012B7047704770477047000001694A1C6F
:1029900002610878704700B58FB0CDE901310021A0
:1029A000059105497944CDE903101146684600F0C8
:1029B0000AF80FB000BD0000E5FFFFFF0A6802F84B
:1029C000010B0A6070472DE9F04106460024D6E964
:1029D0000170F568804602E04146B847641C304605
:1029E000A8470028F8D12046BDE8F081754600F0E0
:1029F00029F8AE4605006946534620F00700854693
:102A000018B020B5FEF7F0FEBDE820404FF00006FC
:102A10004FF000074FF000084FF0000B21F00701C6
:102A2000AC46ACE8C009ACE8C009ACE8C009ACE809
:102A3000C0098D4670470446AFF300802046FDF77D
:102A40009CFB000000487047A800002001491820A6
:102A5000ABBEFEE726000200704700000000000049
:102A600000000000000000000000000038FCFC38FE
:102A700000000000000D0D000000000E1E00001EF2
:102A80000E00000000000000000020F8F820F8F818
:102A90002000020F0F020F0F0200387C444747CC82
:102AA00098000306041C1C07030030300080C0603F
:102AB00030000C060301000C0C0080D87CE4BCD86C
:102AC0004000070F0808070F080000101E0E000046
:102AD000000000000000000000000000F0F80C04FE
:102AE0000000000003070C0800000000040CF8F0D0
:102AF00000000000080C0703000080A0E0C0C0E058
:102B0000A0800002030101030200008080E0E08059
:102B1000800000000003030000000000000000002F
:102B200000000000101E0E00000080808080808069
:102B30008000000000000000000000000000000015
:102B400000000000000C0C00000000000080C060CD
:102B500030000C06030100000000F8FC04C424FC53
:102B6000F800070F0908080F0700001018FCFC0008
:102B700000000008080F0F080800080C84C4643C1B
:102B800018000E0F0908080C0C00080C444444FC03
:102B9000B800040C0808080F0700C0E0B098FCFC5F
:102BA0008000000000080F0F08007C7C4444C4C46F
:102BB0008400040C0808080F0700F0F84C4444C0D7
:102BC0008000070F0808080F07000C0C0484C47C61
:102BD0003C0000000F0F00000000B8FC444444FC1F
:102BE000B800070F0808080F0700387C444444FC6D
:102BF000F800000808080C0703000000003030004F
:102C00000000000000060600000000000030300058
:102C100000000000080E060000000080C0603018B0
:102C2000080000000103060C0800404040404040FE
:102C3000400002020202020202000008183060C0D6
:102C4000800000080C0603010000181C04C4E43CCA
:102C500018000000000D0D000000F0F808C8C8F8CA
:102C6000F000070F080B0B0B0100E0F0988C98F0B8
:102C7000E0000F0F0000000F0F0004FCFC4444FCB8
:102C8000B800080F0F08080F0700F0F80C04040C38
:102C9000180003070C08080C060004FCFC040CF8E0
:102CA000F000080F0F080C07030004FCFC44E40CC0
:102CB0001C00080F0F08080C0E0004FCFC44E40C78
:102CC0001C00080F0F0800000000F0F80C84848C32
:102CD000980003070C0808070F00FCFC404040FC6C
:102CE000FC000F0F0000000F0F00000004FCFC04AC
:102CF00000000000080F0F08000000000004FCFCAA
:102D00000400070F08080F07000004FCFCC0F03C9B
:102D10000C00080F0F00010F0E0004FCFC04000063
:102D20000000080F0F08080C0E00FCFC387038FC7F
:102D3000FC000F0F0000000F0F00FCFC3870E0FCDF
:102D4000FC000F0F0000000F0F00F0F80C040CF84F
:102D5000F00003070C080C07030004FCFC44447C4F
:102D60003800080F0F0800000000F8FC040404FC01
:102D7000F800070F080E3C3F270004FCFC44C4FC8D
:102D80003800080F0F00000F0F00183C6444C49C6B
:102D90001800060E0808080F0700001C0CFCFC0CAD
:102DA0001C000000080F0F080000FCFC000000FCE5
:102DB000FC00070F0808080F0700FCFC000000FCDF
:102DC000FC000103060C06030100FCFC008000FC73
:102DD000FC00030F0E030E0F03000C3CF0C0F03C90
:102DE0000C000C0F0300030F0C00003C7CC0C07CE7
:102DF0003C000000080F0F0800001C0C84C4643C59
:102E00001C000E0F0908080C0E000000FCFC040456
:102E1000000000000F0F080800003870E0C08000BC
:102E200000000000000103070E0000000404FCFC89
:102E30000000000008080F0F0000080C0603060C35
:102E4000080000000000000000000000000000007A
:102E50000000202020202020202000000307040064
:102E60000000000000000000000000A0A0A0E0C0E2
:102E70000000070F0808070F080004FCFC2060C0D2
:102E80008000080F0708080F0700C0E0202020601E
:102E90004000070F0808080C040080C06024FCFCF8
:102EA0000000070F0808070F0800C0E0A0A0A0E07E
:102EB000C000070F0808080C040040F8FC440C1878
:102EC0000000080F0F0800000000C0E02020C0E054
:102ED0002000276F48487F3F000004FCFC4020E0B2
:102EE000C000080F0F00000F0F00000020ECEC00E6
:102EF00000000000080F0F0800000000000020EC98
:102F0000EC0000307040407F3F0004FCFC80C0605B
:102F10002000080F0F01030E0C00000004FCFC0051
:102F200000000000080F0F080000E0E060C060E053
:102F3000C0000F0F000F000F0F0020E0C02020E0A6
:102F4000C000000F0F00000F0F00C0E0202020E0A5
:102F5000C000070F0808080F070020E0C02020E08D
:102F6000C000407F7F48080F0700C0E02020C0E07D
:102F70002000070F08487F7F400020E0C0602060ED
:102F8000C000080F0F080000000040E0A0202060F3
:102F90004000040C09090B0E04002020F8FC20203E
:102FA00000000000070F080C0400E0E00000E0E073
:102FB0000000070F0808070F080000E0E00000E02D
:102FC000E0000003070C0C070300E0E0000000E055
:102FD000E000070F0C070C0F07002060C080C060E6
:102FE0002000080C0703070C0800E0E0000000E0E8
:102FF000E000474F4848683F1F00606020A0E06045
:1030000020000C0E0B09080C0C00004040F8BC041A
:103010000400000000070F080800000000BCBC000E
:1030200000000000000F0F000000000404BCF84086
:1030300040000008080F07000000080C040C080CF2
:103040000400000000000000000080C0603060C08C
:10305000800007070404040707001022640C80089E
:10306000494A4CF84C4A490800000404FE01040493
:10307000040404FF0404040604001010D0FF509060
:103080002040FF00FF4020300000040300FF804488
:10309000221907003F414640700000F84848484860
:1030A000FF48484848FC08000000000702020202EE
:1030B0003F424242424740700000808082828282CA
:1030C00082E2A2928A8680C0800000000000004058
:1030D000807F0000000000000000000000000000F1
:1030E00000000000000000000000000000000000E0
:1030F00000000000000000000000000000000000D0
:1031000000000000000000000000000000000000BF
:1031100000000000000000000000000000000000AF
:10312000000000000000000000000000000000009F
:10313000000000000000000000000000000000008F
:10314000000000000000000000000000000000007F
:10315000000000000000000000000000000000006F
:10316000000000000000000000000000000000005F
:10317000000000F8FC1C3830381CFCF800F8F8009F
:10318000F8F8000000F8FC8C8C8C0080D050F0E047
:1031900000F0F020300000808000808000808000FF
:1031A000000C1224120C000000000000000080003F
:1031B0000000000000001824448844241800000087
:1031C00000000000000000000000000000000000FF
:1031D00000000000000000000000000000000000EF
:1031E00000000000000000000000000000000000DF
:1031F00000000003838000808000030300080B0BA5
:103200000F07804080408303030300000303030390
:1032100000038380808080C3C3C0C3C3C0C3C3C056
:10322000C0C0C0C0808080C0C0402018040300001F
:103230000000002050A0502000000000000000000E
:10324000000000000000000000000000000000007E
:10325000000000000000000000000000000000006E
:10326000000000000000000000000000000000005E
:10327000000000030408110804030000000000001F
:103280000000010284C2E160301078ECFCF63A1BC9
:10329000058597131213131111111111110181FFDB
:1032A000F9F9F2C2822225058D8B93B3E6C68C1CF8
:1032B00018387070E0C0800000000000001824483A
:1032C00024180000000000000000000000000000C2
:1032D00000000000000000000000000000000000EE
:1032E00000000000000000000000000000000000DE
:1032F0000000000080E0E0703018181C1C1C0C1C42
:103300001616160627636DAECE0E0E0F0F0F0E06A5
:103310000607070606060606060606060666776719
:1033200067E7070707060606070787C7672323120D
:1033300010000808090B0F0E0E0C3C70F0C0800046
:10334000000000000000000000000000000000007D
:10335000000000000000000000000000000000006D
:10336000000000000000000000000000000000005D
:10337000F0F8DEFFF63611E0F0F8FCFEDE1E3F3F0F
:103380001EFEFEFCF8F2E4080107FC00000000004D
:10339000000000000000000000000000000000002D
:1033A00000FF00000000003CFFE7311CE6FFFFFFCC
:1033B000FEFE1F3F3F1FFFFEFEFCF8F8F031FBFF53
:1033C000FEFC3800000000000000000000000000CB
:1033D00000000000000000000000000000000000ED
:1033E00000000000000000000000000000000000DD
:1033F0000003074F4C60607F7F7F7F7D4D4472727A
:1034000040797D7F7F7F7F7C707073737070747480
:103410007474747474747474747476767676767660
:1034200076737070727272737070707C7F7F7F7F42
:103430007D7D62727260687D7F7F7F7F7774676752
:103440006300000000000000000000000000000019
:10345000000000000000000000000000000000006C
:10346000000000000000000000000000000000005C
:10347000000000000000000000000000000000004C
:10348000000000000000000000000000000000003C
:10349000000000000000000000000000000000002C
:1034A000000000000000000000000000000000001C
:1034B000000000000000000000000000000000000C
:1034C00000000000000000000000000000000000FC
:1034D000000000000000000000000000FC340008B4
:1034E0000000002028000000280100082435000802
:1034F00028000020E00600004401000800A24A0461
:103500000000000000000000010203040607080993
:103510000000000001020304010203040607080979
:043520000204060893
:04000005080000ED02
:00000001FF
