:020000040800F2
:100000009006002021230008E9230008EB230008C4
:10001000EF230008F3230008F72300080000000086
:10002000000000000000000000000000FB230008AA
:10003000FD23000800000000FF2300080124000841
:100040003B2300083B2300083B2300083B23000818
:100050003B2300083B2300083B2300083B23000808
:100060003B2300083B2300083B2300083B230008F8
:100070003B2300083B2300083B2300083B230008E8
:100080003B2300083B2300083B2300083B230008D8
:100090003B2300083B2300083B2300083B230008C8
:1000A0003B2300083B2300083B2300083B230008B8
:1000B0003B230008352800083B2300083B230008A9
:1000C0003B2300083B2300083B2300083B23000898
:1000D0003B2300083B2300083B2300083B23000888
:1000E0003B2300083B2300083B23000800F002F8F4
:1000F00000F03AF80AA090E8000C82448344AAF188
:100100000107DA4501D100F02FF8AFF2090EBAE885
:100110000F0013F0010F18BFFB1A43F0010318473B
:10012000E835000008360000103A24BF78C878C1CE
:10013000FAD8520724BF30C830C144BF04680C60ED
:10014000704700000023002400250026103A28BF35
:1001500078C1FBD8520728BF30C148BF0B60704739
:100160001FB51FBD10B510BD02F053FD1146FFF7BE
:10017000F7FF02F008F902F071FD03B4FFF7F2FF98
:1001800003BC02F079FD00000CB500200190009046
:100190006C48006840F480306A49086000BF6948D4
:1001A000006800F4003000900198401C0190009815
:1001B00018B90198B0F5A06FF1D16248006800F459
:1001C000003010B10120009001E000200090009864
:1001D000012843D15C48006840F010005A4908608B
:1001E0000846006820F0030008600846006840F0F8
:1001F0000200086053484068524948600846406819
:1002000048600846406840F480604860084640689E
:1002100020F47C1048600846406840F4E8104860CC
:100220000846006840F08070086000BF45480068DC
:1002300000F000700028F9D04248406820F0030028
:10024000404948600846406840F00200486000BFEE
:100250003C48406800F00C000828F9D10CBD10B5EE
:10026000FFF792FF10BD10B53648006840F001005E
:1002700034490860084640683449084031494860BC
:1002800008460068324908402E4908600846006860
:1002900020F4802008600846406820F4FE00486092
:1002A0004FF41F008860FFF7DAFF4FF00060294924
:1002B000086010BD10B5002100200022214B5B68B2
:1002C00003F00C0121B1042906D0082928D107E048
:1002D000214B224C236027E01F4B204C236023E05E
:1002E000184B5B6803F47010164B5B6803F48032A4
:1002F000022303EB904022B9194B4343174C236070
:100300000DE0104B5B6803F4003323B1144B4343FF
:10031000124C236003E0104B4343104C236003E076
:100320000D4B0E4C236000BF00BF064B5B68C3F350
:1003300003130C4CE15C094B1B68CB40074C23605A
:1003400010BD000000100240002002400000FFF835
:10035000FFFFF6FE08ED00E000127A00000000202A
:1003600000093D000400002031490143314A116079
:10037000704770B5002100230F22C47804B32D4CC0
:10038000246804F4E064C4F5E064210AC1F10403C4
:10039000CA40447804FA03F18478144021430901E7
:1003A000254C0678A155047804F01F050124AC40C3
:1003B00005786D11AD0005F1E025C5F8004109E0B3
:1003C000047804F01F050124AC401C4D067876111A
:1003D00045F8264070BD1A4A0A400243154B1B1FC0
:1003E0001A60704739B1134A121D12680243114B4B
:1003F0001B1D1A6006E00F4A121D126882430D4B46
:100400001B1D1A607047042808D14FF0E0210969CC
:1004100041F004014FF0E022116107E04FF0E021CC
:10042000096921F004014FF0E022116170470000DA
:100430000000FA050CED00E000E400E080E100E0DF
:1004400080FFFF1F10B50446CC48844208D101212B
:10045000042000F02DFB0021042000F029FB46E0E1
:10046000C748844208D10121082000F021FB002167
:10047000082000F01DFB3AE0C248844208D1012167
:10048000102000F015FB0021102000F011FB2EE0E1
:10049000BD48844208D10121202000F009FB002141
:1004A000202000F005FB22E0B848844208D1012159
:1004B000402000F0FDFA0021402000F0F9FA16E09B
:1004C000B348844208D10121802000F0F1FA0021D4
:1004D000802000F0EDFA0AE0AE48844207D1012105
:1004E000801500F0E5FA0021A01500F0E1FA10BD3A
:1004F00010B50121084600F0DBFA0021012000F0D0
:10050000D7FA10BD2DE9F041024600250026002053
:1005100000230024002791F803C00CF00F0591F888
:1005200003C00CF0100CBCF1000F03D091F802C016
:100530004CEA050591F800C0BCF1000F31D01468F9
:1005400000202BE04FF0010C0CFA00F3B1F800C0D2
:100550000CEA03069E4220D183004FF00F0C0CFAE8
:1005600003F7BC4305FA03FC4CEA040491F803C00A
:10057000BCF1280F06D14FF0010C0CFA00FCC2F8B8
:1005800014C00AE091F803C0BCF1480F05D14FF048
:10059000010C0CFA00FCC2F810C0401C0828D1D392
:1005A0001460B1F800C0BCF1FF0F34DD54680020C6
:1005B0002EE000F1080C4FF0010808FA0CF3B1F836
:1005C00000C00CEA03069E4221D183004FF00F0CBD
:1005D0000CFA03F7BC4305FA03FC4CEA040491F857
:1005E00003C0BCF1280F05D100F1080C08FA0CF883
:1005F000C2F8148091F803C0BCF1480F07D100F194
:10060000080C4FF0010808FA0CF8C2F81080401CE2
:100610000828CED35460BDE8F0814FF6FF71018009
:10062000022181700421C170704702460020936846
:100630000B400BB1012000E00020704701468868A4
:1006400080B2704702460020D3680B400BB10120F6
:1006500000E0002070470146C86880B27047016121
:100660007047416170470AB1016100E04161704724
:10067000C16070474FF480320A43826181618261B8
:1006800082698269704702460020434B18684FF622
:100690008073184040EA021008433F4B18607047CF
:1006A0003E49C8617047F0B50A4600230024002186
:1006B000002500F00046B6F1004F02D1364EF16938
:1006C00001E0354E7168C0F3034583B200F4401673
:1006D000B6F5401F08D121F070612F4E766826F0E4
:1006E00070662D4F7E6012E000F48016B6F5801F14
:1006F00006D1032606FA05F4A14341F0706106E035
:10070000460D360103FA06F6B14341F0706122B19D
:10071000460D360103FA06F6314300F00046B6F105
:10072000004F02D11C4EF16101E01B4E7160F0BD23
:1007300030B500228B071C0F0F2303FA04F2164B6F
:1007400008338C1053F824309343134C08348D1025
:1007500044F8253023468C1053F824308C07240F9E
:1007600000FA04F423430C4C08348D1044F825306F
:1007700030BD0A49DC3108607047000000080140C4
:10078000000C01400010014000140140001801401D
:10079000001C0140002001400000014000002042F8
:1007A000DF48006840F00100DD4908600846406805
:1007B000DC490840DA49486008460068DA490840E0
:1007C000D74908600846006820F480200860084681
:1007D000406820F4FE0048604FF41F0088607047B6
:1007E000CF49096821F48031CD4A1160114609686A
:1007F00021F480211160B0F5803F03D0B0F5802F47
:100800000ED106E0C649096841F48031C44A11603E
:1008100007E0C349096841F4A021C14A116000E022
:1008200000BF00BF704710B5014600220023002022
:100830004A11012A02D1BA4C236806E0022A02D1E9
:10084000B74C236A01E0B64C636A01F01F02012431
:1008500094401C400CB1012000E0002010BD38B5D0
:10086000002000900024002500BF3120FFF7DBFFAF
:1008700005460098401C00900098B0F5A06F01D08C
:10088000002DF2D03120FFF7CEFF08B1012400E0A7
:100890000024204638BD01460020A14A106820F0FF
:1008A000F80040EAC10010607047A0490860704736
:1008B000024600209A4B586820F47C1042EA01035B
:1008C0001843974B5860704798490866704701462F
:1008D0000020934A506820F003000843506070479E
:1008E0008F48406800F00C007047014600208C4A99
:1008F000506820F0F0000843506070470146002027
:10090000874A506820F4E060084350607047014611
:100910000020834A506820F4605040EAC1005060D3
:10092000704729B17E4A527A02437D4B5A7204E0E5
:100930007B4A527A82437A4B5A7270477B49D8314C
:100940000860704701460020754A506820F4404016
:100950000843506070470021714A20321170704A7C
:1009600082F82010012802D004280AD104E00121D5
:100970006B4A2032117005E00521694A203211705E
:1009800000E000BF00BF70476949086070476449D4
:10099000096A0143624A1162704765494439086037
:1009A000704730B500210022002400235C4D6D68A3
:1009B00005F00C0121B1042905D0082923D105E057
:1009C0005C4D056022E05B4D05601FE0544D6D6895
:1009D00005F47012524D6D6805F48034022505EB64
:1009E00092421CB9544D554305600BE04C4D6D6867
:1009F00005F400351DB1504D5543056002E04D4DE5
:100A00005543056002E04B4D056000BF00BF444DFB
:100A10006D6805F0F0010909484D6B5C0568DD4023
:100A200045603F4D6D6805F4E061090A434D6B5C1C
:100A30004568DD4085603A4D6D6805F46051C90A2E
:100A40003E4D6B5C4568DD40C560354D6D6805F415
:100A50004041890B3A4D6B5CC568B5FBF3F5056108
:100A600030BD29B12E4A526902432D4B5A6104E030
:100A70002B4A526982432A4B5A61704729B1284A4E
:100A800092690243264B9A6104E0254A92698243A7
:100A9000234B9A61704729B1214AD2690243204B06
:100AA000DA6104E01E4AD26982431D4BDA61704765
:100AB00029B11B4AD2680243194BDA6004E0184A94
:100AC000D2688243164BDA60704729B1144A126922
:100AD0000243134B1A6104E0114A12698243104B1E
:100AE0001A61704712494039086070470F49C8645D
:100AF00070470B49C87170470948406A40F08070E0
:100B000007494862704701460020054A92680A403A
:100B10000AB1012000E00020704701498872704747
:100B2000001002400000FFF8FFFFF6FE0000424206
:100B30008004424200127A0000093D0014000020A7
:100B40002400002010B50446F748844209D1012151
:100B50004805FFF7BAFF00214FF40010FFF7B5FF7B
:100B600008E001218805FFF7B0FF00214FF4800065
:100B7000FFF7ABFF10BD2DE9F04385B004460D46ED
:100B80000026B1460427DFF8A483A6884FF6C0707C
:100B900006406846FFF705FFDDF80880E448B8FB2B
:100BA000F0F01FFA80F946EA0906A68020884FF681
:100BB000FE71084020800026DE49286888420CD853
:100BC00028684000B8FBF0F087B2042F00DA042751
:100BD0003E4309F10100208427E0E8884BF6FF71CD
:100BE000884206D1286800EB4000B8FBF0F087B2DD
:100BF00009E0286800EBC00101EB0010B8FBF0F041
:100C000087B247F48047C7F30B0008B947F00107E4
:100C100047F4004006434FF4967009FB00F04FF490
:100C20007A7190FBF1F0401C2084A683208840F06C
:100C30000100208026884FF6F5300640A888698993
:100C4000084306432680A88929890843208105B0E6
:100C5000BDE8F08341F288310160002181804BF6CC
:100C6000FF71C1800021018141814FF48041818168
:100C7000704721B1028842F00102028004E002883C
:100C80004FF6FE731A400280704721B1828842F409
:100C90000062828004E082884FF2FF731A408280F3
:100CA000704721B1828842F48052828004E08288B9
:100CB0004EF6FF731A408280704721B1028842F4D9
:100CC0008072028004E002884FF6FF631A400280BF
:100CD000704721B1028842F40072028004E0028869
:100CE0004FF6FF531A400280704721B1028842F448
:100CF0008062028004E002884FF6FF331A400280CF
:100D000070470A46002181894FF60173194002F0AD
:100D1000FE0319438181704721B1828942F00102AB
:100D2000828104E082894FF6FE731A408281704707
:100D300021B1028842F04002028004E002884FF6AE
:100D4000BF731A40028070471AB183880B438380B7
:100D500002E083888B43838070470182704701469D
:100D6000088AC0B2704712B141F0010102E04FF6AB
:100D7000FE7319400182704708B5024600200090BA
:100D800000920098084400900098008808BD21B1A6
:100D9000028842F40042028003E00288C2F30E029D
:100DA00002807047B1F5006F04D1028842F40062FE
:100DB000028004E002884FF2FF731A4002807047FD
:100DC000B1F5005F04D1028842F40052028004E0D1
:100DD00002884DF6FF731A400280704721B10288E5
:100DE00042F48052028004E002884EF6FF731A40FB
:100DF00002807047B1F5006F04D1028842F40062AE
:100E0000028004E002884FF2FF731A4002807047AC
:100E100021B1028842F02002028004E002884FF6ED
:100E2000DF731A40028070470146088B001270473A
:100E300021B1028842F01002028004E002884FF6DD
:100E4000EF731A400280704721B9028842F0800295
:100E5000028004E002884FF67F731A4002807047D8
:100E6000B1F5804F05D0828B4BF6FF731A40828319
:100E700003E0828B42F480428283704770B5024661
:100E80000024002500230020958A138B1B0445EACB
:100E9000030626F07F4404EA01068E4201D10120B8
:100EA00000E0002070BD10B50146002000230022A4
:100EB0008B8A0A8B120443EA020424F07F4010BD9F
:100EC0000CB50246002000230193009300920B0F03
:100ED000019321F07F41019B1BB1009B14330093D0
:100EE00003E0090C009B18330093009B1B680B4028
:100EF0000BB1012000E000200CBD002221F07F4258
:100F0000D3438382704730B5024600200023948883
:100F100001F0E06504EA154321F07F41948A0C401A
:100F200054B14BB1012008E00054004000127A0097
:100F300040420F00A0860100002030BD002221F0B9
:100F40007F42D3438382704701460020FE4A1068E7
:100F500000F03800084310607047FB49096821F031
:100F60000801F94A11601146096801431160704790
:100F7000F549096821F01001F34A1160114609682A
:100F8000014311607047F148EF494860F0484860FC
:100F90007047EE48EC494860ED4848607047EA48C1
:100FA000006940F08000E84908617047E648006940
:100FB00040F08000E449086170470420E249C968B4
:100FC00001F0010109B101200EE0DF49C96801F01B
:100FD000040109B1022007E0DB49C96801F01001F2
:100FE00009B1032000E00420704700B50246042345
:100FF000FFF7E3FF034603E0FFF7DFFF0346521E60
:10100000012B01D1002AF7D102B90523184600BDF2
:1010100030B5044604254FF43020FFF7E6FF0546BF
:10102000042D17D1C848006940F00200C649086184
:1010300008464461006940F0400008614FF43020E8
:10104000FFF7D3FF0546C048006941F6FD7108402F
:10105000BD490861284630BD10B504244FF4302046
:10106000FFF7C3FF0446042C16D1B748006940F0CF
:101070000400B54908610846006940F04000086175
:101080004FF43020FFF7B1FF0446AF48006941F646
:10109000FB710840AC490861204610BD00B502460E
:1010A0000423FFF78AFF034603E0FFF786FF0346AA
:1010B000521E012B01D1002AF7D102B9052318468F
:1010C00000BD10B504244FF43020FFF7E7FF0446BD
:1010D000042C16D19C48006940F004009A4908612C
:1010E0000846006940F0400008614FF43020FFF7E7
:1010F000D5FF04469448006941F6FB7108409249C7
:101100000861204610BD00208F49C96901F0020125
:1011100009B1012000E00020704730B5A525042466
:10112000FFF7F1FF00B100254FF43020FFF75DFF1E
:101130000446042C3AD185488349886084488860F5
:101140000846006940F0200008610846006940F048
:10115000400008614FF43020FFF747FF0446042C9D
:101160001BD17948006941F6DF7108407649086172
:101170000846006940F01000086176480580E002EA
:10118000FFF733FF0446052C10D06F48006941F685
:10119000EF7108406C49086108E0052C06D06A48E8
:1011A000006941F6EF71084067490861204630BD8B
:1011B00078B506460C46042500200090E802FFF7AB
:1011C00014FF0546042D24D15F48006940F001005A
:1011D0005D4908613480E802FFF707FF0546042DEA
:1011E00010D1B01C0090200C00990880E802FFF795
:1011F000FCFE05465448006941F6FE71084052491C
:10120000086106E05048006941F6FE7108404E4909
:101210000861284678BD70B504460D460426F002E4
:10122000FFF7E3FE0646042E11D14748006940F05F
:101230000100454908612580F002FFF7D6FE064609
:101240004148006941F6FE7108403F490861304657
:1012500070BD70B505460E460424E002FFF7C5FEDA
:101260000446042C17D139483749886038488860CB
:101270000846006940F0100008612E80E002FFF788
:10128000B4FE0446052C06D02F48006941F6EF71E4
:1012900008402D490861204670BD2DE9F043044601
:1012A0004FF6FF763746B046B1460425E443E6B232
:1012B000C4F30727C4F307484FEA1469E802FFF7AD
:1012C00094FE0546042D49D120481F4988602048D6
:1012D00088600846006940F010000861FF2E06D0C3
:1012E0001C4808300680E802FFF77FFE0546042D03
:1012F00008D1FF2F06D017480A300780E802FFF711
:1013000074FE0546042D0AD1B8F1FF0F07D011482D
:101310000C30A0F80080E802FFF767FE0546042DB8
:101320000AD1B9F1FF0F07D00A480E30A0F800909B
:10133000E802FFF75AFE0546052D0FD00248006966
:1013400041F6EF71084007E00020024023016745A5
:10135000AB89EFCD00F8FF1F664908612846BDE85C
:10136000F08330B5054604244FF43020FFF73DFEEE
:101370000446042C41D160485E4988605F4888601B
:101380000846006940F0200008610846006940F006
:10139000400008614FF43020FFF727FE0446042C7C
:1013A00022D15448006941F6DF7108405149086173
:1013B0000846006940F0100008611DB10020504946
:1013C000088002E0A5204E4908804FF43020FFF746
:1013D0000CFE0446052C10D04648006941F6EF711A
:1013E00008404449086108E0052C06D041480069DE
:1013F00041F6DF7108403F490861204630BDF0B535
:1014000005460E46174604243B483A4988603B4847
:101410008860E002FFF7E9FD0446042C19D1354845
:10142000006940F010003349086147F0F80030438C
:1014300028433349891C0880E002FFF7D6FD0446A3
:10144000052C06D02B48006941F6EF710840294968
:1014500008612046F0BD2748C069800870472548CC
:10146000006A704700202349096801F0200109B192
:10147000012000E00020704729B11E4A1269024392
:101480001C4B1A6104E01B4A12698243194B1A6112
:10149000704701460020012908D1164AD26902F09E
:1014A00001020AB1012008E0002006E0114AD268DA
:1014B0000A400AB1012000E0002070470D49C860D1
:1014C000704704200B49C96801F0010109B10120EE
:1014D0000EE00849C96801F0040109B1022007E0E3
:1014E0000449C96801F0100109B1032000E004209B
:1014F000704700000020024023016745AB89EFCD13
:1015000000F8FF1F10B50446FE48844208D10121AF
:10151000C014FFF7CDFA0021E014FFF7C9FAC4E0C8
:10152000B4F1804F08D101210846FFF7CEFA00211F
:101530000120FFF7CAFAB8E0F348844208D101213C
:101540000220FFF7C2FA00210220FFF7BEFAACE04A
:10155000EE48844208D101210420FFF7B6FA0021A9
:101560000420FFF7B2FAA0E0E948844208D1012143
:101570000820FFF7AAFA00210820FFF7A6FA94E056
:10158000E448844208D101211020FFF79EFA00218F
:101590001020FFF79AFA88E0DF48844208D1012141
:1015A0002020FFF792FA00212020FFF78EFA7CE03E
:1015B000DA48844208D101214014FFF779FA00216A
:1015C0006014FFF775FA70E0D548844209D1012113
:1015D000C804FFF76DFA00214FF40020FFF768FA06
:1015E00063E0D048844209D101210805FFF760FA81
:1015F00000214FF48010FFF75BFA56E0CA4884429E
:1016000009D101214805FFF753FA00214FF40010DA
:10161000FFF74EFA49E0C548844208D10121402035
:10162000FFF753FA00214020FFF74FFA3DE0C04892
:10163000844208D101218020FFF747FA0021802051
:10164000FFF743FA31E0BB48844208D101218015FD
:10165000FFF73BFA0021A015FFF737FA25E0B6485F
:10166000844209D101210804FFF722FA00214FF436
:101670008030FFF71DFA18E0B048844209D10121FB
:101680004804FFF715FA00214FF40030FFF710FA75
:101690000BE0AB48844208D101218804FFF708FA27
:1016A00000214FF48020FFF703FA10BD00220288CA
:1016B000944B98420ED0994B98420BD0B0F1804F8A
:1016C00008D0914B984205D0904B984202D0904B55
:1016D000984204D14FF68F731A404B881A438D4BB2
:1016E000984207D08C4B984204D04FF6FF431A40E3
:1016F000CB881A4302808B8883850B880385814BB6
:1017000098420BD0854B984208D08B4B984205D01D
:101710008A4B984202D08A4B984201D10B7A0386B9
:1017200001238382704770B5002400220023058CBA
:101730004FF6FE7635400584028C8388048B4FF685
:101740008F752C40B51E2C400D882C43751E2A40E9
:101750000D892A434D882A436A4DA8420BD06F4D0C
:10176000A84208D0744DA84205D0744DA84202D0BA
:10177000734DA84213D14FF6F7752A404D892A437D
:101780004FF6FB752A408D882A434FF6FF652B40A4
:101790004FF6FF552B408D892B43CD892B438380FA
:1017A0000483CD888586028470BD70B50024002234
:1017B0000023058C4FF6EF7635400584028C838834
:1017C000048B48F6FF752C404FF6FF452C400D88E2
:1017D0004FF6FF7606EA05252C434FF6DF752A40C3
:1017E0000D8906EA05152A434D8806EA05152A43A0
:1017F000444DA84202D0494DA8421DD14FF67F75F5
:101800002A404D894FF6FF7606EA05152A434FF622
:10181000BF752A408D8806EA05152A434FF6FF3525
:101820002B404FF2FF752B408D8906EA85052B432F
:10183000CD8906EA85052B4383800483CD880587FF
:10184000028470BD70B5002400220023058C4FF681
:10185000FF6635400584028C8388848B4FF68F7534
:101860002C404FF6FC752C400D882C434FF6FF554D
:101870002A400D894FF6FF7606EA05252A434D8852
:1018800006EA05252A431F4DA84202D0234DA8424F
:101890001DD14FF2FF752A404D894FF6FF7606EABB
:1018A00005252A434FF6FF352A408D8806EA05258F
:1018B0002A434EF6FF752B404DF6FF752B408D8960
:1018C00006EA05152B43CD8906EA05152B438380CF
:1018D0008483CD888587028470BD70B50022002383
:1018E0000024058C4EF6FF7635400584038C8488F1
:1018F000828B48F6FF752A404FF6FF452A400D8837
:1019000020E00000002C01400004004000080040DE
:10191000000C004000100040001400400034014062
:10192000004C0140005001400054014000180040AC
:10193000001C0040002000400040014000440140E5
:10194000004801404FF6FF7606EA05252A434DF68A
:10195000FF752B400D8906EA05352B434D8806EAB5
:1019600005352B43FA4DA84202D0FA4DA84208D1C2
:101970004BF6FF752C408D894FF6FF7606EA8515EC
:101980002C4384808283CD88A0F84050038470BDAE
:10199000828B4FF2FF331A408283828B4FF6FF73A4
:1019A00003EA01231A4382837047F0B50C461546BB
:1019B000002200210026078C4EF6FF7C07EA0C0768
:1019C0000784828B018C4FF6FF7707EA043640F6D6
:1019D000FF473A404FF6FF7707EA05273A434FF6AD
:1019E000FF7707EA03373A43D94FB8420ED0D94FB1
:1019F000B8420BD0B0F1804F08D0D74FB84205D0D5
:101A0000D64FB84202D0D64FB84206D14DF6FF7736
:101A1000394046F48057394305E047F6FF573940CF
:101A200044F48057394382830184F0BD828B4FF6A2
:101A3000F3731A408283828B0A4382837047F0B526
:101A40000C461546002200210026078C4FF6FF6C3D
:101A500007EA0C070784828B018C4FF6FF7707EAB1
:101A600004264FF60C773A404FF6FF7707EA031744
:101A70002F433A43B64FB8420ED0B64FB8420BD0C0
:101A8000B0F1804F08D0B44FB84205D0B34FB84240
:101A900002D0B34FB84206D14FF6FF57394046F453
:101AA0008077394305E04FF2FF57394044F480779F
:101AB000394382830184F0BD028B4FF2FF331A4019
:101AC0000283028B4FF6FF7303EA01231A4302835A
:101AD0007047F0B50C461546002200210026078C01
:101AE0004FF6EF7C07EA0C070784028B018C4FF658
:101AF000FF7707EA041640F6FF473A404FF6FF77B4
:101B000007EA03373A434FF6FF7707EA05273A43D8
:101B10008F4FB8420ED08F4FB8420BD0B0F1804FEC
:101B200008D08D4FB84205D08C4FB84202D08C4FB0
:101B3000B84206D14FF6DF77394046F010073943F7
:101B400005E04FF65F77394044F0100739430283D0
:101B50000184F0BD028B4FF6F3731A400283028BAF
:101B60000A4302837047F0B50C4615460022002157
:101B7000068C4FF6FE773E400684028B018C4FF6B2
:101B80000C7632407E1C06EA03162E433243704E1A
:101B9000B0420ED06F4EB0420BD0B0F1804F08D0A3
:101BA0006D4EB04205D06D4EB04202D06C4EB04288
:101BB00006D14FF6FD76314044F00106314305E091
:101BC0004FF6F576314044F001063143028301843B
:101BD000F0BD70B505460C465D4885420ED05D48A7
:101BE00085420BD0B5F1804F08D05B48854205D0C7
:101BF0005A48854202D05A48854200D100E000BFD1
:101C0000208850B92389A28861882846FFF7ABFF56
:101C1000E1882846FFF79EFF25E0208804280AD1A6
:101C20002389A28861882846FFF753FFE188284668
:101C3000FFF742FF17E0208808280AD12389A288ED
:101C400061882846FFF7FBFEE1882846FFF7EEFE95
:101C500009E02389A28861882846FFF7A6FEE1886B
:101C60002846FFF795FE70BD2DE9F04105460C466C
:101C700000260127608808B9022600E00026A08817
:101C8000012801D1022700E001272088A0B923897B
:101C9000A28861882846FFF766FFE1882846FFF79B
:101CA00059FF23893A4631462846FFF712FFE1885B
:101CB0002846FFF701FF13E02389A28861882846A0
:101CC000FFF707FFE1882846FFF7F6FE23893A462B
:101CD00031462846FFF747FFE1882846FFF73AFFDD
:101CE000BDE8F0810A884B881A438B881A43CB8859
:101CF0001A430B891A434B891A438B891A43A0F85C
:101D0000442070474FF6FF71818000210180C1801F
:101D10004180017270470021018041808180C18033
:101D2000018141818181C181704700210180418011
:101D3000012181800021C180018170470021018043
:101D400041808180C1800181418181817047000093
:101D5000002C014000340140000400400008004015
:101D6000000C004021B1028842F00102028004E030
:101D700002884FF6FE731A400280704731B1B0F806
:101D8000442042F40042A0F8442005E0B0F844208A
:101D9000C2F30E02A0F8442070471AB183890B43A6
:101DA000838102E083898B438381704781827047FE
:101DB00041EA0203A0F8483070471AB183890B4307
:101DC000838102E083898B438381704701894FF6C9
:101DD000F8721140018170470A46002101894FF6CF
:101DE0008F73194011430181704730B504460D4689
:101DF00029462046FFF7F0FF208940F007002081A8
:101E000030BD2DE9F04104460D4616461F46602DB3
:101E100006D13B46012231462046FFF75AFE05E037
:101E20003B46012231462046FFF79DFE29462046CB
:101E3000FFF7D2FF208940F007002081BDE8F08144
:101E400030B50C4600210189C9B24FF6FF7505EA8D
:101E50000325154325432943018130BD2DE9F04178
:101E600005460E4617469846002443463A463146F4
:101E70002846FFF7E5FF2C894FF6F870044044F040
:101E800007044FF68F70044044F070042C81BDE8C5
:101E9000F081F0B504460D4616461F463B463246D5
:101EA00029462046FFF7CCFF208940F4804020815E
:101EB000F0BD0185828270470A46002101884FF6F5
:101EC0008F731940114301807047F0B50C461546D9
:101ED0001E460021002200230189028B038C4FF64D
:101EE000F877394021434FF6FC473A4040F201175A
:101EF0003A434FF6DD773B404FF6FF7707EA061788
:101F00002F433B43018102830384F0BD0A46002135
:101F1000018B4FF68F7319401143018370470A46B6
:101F20000021018B48F6FF7319404FF6FF7303EA57
:101F300002231943018370470A460021818B4FF623
:101F40008F7319401143818370470A460021818BAA
:101F500048F6FF7319404FF6FF7303EA0223194353
:101F60008183704721B1028842F08002028004E040
:101F700002884FF67F731A400280704721B1828831
:101F800042F00402828004E082884FF6FB731A401C
:101F90008280704721B1828842F00802828004E08A
:101FA00082884FF6F7731A408280704721B1828889
:101FB00042F00102828004E082884FF6FE731A40EC
:101FC000828070470A460021018B4FF6F773194053
:101FD0001143018370470A460021018B4FF2FF73C2
:101FE00019404FF6FF7303EA022319430183704738
:101FF0000A460021818B4FF6F77319401143818304
:1020000070470A460021818B4FF2FF7319404FF64B
:10201000FF7303EA02231943818370470A460021B4
:10202000018B4FF6FB7319401143018370470A4639
:102030000021018B4FF6FF3319404FF6FF7303EA7F
:1020400002231943018370470A460021818B4FF612
:10205000FB7319401143818370470A460021818B2D
:102060004FF6FF3319404FF6FF7303EA022319437B
:10207000818370470A460021018B4FF67F73194018
:102080001143018370470A460021018BC1F30E0101
:102090004FF6FF7303EA02231943018370470A4690
:1020A0000021818B4FF67F73194011438183704764
:1020B0000A460021818BC1F30E014FF6FF7303EA3C
:1020C00002231943818370470A460021018C4FF691
:1020D000FD7319401143018470470A460021018CA9
:1020E0004FF6F77319401143018470470A460021E7
:1020F000018C4FF6DF7319404FF6FF7303EA0213AA
:102100001943018470470A460021018C4FF67F7302
:1021100019404FF6FF7303EA021319430184704715
:102120000A460021018C4FF6FF5319404FF6FF730A
:1021300003EA02231943018470470A460021018CF7
:102140004FF2FF7319404FF6FF7303EA022319435E
:10215000018470470A460021018C4DF6FF73194037
:102160004FF6FF7303EA023319430184704730B519
:10217000002301248C40A3B2048C9C430484048C6F
:1021800002FA01F5ADB22C43048430BD30B5002312
:1021900004248C40A3B2048C9C430484048C02FA73
:1021A00001F5ADB22C43048430BD70B50346002068
:1021B00000241846183001258D40ACB21D8CA54373
:1021C0001D8409B1082909D100EB6100056825F0DB
:1021D000700505600568154305600EE00D1FC5F329
:1021E0004E052844056825F4E045056005684FF66E
:1021F000FF7606EA02263543056070BD21B10288EC
:1022000042F00202028004E002884FF6FD731A4099
:102210000280704721B1028842F00402028004E08B
:1022200002884FF6FB731A400280704721B1828802
:1022300042F08002828004E082884FF67F731A4069
:102240008280704702884FF6F7731A400280028836
:102250000A430280704782884FF68F731A4082804B
:1022600082880A438280704702894FF6F8731A40C9
:10227000028102890A430281704702894FF67F7307
:102280001A40028102890A430281704781847047A3
:1022900081857047818670470187704781877047C5
:1022A000A0F84010704702884FF6FF431A400280A2
:1022B00002880A43028070470146888E70470146B3
:1022C000088F70470146888F70470146B1F840007B
:1022D00070470146888C70470146088D704702465A
:1022E0000020138A0B400BB1012000E00020704752
:1022F000CA430282704730B5024600200023002402
:10230000158A05EA0103958905EA010413B10CB1A8
:10231000012000E0002030BDCA4302827047000067
:102320000948804709480047FEE7FEE7FEE7FEE769
:10233000FEE7FEE7FEE7FEE7FEE7FEE704480549A5
:10234000054A064B7047000067020008ED000008D0
:1023500090000020900600209002002090020020B3
:1023600001464906194A926942F00102174B9A61E7
:10237000174A526822F0E062154B5A601A465268BA
:102380000A435A6070474FF4FA7000F051F8022087
:10239000FFF7E6FF0120FFF7E3FF00F069F800F028
:1023A0006BFA00F0D9FB00F0EDFB00F0AAF800F0AA
:1023B000D7FA08A1002000F033FB41F61F4142F29A
:1023C0000F7000F017FA00BFFEE700000010024097
:1023D0000000014020202054494D205445535420F2
:1023E0002020202000000000704700BFFEE700BF53
:1023F000FEE700BFFEE700BFFEE77047704770478B
:10240000704700EBC001C9004FF0E022516100218C
:1024100091610521116100BF4FF0E021096901F4CC
:1024200080310029F8D004214FF0E022116170477B
:1024300000B5034603E04FF47A70FFF7E2FF181E81
:10244000A3F101018BB2F6D100BD10B5044603E043
:102450004FF47A70FFF7ECFF201EA4F101018CB25B
:10246000F6D110BD10B54FF4A060FDF77DFF10BD93
:1024700010B5FEF795F94FF48030FEF7B1F9FEF78D
:10248000EEF90446012C24D14FF4E0110004FEF7CC
:102490000FFA0020FEF729FAA002FEF72FFA00201B
:1024A000FEF735FA0220FEF74FFD1020FEF760FD23
:1024B0000120FEF709FA00BF3920FEF7B4F9002821
:1024C000FAD00220FEF703FA00BFFEF709FA082847
:1024D000FBD110BD08B501211C20FEF7CFFA012168
:1024E0004805FEF7D8FAC020ADF800001C208DF892
:1024F000030003208DF802006946B148FEF702F898
:1025000008BD1FB5FFF7E6FF0020ADF804004BF64D
:10251000FF70ADF80600C020ADF808004FF48060F1
:10252000ADF80A000001ADF80C00A648009069461D
:10253000A548FEF720FB0121A348FEF79AFB1FBD2B
:102540002DE9F04105460F4614461E4601219E48DE
:10255000FEF7B3FB00BF9D499B48FEF78FFC0028A8
:10256000F9D0002229469848FEF7FDFB00BF9849A4
:102570009548FEF783FC0028F9D039469248FEF7CB
:10258000ECFB00BF9249891C8F48FEF777FC0028BE
:10259000F8D00CE021788C48FEF7DFFB641C00BF0C
:1025A0008B49891C8848FEF769FC0028F8D0301E4A
:1025B000A6F101018EB2EDD101218348FEF789FB1E
:1025C000BDE8F08170B504460E46154601217E48EF
:1025D000FEF773FB00BF7D497B48FEF74FFC0028E8
:1025E000F9D0002221467848FEF7BDFB00BF7849AC
:1025F0007548FEF743FC0028F9D031467248FEF7D3
:10260000ACFB00BF7249891C6F48FEF737FC0028FD
:10261000F8D029466C48FEF7A0FB00BF6C49891C26
:102620006948FEF72BFC0028F8D001216648FEF728
:1026300050FB70BD2DE9F04106460F4615461C467D
:1026400000BF4FF400316048FEF73AFC0028F8D193
:1026500001215D48FEF731FB00BF5C495A48FEF797
:102660000DFC0028F9D0002231465748FEF77BFBCD
:1026700000BF57495448FEF701FC0028F9D001215A
:102680005148FEF7F6FA39464F48FEF766FB00BFA1
:102690004F49891C4C48FEF7F1FB0028F8D0012176
:1026A0004948FEF70AFB00BF48494748FEF7E6FBEA
:1026B0000028F9D0012231464348FEF754FB00BF01
:1026C0004249491C4048FEF7D9FB0028F8D016E0E3
:1026D000012C07D100213C48FEF707FB01213A48B5
:1026E000FEF7F7FA39493F313748FEF7C7FB30B1FB
:1026F0003548FEF734FB28706D1C601E84B2002C38
:10270000E6D101213048FEF7F0FABDE8F08170B55E
:1027100004460D4600BF4FF400312B48FEF7D0FBB6
:102720000028F8D101212848FEF7C7FA00BF274941
:102730002548FEF7A3FB0028F9D0002221462248B5
:10274000FEF711FB00BF22491F48FEF797FB002848
:10275000F9D001211C48FEF78CFA29461A48FEF7E9
:10276000FCFA00BF1A49891C1748FEF787FB0028AE
:10277000F8D001211448FEF7A0FA00BF134912480F
:10278000FEF77CFB0028F9D0012221460E48FEF717
:10279000EAFA00BF0D49491C0B48FEF76FFB002801
:1027A000F8D000210848FEF7A0FA01210648FEF7FC
:1027B00090FA0548FEF7D3FA0646304670BD000091
:1027C000000C0140400D03000054004001000300D4
:1027D0008200070008B51D208DF8000003208DF849
:1027E00001008DF8020001208DF803006846FDF716
:1027F000C0FD08BD3EB505460C4601210220FEF78E
:102800004AF9FFF7E7FFADF80450ADF800400020AB
:10281000ADF80200ADF8060069461448FEF746FF21
:10282000012211461148FFF7B8FA01210F48FFF7BE
:1028300099FA3EBD10B501210C48FFF75CFDA0B12F
:1028400001210A48FFF768FD09480068401C084953
:10285000086001210748FDF7F5FEC0F10100C4B290
:10286000224601210348FDF7FEFE10BD0004004092
:1028700028000020000C014008B501217C20FEF753
:10288000FDF801210846FEF7F9F84FF4C040ADF815
:10289000000010208DF8030003208DF80200694627
:1028A0000F48FDF72FFE01210E48FDF7FCFE4FF407
:1028B000C0410B48FDF7D5FE08BD10B504462246C1
:1028C0004FF480410648FDF7CEFE10BD10B504461A
:1028D00022464FF400510248FDF7C5FE10BD00002E
:1028E000000801400004300000B587B01C228FA111
:1028F000684600F059F91C236A4600217820FFF74A
:102900001FFE07B000BD70B5B0241BE022460021B9
:102910007820FFF757FE102200217820FFF752FEA3
:10292000002211467820FFF74DFE002506E0002228
:1029300040217820FFF746FE681CC5B2842DF6DBE7
:10294000601CC4B2B82CE1DB70BD08B57EA0006885
:10295000009003236A4600217820FFF7F1FD08BDAF
:1029600010B5FFF7F2FFFFF7CEFFFFF7BDFF10BD79
:1029700010B50446812200217820FFF723FE22466D
:1029800000217820FFF71EFE10BD2DE9F047054617
:102990000C4616464FF0000AA01CC4B2D1463AE0DD
:1029A00005F1B000C2B200217820FFF70BFE2746E8
:1029B000E01704EB107000111030C2B20021782033
:1029C000FFF700FEE01704EB10700011A4EB0010FD
:1029D000C2B200217820FFF7F5FD4FF0000811E0AA
:1029E0000AEB0610A0F5007058490A5C40217820D7
:1029F000FFF7E8FD0AF1010000F0FF0A08F101000D
:102A000000F0FF08B8F1080FEADB681CC5B209F155
:102A1000010000F0FF09B9F1020FC1DBBDE8F0874A
:102A200070B506460C46002508E014F8012BE806B0
:102A3000010E3046FFF7A9FF681CC5B220780028B8
:102A4000F3D170BD2DE9F04705460C4616464FF010
:102A5000000AD14638E005F1B000C2B2002178206A
:102A6000FFF7B0FD2746E01704EB1070001110309F
:102A7000C2B200217820FFF7A5FDE01704EB10702B
:102A80000011A4EB0010C2B200217820FFF79AFDDC
:102A90004FF000080FE00AEB46102D490A5C402178
:102AA0007820FFF78FFD0AF1010000F0FF0A08F11E
:102AB000010000F0FF08B8F1100FECDB681CC5B294
:102AC00009F1010000F0FF09B9F1020FC3DBAF22E9
:102AD00000217820FFF776FDBDE8F08770B500246F
:102AE00020E004F1B000C2B200217820FFF76AFDB7
:102AF000102200217820FFF765FD022200217820B6
:102B0000FFF760FD002509E005EBC41011490A5CE0
:102B100040217820FFF756FD681CC5B2802DF3DBFD
:102B2000601CC4B2082CDCDB70BD0000AE0010D508
:102B300080A83FD300B0408D14A1C8DA1281FFD91C
:102B4000F1DB302000A4A6AFAE8D1000862C00086B
:102B5000863200080633000808B501211C20FDF765
:102B60008DFF0320ADF8000010208DF80300032036
:102B70008DF8020069460248FDF7C4FC08BD00005C
:102B8000000C014008B501210420FDF777FF032068
:102B9000ADF8000048208DF8030069460148FDF7B4
:102BA000B1FC08BD0008014010B5203AC0F00B8010
:102BB000B1E81850203AA0E81850B1E81850A0E841
:102BC0001850BFF4F5AF5FEA027C24BFB1E818509B
:102BD000A0E8185044BF18C918C0BDE810405FEA0B
:102BE000827C24BF51F8043B40F8043B08BF704787
:102BF000D20728BF31F8023B48BF11F8012B28BF8C
:102C000020F8023B48BF00F8012B7047704770471F
:102C10007047754600F02CF8AE46050069465346ED
:102C200020F00700854618B020B5FFF787FBBDE808
:102C300020404FF000064FF000074FF000084FF023
:102C4000000B21F00701AC46ACE8C009ACE8C009B4
:102C5000ACE8C009ACE8C0098D46704710B5044621
:102C6000AFF300802046BDE81040FDF786BA0000B3
:102C7000004870472C00002001491820ABBEFEE739
:102C80002600020070470000000000000000000065
:102C9000000000000000000038FCFC3800000000CC
:102CA000000D0D000000000E1E00001E0E000000B2
:102CB00000000000000020F8F820F8F82000020FC3
:102CC0000F020F0F0200387C444747CC98000306E0
:102CD000041C1C07030030300080C06030000C066C
:102CE0000301000C0C0080D87CE4BCD84000070F26
:102CF0000808070F080000101E0E0000000000006A
:102D00000000000000000000F0F80C0400000000CB
:102D100003070C0800000000040CF8F0000000009D
:102D2000080C0703000080A0E0C0C0E0A080000203
:102D3000030101030200008080E0E08080000000C9
:102D4000000303000000000000000000000000007D
:102D5000101E0E00000080808080808080000000B7
:102D60000000000000000000000000000000000063
:102D7000000C0C00000000000080C06030000C0659
:102D8000030100000000F8FC04C424FCF800070F55
:102D90000908080F0700001018FCFC0000000008DC
:102DA000080F0F080800080C84C4643C18000E0FBC
:102DB0000908080C0C00080C444444FCB800040C3E
:102DC0000808080F0700C0E0B098FCFC8000000075
:102DD00000080F0F08007C7C4444C4C48400040C29
:102DE0000808080F0700F0F84C4444C08000070FA3
:102DF0000808080F07000C0C0484C47C3C00000089
:102E00000F0F00000000B8FC444444FCB800070F5A
:102E10000808080F0700387C444444FCF800000808
:102E200008080C070300000000303000000000001C
:102E30000006060000000000003030000000000026
:102E4000080E060000000080C06030180800000076
:102E50000103060C08004040404040404000020290
:102E60000202020202000008183060C08000000860
:102E70000C0603010000181C04C4E43C1800000008
:102E8000000D0D000000F0F808C8C8F8F000070FAA
:102E9000080B0B0B0100E0F0988C98F0E0000F0F8E
:102EA0000000000F0F0004FCFC4444FCB800080FB5
:102EB0000F08080F0700F0F80C04040C18000307B3
:102EC0000C08080C060004FCFC040CF8F000080FC9
:102ED0000F080C07030004FCFC44E40C1C00080F62
:102EE0000F08080C0E0004FCFC44E40C1C00080F46
:102EF0000F0800000000F0F80C84848C9800030791
:102F00000C0808070F00FCFC404040FCFC000F0FC1
:102F10000000000F0F00000004FCFC040000000093
:102F2000080F0F08000000000004FCFC0400070F5D
:102F300008080F07000004FCFCC0F03C0C00080F60
:102F40000F00010F0E0004FCFC0400000000080F3D
:102F50000F08080C0E00FCFC387038FCFC000F0F4A
:102F60000000000F0F00FCFC3870E0FCFC000F0FAD
:102F70000000000F0F00F0F80C040CF8F00003073D
:102F80000C080C07030004FCFC44447C3800080FC8
:102F90000F0800000000F8FC040404FCF800070F10
:102FA000080E3C3F270004FCFC44C4FC3800080F1A
:102FB0000F00000F0F00183C6444C49C1800060E5C
:102FC0000808080F0700001C0CFCFC0C1C0000008B
:102FD000080F0F080000FCFC000000FCFC00070FBD
:102FE0000808080F0700FCFC000000FCFC000103BF
:102FF000060C06030100FCFC008000FCFC00030F33
:103000000E030E0F03000C3CF0C0F03C0C000C0F44
:103010000300030F0C00003C7CC0C07C3C0000009F
:10302000080F0F0800001C0C84C4643C1C000E0F29
:103030000908080C0E000000FCFC0404000000005D
:103040000F0F080800003870E0C08000000000008A
:10305000000103070E0000000404FCFC0000000057
:1030600008080F0F0000080C0603060C08000000FB
:103070000000000000000000000000000000202010
:103080002020202020200000030704000000000072
:1030900000000000000000A0A0A0E0C00000070F9A
:1030A0000808070F080004FCFC2060C08000080F1F
:1030B0000708080F0700C0E0202020604000070F2D
:1030C0000808080C040080C06024FCFC0000070F06
:1030D0000808070F0800C0E0A0A0A0E0C000070F8C
:1030E0000808080C040040F8FC440C180000080F05
:1030F0000F0800000000C0E02020C0E02000276F83
:1031000048487F3F000004FCFC4020E0C000080F5E
:103110000F00000F0F00000020ECEC00000000008A
:10312000080F0F0800000000000020ECEC00003049
:103130007040407F3F0004FCFC80C0602000080F0E
:103140000F01030E0C00000004FCFC000000000056
:10315000080F0F080000E0E060C060E0C0000F0F43
:10316000000F000F0F0020E0C02020E0C000000F83
:103170000F00000F0F00C0E0202020E0C000070F6C
:103180000808080F070020E0C02020E0C000407FB2
:103190007F48080F0700C0E02020C0E02000070F94
:1031A00008487F7F400020E0C0602060C000080F1A
:1031B0000F080000000040E0A02020604000040C48
:1031C00009090B0E04002020F8FC2020000000005C
:1031D000070F080C0400E0E00000E0E00000070F2B
:1031E0000808070F080000E0E00000E0E00000032E
:1031F000070C0C070300E0E0000000E0E000070F10
:103200000C070C0F07002060C080C0602000080C75
:103210000703070C0800E0E0000000E0E000474F73
:103220004848683F1F00606020A0E06020000C0E4E
:103230000B09080C0C00004040F8BC04040000001E
:1032400000070F080800000000BCBC0000000000E0
:10325000000F0F000000000404BCF840400000080C
:10326000080F07000000080C040C080C0400000004
:1032700000000000000080C0603060C080000707D0
:103280000404040707001022640C8008494A4CF823
:103290004C4A490800000404FE010404040404FF2D
:1032A0000404040604001010D0FF50902040FF00DA
:1032B000FF4020300000040300FF80442219070073
:1032C0003F414640700000F848484848FF48484899
:1032D00048FC080000000007020202023F4242428E
:1032E00042474070000080808282828282E2A29205
:1032F0008A8680C08000000000000040807F0000BF
:1033000000000000000000000000000000000000BD
:1033100000000000000000000000000000000000AD
:10332000000000000000000000000000000000009D
:10333000000000000000000000000000000000008D
:10334000000000000000000000000000000000007D
:10335000000000000000000000000000000000006D
:10336000000000000000000000000000000000005D
:10337000000000000000000000000000000000004D
:10338000000000000000000000000000000000003D
:10339000000000000000000000000000000000F835
:1033A000FC1C3830381CFCF800F8F800F8F8000075
:1033B00000F8FC8C8C8C0080D050F0E000F0F02005
:1033C000300000808000808000808000000C12248B
:1033D000120C00000000000000008000000000004F
:1033E0000000182444884424180000000000000055
:1033F00000000000000000000000000000000000CD
:1034000000000000000000000000000000000000BC
:1034100000000000000000000000000000000003A9
:10342000838000808000030300080B0B0F0780409F
:10343000804083030303000003030303000383802E
:10344000808080C3C3C0C3C3C0C3C3C0C0C0C0C02A
:10345000808080C0C04020180403000000000020CD
:1034600050A05020000000000000000000000000FC
:10347000000000000000000000000000000000004C
:10348000000000000000000000000000000000003C
:103490000000000000000000000000000000000329
:1034A00004081108040300000000000000000102ED
:1034B00084C2E160301078ECFCF63A1B0585971366
:1034C0001213131111111111110181FFF9F9F2C237
:1034D000822225058D8B93B3E6C68C1C183870703C
:1034E000E0C08000000000000018244824180000FC
:1034F00000000000000000000000000000000000CC
:1035000000000000000000000000000000000000BB
:1035100000000000000000000000000000000000AB
:1035200080E0E0703018181C1C1C0C1C16161606C7
:1035300027636DAECE0E0E0F0F0F0E0606070706A1
:1035400006060606060606060666776767E70707A5
:1035500007060606070787C7672323121000080817
:10356000090B0F0E0E0C3C70F0C080000000000034
:10357000000000000000000000000000000000004B
:10358000000000000000000000000000000000003B
:10359000000000000000000000000000F0F8DEFF66
:1035A000F63611E0F0F8FCFEDE1E3F3F1EFEFEFC8C
:1035B000F8F2E4080107FC00000000000000000031
:1035C00000000000000000000000000000FF0000FC
:1035D0000000003CFFE7311CE6FFFFFFFEFE1F3F3F
:1035E0003F1FFFFEFEFCF8F8F031FBFFFEFC380049
:1035F00000000000000000000000000000000000CB
:1036000000000000000000000000000000000000BA
:103610000000000000000000000000000003074F51
:103620004C60607F7F7F7F7D4D44727240797D7FEB
:103630007F7F7F7C70707373707074747474747433
:103640007474747474747676767676767673707035
:10365000727272737070707C7F7F7F7F7D7D62720B
:103660007260687D7F7F7F7F77746767630000008B
:10367000000000000000000000000000000000004A
:10368000000000000000000000000000000000003A
:10369000000000000000000000000000000000002A
:1036A000000000000000000000000000000000001A
:1036B000000000000000000000000000000000000A
:1036C00000000000000000000000000000000000FA
:1036D00000000000000000000000000000000000EA
:1036E00000000000000000000000000000000000DA
:1036F00000000000000000000000000000000000CA
:103700000000000000000000283700080000002032
:103710002C00000028010008543700082C0000206D
:10372000640600004401000800A24A0400000000F2
:103730000000000001020304060708090000000061
:103740000102030401020304060708090204060833
:043750000000000075
:04000005080000ED02
:00000001FF
